:020000040800F2
:100000000000052061F00008AD6E0008BB6E00081E
:10001000C16E0008C76E0008CD6E00080000000029
:10002000000000000000000000000000D36E000887
:10003000E16E000800000000EF6E0008FD6E000891
:10004000B1F00008B1F00008B1F00008B1F000080C
:10005000B1F00008356F0008B1F00008B1F00008F9
:10006000B1F00008B1F00008B1F00008B1F00008EC
:10007000456F0008B1F00008596F0008B1F00008A2
:100080006D6F0008816F0008956F0008B1F00008DF
:10009000B1F00008B1F00008B1F00008B1F00008BC
:1000A000B1F00008A96F0008C56F0008E16F0008F3
:1000B000B1F00008F56F0008B1F00008B1F00008D9
:1000C000B1F00008B1F00008B1F00008B1F000088C
:1000D000B1F00008B1F00008097000081D700008B8
:1000E000B1F00008B1F00008B1F00008B1F000086C
:1000F0003170000845700008B1F00008B1F0000848
:10010000B1F00008B1F00008B1F00008B1F000084B
:10011000B1F00008B1F000085D70000871700008CF
:10012000B1F0000885700008B1F00008B1F00008D7
:1001300099700008B1F00008B1F00008B1F00008B3
:10014000B1F00008B1F00008B1F00008B1F000080B
:10015000B1F00008AD700008B1F00008C1700008EF
:10016000B1F00008B1F00008B1F00008B1F00008EB
:10017000B1F00008D5700008B1F0000800000000E0
:10018000B1F00008B1F00008B1F00008B1F00008CB
:10019000E9700008B1F00008B1F00008B1F0000803
:1001A000B1F00008B1F00008B1F00008B1F00008AB
:1001B000B1F00008B1F00008B1F00008B1F000089B
:0801C000B1F00008B1F00008E5
:1001D00010B5054C237833B9044B13B10448AFF381
:1001E00000800123237010BDA00201200000000048
:1001F000EC18010808B5034B1BB103490348AFF3E2
:10020000008008BD00000000A4020120EC180108D5
:10021000034613F8012B002AFBD1181A0138704746
:1002200001F0FF01102A2BDB10F0070F08D010F8A7
:10023000013B013A8B422DD010F0070F42B3F6D1AB
:10024000F0B441EA012141EA014122F007047FF0C4
:1002500000070023F0E80256083C85EA010586EA1B
:10026000010685FA47F5A3FA87F586FA47F6A5FA57
:1002700087F68EB9EED1F0BC01F0FF0102F0070263
:1002800032B110F8013B013A83EA010313B1F8D10E
:100290000020704701387047002D06BF35460338EF
:1002A000073815F0010F07D1013015F4807F02BF28
:1002B000013015F4C03F0130F0BC0138704700BF79
:1002C00081F0004102E000BF83F0004330B54FEA07
:1002D00041044FEA430594EA050F08BF90EA020F74
:1002E0001FBF54EA000C55EA020C7FEA645C7FEA07
:1002F000655C00F0E2804FEA5454D4EB5555B8BF2A
:100300006D420CDD2C4480EA020281EA030382EA9A
:10031000000083EA010180EA020281EA0303362D2C
:1003200088BF30BD11F0004F4FEA01314FF4801CFF
:100330004CEA113102D0404261EB410113F0004F11
:100340004FEA03334CEA133302D0524263EB4303C8
:1003500094EA050F00F0A780A4F10104D5F1200E66
:100360000DDB02FA0EFC22FA05F2801841F10001C1
:1003700003FA0EF2801843FA05F359410EE0A5F195
:1003800020050EF1200E012A03FA0EFC28BF4CF0C6
:10039000020C43FA05F3C01851EBE37101F000457C
:1003A00007D54FF0000EDCF1000C7EEB00006EEB89
:1003B0000101B1F5801F1BD3B1F5001F0CD3490813
:1003C0005FEA30004FEA3C0C04F101044FEA44526A
:1003D00012F5800F80F09A80BCF1004F08BF5FEAF1
:1003E000500C50F1000041EB045141EA050130BDD1
:1003F0005FEA4C0C404141EB010111F4801FA4F174
:100400000104E9D191F0000F04BF01460020B1FAC8
:1004100081F308BF2033A3F10B03B3F120020CDA00
:100420000C3208DD02F1140CC2F10C0201FA0CF0DE
:1004300021FA02F10CE002F11402D8BFC2F1200C43
:1004400001FA02F120FA0CFCDCBF41EA0C019040F9
:10045000E41AA2BF01EB0451294330BD6FEA040442
:100460001F3C1CDA0C340EDC04F11404C4F120022D
:1004700020FA04F001FA02F340EA030021FA04F33F
:1004800045EA030130BDC4F10C04C4F1200220FA96
:1004900002F001FA04F340EA0300294630BD21FAD4
:1004A00004F0294630BD94F0000F83F4801306BF9A
:1004B00081F480110134013D4EE77FEA645C18BF8E
:1004C0007FEA655C29D094EA050F08BF90EA020F25
:1004D00005D054EA000C04BF1946104630BD91EA1D
:1004E000030F1EBF0021002030BD5FEA545C05D120
:1004F0004000494128BF41F0004130BD14F580045F
:100500003CBF01F5801130BD01F0004545F0FE41D2
:1005100041F470014FF0000030BD7FEA645C1ABF07
:10052000194610467FEA655C1CBF0B46024650EA3E
:10053000013406BF52EA033591EA030F41F400216A
:1005400030BD00BF90F0000F04BF0021704730B5F0
:100550004FF4806404F132044FF000054FF00001C5
:1005600050E700BF90F0000F04BF0021704730B586
:100570004FF4806404F1320410F0004548BF40425B
:100580004FF000013EE700BF42004FEAE2014FEAB0
:1005900031014FEA02701FBF12F07F4393F07F4F8B
:1005A00081F06051704792F0000F14BF93F07F4FBD
:1005B000704730B54FF4607401F0004521F0004100
:1005C00020E700BF50EA010208BF704730B54FF086
:1005D00000050AE050EA010208BF704730B511F08B
:1005E000004502D5404261EB41014FF4806404F1C3
:1005F00032045FEA915C3FF4DCAE4FF003025FEA45
:10060000DC0C18BF03325FEADC0C18BF033202EBCC
:10061000DC02C2F1200300FA03FC20FA02F001FA26
:1006200003FE40EA0E0021FA02F11444C1E600BFC5
:1006300070B54FF0FF0C4CF4E06C1CEA11541DBF78
:100640001CEA135594EA0C0F95EA0C0F00F0DEF843
:100650002C4481EA030621EA4C5123EA4C5350EA28
:10066000013518BF52EA033541F4801143F4801379
:1006700038D0A0FB02CE4FF00005E1FB02E506F00A
:100680000042E0FB03E54FF00006E1FB03569CF05F
:10069000000F18BF4EF0010EA4F1FF04B6F5007F65
:1006A00064F5407404D25FEA4E0E6D4146EB0606D7
:1006B00042EAC62141EA55514FEAC52040EA5E5060
:1006C0004FEACE2EB4F1FD0C88BFBCF5E06F1ED80A
:1006D000BEF1004F08BF5FEA500E50F1000041EB41
:1006E000045170BD06F0004646EA010140EA0200EE
:1006F00081EA0301B4EB5C04C2BFD4EB0C0541EA10
:10070000045170BD41F480114FF0000E013C00F324
:10071000AB8014F1360FDEBF002001F0004170BD48
:10072000C4F10004203C35DA0C341BDC04F1140461
:10073000C4F1200500FA05F320FA04F001FA05F2ED
:1007400040EA020001F0004221F0004110EBD370BA
:1007500021FA04F642EB06015EEA430E08BF20EAE6
:10076000D37070BDC4F10C04C4F1200500FA04F389
:1007700020FA05F001FA04F240EA020001F000411B
:1007800010EBD37041F100015EEA430E08BF20EA8E
:10079000D37070BDC4F1200500FA05F24EEA020ED6
:1007A00020FA04F301FA05F243EA020321FA04F005
:1007B00001F0004121FA04F220EA020000EBD370BC
:1007C0005EEA430E08BF20EAD37070BD94F0000FBC
:1007D0000FD101F00046400041EB010111F4801FF0
:1007E00008BF013CF7D041EA060195F0000F18BFA1
:1007F000704703F00046520043EB030313F4801FDD
:1008000008BF013DF7D043EA0603704794EA0C0F96
:100810000CEA135518BF95EA0C0F0CD050EA4106AC
:1008200018BF52EA4306D1D181EA030101F0004129
:100830004FF0000070BD50EA410606BF1046194651
:1008400052EA430619D094EA0C0F02D150EA01365D
:1008500013D195EA0C0F05D152EA03361CBF10469E
:1008600019460AD181EA030101F0004141F0FE413D
:1008700041F470014FF0000070BD41F0FE4141F4C1
:10088000780170BD70B54FF0FF0C4CF4E06C1CEAC1
:1008900011541DBF1CEA135594EA0C0F95EA0C0F76
:1008A00000F0A7F8A4EB050481EA030E52EA033531
:1008B0004FEA013100F088804FEA03334FF0805552
:1008C00045EA131343EA12634FEA022245EA11157F
:1008D00045EA10654FEA00260EF000419D4208BF30
:1008E000964244F1FD0404F5407402D25B084FEADD
:1008F0003202B61A65EB03055B084FEA32024FF489
:1009000080104FF4002CB6EB020E75EB030E22BFE5
:10091000B61A754640EA0C005B084FEA3202B6EBA5
:10092000020E75EB030E22BFB61A754640EA5C0054
:100930005B084FEA3202B6EB020E75EB030E22BFE4
:10094000B61A754640EA9C005B084FEA3202B6EBE5
:10095000020E75EB030E22BFB61A754640EADC00A4
:1009600055EA060E18D04FEA051545EA16754FEA06
:1009700006164FEAC30343EA52734FEAC2025FEA24
:100980001C1CC0D111F4801F0BD141EA00014FF0B3
:1009900000004FF0004CB6E711F4801F04BF014384
:1009A0000020B4F1FD0C88BFBCF5E06F3FF6AFAEA0
:1009B000B5EB030C04BFB6EB020C5FEA500C50F130
:1009C000000041EB045170BD0EF0004E4EEA1131B3
:1009D00014EB5C04C2BFD4EB0C0541EA045170BDBA
:1009E00041F480114FF0000E013C90E645EA060EFE
:1009F0008DE60CEA135594EA0C0F08BF95EA0C0F2C
:100A00003FF43BAF94EA0C0F0AD150EA01347FF473
:100A100034AF95EA0C0F7FF425AF104619462CE74A
:100A200095EA0C0F06D152EA03353FF4FDAE1046AD
:100A3000194622E750EA410618BF52EA43067FF4FE
:100A4000C5AE50EA41047FF40DAF52EA43057FF48E
:100A5000EBAE12E74FF0FF3C06E000BF4FF0010C99
:100A600002E000BF4FF0010C4DF804CD4FEA410CFD
:100A70007FEA6C5C4FEA430C18BF7FEA6C5C1BD0CA
:100A800001B050EA410C0CBF52EA430C91EA030F4B
:100A900002BF90EA020F0020704710F1000F91EAA8
:100AA000030F58BF994208BF90422CBFD8176FEA76
:100AB000E37040F0010070474FEA410C7FEA6C5C44
:100AC00002D150EA013C07D14FEA430C7FEA6C5C4B
:100AD000D6D152EA033CD3D05DF8040B704700BF77
:100AE0008446104662468C461946634600E000BFC5
:100AF00001B5FFF7B7FF002848BF10F1000F01BD97
:100B00004DF808EDFFF7F4FF0CBF012000205DF861
:100B100008FB00BF4DF808EDFFF7EAFF34BF0120E6
:100B200000205DF808FB00BF4DF808EDFFF7E0FF7F
:100B300094BF012000205DF808FB00BF4DF808EDD0
:100B4000FFF7CEFF94BF012000205DF808FB00BF37
:100B50004DF808EDFFF7C4FF34BF012000205DF819
:100B600008FB00BF4FEA410C7FEA6C5C02D150EAFF
:100B7000013C0AD14FEA430C7FEA6C5C02D152EA95
:100B8000033C02D14FF0000070474FF00100704766
:100B90004FEA410212F5001215D211D56FF47873A5
:100BA000B3EB625212D94FEAC12343F0004343EA48
:100BB000505311F0004F23FA02F018BF4042704723
:100BC0004FF00000704750EA013005D111F00040AD
:100BD00008BF6FF0004070474FF00000704700BF43
:100BE00053B94AB9002908BF00281CBF4FF0FF3194
:100BF0004FF0FF3000F07AB9ADF1080C6DE904CE8A
:100C000000F006F8DDF804E0DDE9022304B07047E7
:100C10002DE9F0478C460D460446089E002B51D125
:100C20008A4217466DD9B2FA82FEBEF1000F0BD090
:100C3000CEF1200C01FA0EF520FA0CFC02FA0EF7A8
:100C40004CEA050C00FA0EF44FEA174A250CBCFBDF
:100C5000FAF81FFA87F90AFB18CC45EA0C4508FB9D
:100C600009F3AB420AD9ED1908F1FF3280F0238174
:100C7000AB4240F22081A8F102083D44ED1AA4B233
:100C8000B5FBFAF00AFB105544EA054400FB09F9EC
:100C9000A14509D9E41900F1FF3380F00A81A1458B
:100CA00040F2078102383C44A4EB090440EA0840C2
:100CB0000021002E61D024FA0EF40023346073600A
:100CC000BDE8F0878B4207D9002E54D0002186E87A
:100CD00021000846BDE8F087B3FA83F1002940F00F
:100CE0008E80AB4202D3824200F2FA80841A65EB16
:100CF00003050120AC46002E3FD086E81010BDE869
:100D0000F08712B90127B7FBF2F7B7FA87FEBEF1F9
:100D1000000F34D1EB1B3A0C1FFA87FC0121B3FB07
:100D2000F2F8250C02FB183345EA03450CFB08F3E7
:100D3000AB4207D9ED1908F1FF3002D2AB4200F205
:100D4000D1808046ED1AA3B2B5FBF2F002FB10553C
:100D500043EA05440CFB00FCA44507D9E41900F163
:100D6000FF3302D2A44500F2B8801846A4EB0C046D
:100D700040EA08409DE731463046BDE8F087CEF1B5
:100D8000200405FA0EF307FA0EF720FA04F83A0CDD
:100D900025FA04F448EA0308B4FBF2F14FEA1845D7
:100DA00002FB11441FFA87FC45EA044501FB0CF3E2
:100DB000AB4200FA0EF409D9ED1901F1FF3080F0D1
:100DC0008A80AB4240F2878002393D44EB1A1FFA19
:100DD00088F5B3FBF2F002FB103345EA034500FB54
:100DE0000CF3AB4207D9ED1900F1FF386FD2AB42DB
:100DF0006DD902383D44EB1A40EA01418FE7C1F159
:100E0000200722FA07F88B4005FA01F448EA0303A9
:100E100020FA07FE4FEA134CFD404EEA040EB5FBE4
:100E2000FCF94FEA1E440CFB19551FFA83F844EAFB
:100E3000054509FB08F4AC4202FA01F200FA01FA96
:100E400008D9ED1809F1FF3043D2AC4241D9A9F1DC
:100E500002091D442D1B1FFA8EFEB5FBFCF00CFB96
:100E600010554EEA054400FB08F8A04507D9E418E0
:100E700000F1FF3529D2A04527D902381C4440EAA9
:100E80000940A4EB0804A0FB02894C45C6464D4628
:100E900015D312D056B1BAEB0E0364EB050404FA75
:100EA00007F7CB401F43CC40376074600021BDE89A
:100EB000F0871846F8E69046E0E6C245EAD2B8EB7D
:100EC000020E69EB03050138E4E72846D7E7404600
:100ED00091E78146BEE7014678E702383C4445E7A2
:100EE000084608E7A8F102083D442BE7704700BF19
:100EF00080B59AB000AF7860174BBB604FF02063AD
:100F0000FB6000233B6100237B614FF48063BB6186
:100F10000023FB6100233B624FF480737B624FF43C
:100F20000033BB627B6807F108029A607B689B68AC
:100F3000184607F06FFC0346002B01D005F08AFF2E
:100F40007B681B68054ADA667B681B68034A936303
:100F500000BF6837BD4680BD28640240CC13012025
:100F600080B582B000AF78600B46FB70064B186806
:100F7000FB789AB24FF6FF7304490CF009FD00BFED
:100F80000837BD4680BD00BFAC0C0120D00C01204D
:100F900080B582B000AF78600B46FB7000224FF442
:100FA00080710F4808F08AFC00224FF400510C4871
:100FB00008F084FC7B681B6818460CF0FDFD78681F
:100FC00000F03CF87B6818687B6803F596734FF473
:100FD000807219460CF06CFD00BF0837BD4680BD1D
:100FE0000018024080B582B000AF78607B681B6853
:100FF00018460CF0E1FD7B681B6880220349184607
:101000000CF056FD00BF0837BD4680BDC40201206C
:1010100080B483B000AF78607B6893F834321A46AE
:1010200013465B011344DB0020337A681344043316
:1010300018460C37BD465DF8047B704780B485B018
:1010400000AF78600023FB6009E07A68FB68134416
:1010500003F59673FF221A70FB680133FB60FB688F
:10106000FF2BF2DD00BF1437BD465DF8047B7047EF
:1010700080B500AF144B154A1A60134B144A5A60DE
:10108000114B144A9A60104B134ADA600E4B134A04
:101090001A610D4B4FF400625A610B4B4FF4006222
:1010A0009A610948FFF724FF00210748FFF770FF06
:1010B0000B4B00221A700B4B00221A600A4B0022C5
:1010C0001A6000BF80BD00BFAC0C01202C160120AF
:1010D0006C150120CC130120A0640240286402405A
:1010E000C0020120BC020120AC04012080B582B006
:1010F00000AF374B1B78002B02D0012B5AD062E097
:10110000344B1B685B68C3F580737B60324B1B6894
:101110007A689A4206D9314B00221A602E4A7B68BF
:1011200013604FE07B68042B4CD92C4B1B68032BBE
:1011300048D92B48FFF756FF274B00221A60274B50
:1011400000221A602648FFF763FF02464FF48073BF
:101150007968244800F040FD38603B68002B21D0BE
:1011600001224FF40051204808F0A8FB01224FF45F
:1011700080711D4808F0A2FB3B68DBB21946184895
:10118000FFF7EEFE00224FF48071174808F096FB3F
:1011900000224FF40051144808F090FB0C4B012240
:1011A0001A700FE000210E48FFF7F2FE084B0022F4
:1011B0001A7007E000210A48FFF7EAFE044B0022FC
:1011C0001A7000E000BF00BF0837BD4680BD00BFF9
:1011D000C0020120CC130120BC020120AC0401207C
:1011E000AC0C0120D80D01200018024080B588B059
:1011F00000AFF860B9607A603B60FB683B61BB6838
:101200007B617B68BB613B68FB61BB68012B40F283
:101210009C803B68012B40F29880FB681B78503B18
:101220000E2B00F2918001A252F823F069120008FF
:10123000791200088912000899120008A912000802
:10124000B9120008C9120008D91200084913000891
:10125000E9120008F9120008091300081913000820
:10126000291300083913000807F11003194650200C
:1012700000F084F803466FE007F11003194651208F
:1012800000F07CF8034667E007F11003194652208E
:1012900000F074F803465FE007F11003194653208D
:1012A00000F06CF8034657E007F11003194654208C
:1012B00000F064F803464FE007F11003194655208B
:1012C00000F05CF8034647E007F11003194656208A
:1012D00000F054F803463FE007F110031946572089
:1012E00000F04CF8034637E007F110031946592087
:1012F00000F044F803462FE007F1100319465A2086
:1013000000F03CF8034627E007F1100319465B2084
:1013100000F034F803461FE007F1100319465C2083
:1013200000F02CF8034617E007F1100319465D2082
:1013300000F024F803460FE007F1100319465E2081
:1013400000F01CF8034607E000BF07F1100301217D
:10135000184600F005F8034618462037BD4680BD04
:1013600080B483B000AF78600B46FB700023184652
:101370000C37BD465DF8047B7047000080B58AB02D
:1013800000AF03463960FB710023FB833B689A681A
:10139000FB8B591CF9831344FA791A70FB79503B83
:1013A0000E2B00F2FF8301A252F823F0E91300088C
:1013B0002314000879140008CF1400082B15000826
:1013C000B91500087916000895180008A51B000833
:1013D000151900084F190008D1190008371A00081C
:1013E0000F1B0008691B00083B689A68FB8B591C9F
:1013F000F98313449E4A927E1A703B689A68FB8B6D
:10140000591CF98313449A4AB2F83426D2B21A709E
:101410003B689A68FB8B591CF983134400221A70AD
:10142000C1E33B681B6801331B78FB84FB8CDBB298
:101430003B72052300220121387A02F061FE3B68ED
:101440009A68FB8B591CF9831344894A927E1A705F
:101450003B689A68FB8B591CF9831344844AB2F8A1
:101460003426D2B21A703B689A68FB8B591CF983F8
:10147000134400221A7096E33B681B6801331B7803
:10148000FB84FB8CDBB23B72052300220321387AFC
:1014900002F036FE3B689A68FB8B591CF9831344B3
:1014A000734A927E1A703B689A68FB8B591CF983C9
:1014B00013446F4AB2F83426D2B21A703B689A6865
:1014C000FB8B591CF983134400221A706BE33B68B1
:1014D0001B6801331B78FB84FB8C002B04D0644B0E
:1014E0002322A3F8382603E0614B0022A3F8382614
:1014F0003B689A68FB8B591CF98313445C4A927EC3
:101500001A703B689A68FB8B591CF9831344584A3C
:10151000B2F83426D2B21A703B689A68FB8B591C19
:10152000F983134400221A703DE33B681B680133C2
:101530001B78FB84FB8C002B0CD0FB8C032B09D875
:101540004B4AFB8C53804A4B5B8842F201011846A0
:1015500004F0F2F9464B5B88012B07D1444B454A16
:101560001A61434B4FF480125A6107E0404B6FF40D
:1015700000121A613E4B4FF480125A613B689A6820
:10158000FB8B591CF9831344394A5288D2B21A7022
:101590003B689A68FB8B591CF9831344344AB2F8B0
:1015A0003426D2B21A703B689A68FB8B591CF983B7
:1015B000134400221A70F6E23B681B6801331B7863
:1015C000BB84BB8C022B35D80023BB8320237B83B9
:1015D000BB8BFB840BE0FB8CBA8CD1B2244A023368
:1015E0001B0113440A461A70FB8C0133FB84FA8CEE
:1015F0007B8B9A42EFD31E4B5B88012B1AD0BB8C9E
:10160000022B14BF01230023DBB21A46184B1A77B2
:10161000174B1B7F002B0DD1154B03F5C8634FF003
:1016200000021A60124B012283F84426104B00225C
:10163000A3F83C263B689A68FB8B591CF98313443A
:101640000B4A927E1A703B689A68FB8B591CF9838F
:101650001344074AB2F83426D2B21A703B689A682B
:10166000FB8B591CF983134400221A709BE200BFC4
:10167000D4050120FFFFDF0F3B681B6801331B7897
:10168000FB843B681B6802331B78BB84FB8CFF2BFD
:1016900030D0FB8CBB83FB8C7B8300237B84BB8C97
:1016A000DBB23B7400233B843B7CC3F30303DBB21C
:1016B000052B00F3D2803B7CC3F30303DBB2022B88
:1016C0000DDD3B7CC3F30303DBB29BB2033B7B84A6
:1016D0000323BB843B7CC3F30313DBB23B84FB8C4F
:1016E000D8B2BB8CD9B23B8CDAB27B8CDBB201F0C6
:1016F00079FAB2E00023BB8320237B83BB8CDBB26F
:101700003B743B7CC3F30303DBB2052B00F3A580E2
:10171000BB8BFB849CE0FB8C152B00F09680FB8C34
:101720001A2B00F092803B7CC3F30303DBB2022B45
:1017300047DD3B7CC3F30303DBB29BB2033B7B84FB
:101740003B7CC3F30313DBB23B84FB8C3A8CD1B2FA
:101750009D4A42331B01134404330A461A70FB8C22
:101760007A8C994902F5457231F81220398C11FBB7
:1017700002F291B2944A42331B01134406330A46E3
:101780001A80FB8C904A42331B01134403221A70C7
:10179000FB8C7A8CD1B28C4A1B01134403F22E438A
:1017A0000A461A70FB8C7A8C874902F5457231F82B
:1017B0001210854A42331B01134402330A461A8031
:1017C00043E000237B8400233B84FB8C3A8CD1B222
:1017D0007D4A42331B01134404330A461A70FB8CC2
:1017E0007A8C794902F5457231F81220398C11FB57
:1017F00002F291B2744A42331B01134406330A4683
:101800001A80FB8C3A7CC2F30302D2B211466E4AB4
:1018100042331B0113440A461A70FB8C7A8CD1B2F6
:10182000694A1B01134403F22E430A461A70FB8CCB
:101830007A8C654902F5457231F81210624A4233DA
:101840001B01134402330A461A80FB8C0133FB84CC
:10185000FA8C7B8B9A42FFF45EAF3B689A68FB8BF5
:10186000591CF9831344584A927E1A703B689A684F
:10187000FB8B591CF9831344534AB2F83426D2B275
:101880001A703B689A68FB8B591CF9831344002239
:101890001A7088E13B681B685B783B734A4B5B8836
:1018A000012B1AD03A7B484B83F846263B7B23F02A
:1018B0007F03DBB2002B08D0434B012283F847267D
:1018C000414B012283F8702507E03F4B022283F849
:1018D00047263D4B022283F870253B689A68FB8BB4
:1018E000591CF9831344384A927E1A703B689A68EF
:1018F000FB8B591CF9831344334AB2F83426D2B215
:101900001A703B689A68FB8B591CF98313440022B8
:101910001A7048E13B689A68FB8B591CF9831344A1
:10192000294A927E1A703B689A68FB8B591CF9838E
:101930001344254AB2F83426D2B21A703B689A682A
:10194000FB8B591CF983134400221A702BE13B686E
:101950001B6801331B78FB84FB8C2F2B17D9FB8C66
:10196000332B14D8FB8CDAB2184B1A70174B1B7838
:10197000184600F021F9FB8CDAB2134B83F8542699
:10198000114B5B8842F20501184603F0D5FF3B6816
:101990009A68FB8B591CF98313440B4A927E1A7088
:1019A0003B689A68FB8B591CF9831344064AB2F8CA
:1019B0003426D2B21A703B689A68FB8B591CF983A3
:1019C000134400221A70EEE0D4050120B004012077
:1019D0003B681B6801331B78FB84FB8C012B0DD803
:1019E000FB8CDAB2724B83F84C26714B93F84C3671
:1019F0009BB242F20601184603F09EFF3B689A68CC
:101A0000FB8B591CF9831344694A927E1A703B6818
:101A10009A68FB8B591CF9831344654AB2F8342643
:101A2000D2B21A703B689A68FB8B591CF983134435
:101A300000221A70B7E03B681B6801331B78FB84F7
:101A4000FB8C1B02FB843B681B6802331B789AB239
:101A5000FB8C1344FB84FB8C002B2AD0FB8C642270
:101A600002FB03F31A46524BC3F85026FB8C42F29A
:101A70000701184603F060FF3B689A68FB8B591C0E
:101A8000F98313444A4A927E1A703B689A68FB8B2A
:101A9000591CF9831344464AB2F83426D2B21A705C
:101AA0003B689A68FB8B591CF983134400221A7017
:101AB00079E03F4BD3F850363E4AA2FB03235B0943
:101AC0007B617B691B0A7B613B689A68FB8B591CB5
:101AD000F98313447A69D2B21A70354BD3F8503671
:101AE000344AA2FB03235B097B613B689A68FB8B4A
:101AF000591CF98313447A69D2B21A703B689A6808
:101B0000FB8B591CF983134400221A704BE03B688D
:101B10001B6801331B78FB84FB8C1B02FB843B6836
:101B20001B6802331B789AB2FB8C1344FB843B681E
:101B30009A68FB8B591CF98313441D4A927E1A70D4
:101B40003B689A68FB8B591CF9831344184AB2F816
:101B50003426D2B21A703B689A68FB8B591CF98301
:101B6000134400221A701EE03B681B6801331B7887
:101B7000FB843B689A68FB8B591CF9831344002251
:101B80001A703B689A68FB8B591CF98313441E2218
:101B90001A703B689A68FB8B591CF9831344002226
:101BA0001A7000E000BFFB8B18462837BD4680BD89
:101BB000D40501201F85EB5180B483B000AF0346EC
:101BC000FB71044AFB79137000BF0C37BD465DF80A
:101BD000047B70474403012080B588B000AFF860F3
:101BE000B9607A603B60FF23FB770023BB61BB6871
:101BF000032B06D9BA683B689A4202D2FB681B786D
:101C0000FB772D4B1B78FA7F9A4250D1BB68023B81
:101C10001946F86800F052F80346FB82FB8ADBB2F3
:101C2000BA68023AF9680A44127893423FD1FB8AB3
:101C30001B0A9AB2BB68013BF9680B441B789BB244
:101C40009A4234D1FB68581CBB68D91E7B685A1C69
:101C50003B68033BFFF7CAFAB861FB7F002B24D037
:101C6000BB69002B21D0144B1B78803BDAB27B6818
:101C70001A70BB6901331946786800F01FF80346F3
:101C8000FB82BB6901337A681344FA8AD2B21A70B4
:101C9000BB6902337A681344FA8A120A92B2D2B24A
:101CA0001A70BB690333BB6101E00023BB61BB69F0
:101CB00018462037BD4680BD4403012080B487B05C
:101CC00000AF786039604FF6FF73FB8100237B61C2
:101CD00022E07B697A6813441B789AB2FB895340EF
:101CE000FB8100233B6111E0FB8903F00103002B22
:101CF00003D1FB895B08FB8105E0FB895B089AB295
:101D00000B4B5340FB813B6901333B613B69072B24
:101D1000EADD7B6901337B617A693B689A42D8D3FB
:101D2000FB8918461C37BD465DF8047B704700BF31
:101D300001A0FFFF80B586B002AF78600B46FB7054
:101D40001346BB70FB783B73BB787B737B6818686A
:101D50007B68998807F10C0201230093022309F0A4
:101D600055F80346002B0CBF01230023DBB21846B5
:101D70001037BD4680BD90B589B002AFF8607A607B
:101D80003B600B46FB723B68002B02D03B68042B88
:101D900001D900231EE0FB7A3B7407F110030133E5
:101DA0003A68796818460DF0E7F9FB681868FB682F
:101DB00099883B689BB201339CB207F11002012362
:101DC0000093234609F022F80346002B0CBF0123A1
:101DD0000023DBB218461C37BD4690BD80B586B0E7
:101DE00002AFF8600B467A60FB72FB681868FB680C
:101DF000998807F10B0201230093012309F006F8EB
:101E00000346002B01D000230FE0FB681868FB6835
:101E100099880123009301237A6809F0EBF80346BF
:101E2000002B0CBF01230023DBB218461037BD4640
:101E300080BD000080B586B000AF78600023BB7520
:101E4000654B664A1A60644B82229A80624B01227B
:101E50009A71614B614A9A605F4B84229A815E4B12
:101E600001229A735C4B5D4A1A615B4B86229A820F
:101E7000594B01229A75584B584A9A61564B882201
:101E80009A83554B01229A77534B1B68002B05D13F
:101E9000534B544AA52154480DF00CF94E4B9B6806
:101EA000002B05D1514B4F4AA6214F480DF002F9A6
:101EB000494B1B69002B05D14D4B4A4AA7214A4883
:101EC0000DF0F8F8444B9B69002B05D1494B454A6E
:101ED000A82145480DF0EEF8404804F025F801230C
:101EE0007B750023BB756EE03C4BFB60BB7D3A4AC3
:101EF000DB0013449B883B820123BB7430233B757A
:101F00000023FB75BB7C002B03D0FB7D43F010034B
:101F1000FB753A7D07F10C0300211846FFF70AFF15
:101F200003461A467B7D1340002B14BF0123002378
:101F30007B75FA7D07F10C0301211846FFF7FAFEC5
:101F400003461A467B7D1340002B14BF0123002358
:101F50007B7500233B7200237B720023BB7210232E
:101F6000FB7207F1080207F10C000423FA21FFF7C6
:101F700002FF03461A467B7D1340002B14BF01234A
:101F800000237B7507F10C039FED1B0A184600F038
:101F9000E5F803461A467B7D1340002B14BF01234E
:101FA00000237B7507F10C03184600F081F8034607
:101FB0001A467B7D1340002B14BF012300237B7541
:101FC000BB7D0133BB75BB7D032B8DD97B7D184653
:101FD0001837BD4680BD00BF50050120940F012079
:101FE00008190108741C01082C1901085819010866
:101FF0007C190108A019010800007A4480B584B05A
:1020000000AF786039600123FB7307F10E031A46B5
:1020100000217868FFF7E2FE03461A46FB7B134077
:10202000002B14BF01230023FB73BB7B03F01003C1
:10203000002B14BF01230023DAB23B681A70FB7B2C
:1020400018461037BD4680BD80B584B000AF7860BB
:102050000123FB7307F10E031A4600217868FFF78E
:10206000BDFE03461A46FB7B1340002B14BF012321
:102070000023FB73BB7B03F07F03DBB2BB73BB7B33
:1020800043F01003DBB2BB73BB7B1A4600217868B8
:10209000FFF750FE03461A46FB7B1340002B14BF8C
:1020A00001230023FB73FB7B18461037BD4680BD20
:1020B00080B584B000AF78600123FB7307F10D0396
:1020C0001A4600217868FFF789FE03461A46FB7B13
:1020D0001340002B14BF01230023FB737B7B03F011
:1020E0008003002B14BF01230023BB737B7B03F011
:1020F0007F03DBB27B737B7B23F01003DBB27B734C
:102100007B7B1A4600217868FFF714FE03461A46C7
:10211000FB7B1340002B14BF01230023FB73BB7B0D
:10212000002B16D0012006F0D9F87B7B63F07F03EB
:10213000DBB27B737B7B1A4600217868FFF7FAFDE0
:1021400003461A46FB7B1340002B14BF01230023D8
:10215000FB73FB7B18461037BD4680BD80B586B04B
:1021600000AFF86087ED020AD7ED027AB3EE087A85
:10217000F4EEC77AF1EE10FA06DA3C4B3C4A40F234
:1021800001113C480CF096FFD7ED027A9FED3A7AA8
:10219000F4EEC77AF1EE10FA06D9384B344A4FF410
:1021A000817134480CF086FF0123FB75D7ED027A6C
:1021B0009FED337A67EE877A9FED327AC7EE276A12
:1021C000B0EE660A0FF06CFBF0EE407AFCEEE77AB8
:1021D000C7ED017A3B79DBB2013BBB7507F1150313
:1021E0001946F868FFF70AFF03461A46FB7D1340BD
:1021F000002B14BF01230023FB757B7D83F00103BB
:10220000DBB2002B0BD0F868FFF71EFF03461A461F
:10221000FB7D1340002B14BF01230023FB75BB7D06
:102220001A46FE21F868FFF785FD03461A46FB7D36
:102230001340002B14BF01230023FB757B7D83F02B
:102240000103DBB2002B0BD0F868FFF731FF034628
:102250001A46FB7D1340002B14BF01230023FB759E
:10226000FB7D18461837BD4680BD00BFC419010864
:10227000841C01082C19010800C0BE44D4190108AF
:102280000000804520BCBE4B80B586B000AFF86032
:10229000B9607A603B60BB680F2B06D91D4B1E4AA4
:1022A00040F21F111D480CF005FF7B68B3F5805FFD
:1022B00006D91B4B184A4FF4917118480CF0FAFEDE
:1022C0003B68B3F5805F06D9164B134A40F22511DF
:1022D00012480CF0EFFE7B68DBB23B757B681B0A93
:1022E000DBB27B753B68DBB2BB753B681B0ADBB2BC
:1022F000FB75BB68DBB29B00DBB20633D9B207F1DA
:1023000014020423F868FFF736FD03461846183711
:10231000BD4680BDE8190108A01C01082C19010860
:10232000F8190108081A010880B588B000AFF860F4
:10233000B96087ED010A1346FB70D7ED017AF5EE1F
:10234000C07AF1EE10FA06DA3D4B3E4A40F22D110A
:102350003D480CF0AFFED7ED017AB7EE007AF4EE0F
:10236000C77AF1EE10FA06D9384B364A4FF4977116
:1023700035480CF09FFED7ED017AF5EE407AF1EE8C
:1023800010FA08D14FF480530022B968F868FFF7BB
:102390007BFF034650E0D7ED017AB7EE007AF4EE0A
:1023A000477AF1EE10FA08D100234FF48052B96851
:1023B000F868FFF769FF03463EE0FB78002B14D076
:1023C000D7ED017A9FED227A67EE877AB0EE670A41
:1023D0000FF066FAF0EE407AFCEEE77A17EE902AFC
:1023E0001C4B33F81230FB6110E0D7ED017A9FED02
:1023F0001A7A67EE877AB0EE670A0FF051FAF0EEBC
:10240000407AFCEEE77A17EE903AFB61BB68002B4E
:1024100003D0BB681B02013B00E00023BB61BA692B
:10242000FB691344C3F30B037B617B69BA69B96829
:10243000F868FFF729FF034618462037BD4680BDE0
:102440001C1A0108C01C01082C190108301A0108C7
:1024500000007F43741A010800F07F4590B587B0F3
:1024600000AF0446084611461A462346FB71034650
:10247000BB710B46BB801346FB70FB791F2B00F230
:10248000E38001A252F823F0092500081325000873
:102490001D25000827250008312500083B250008D8
:1024A000452500084F250008592500086325000828
:1024B0006D25000877250008812500088B25000878
:1024C000952500089F250008A9250008B3250008C8
:1024D000BD250008C7250008D1250008DB25000818
:1024E000E5250008EF250008F92500080326000867
:1024F0000D26000817260008212600082B260008B4
:10250000352600083F2600080023FB75974BFB602B
:102510009BE00123FB75954BFB6096E00223FB7566
:10252000924BFB6091E00323FB75904BFB608CE0CA
:102530000423FB758D4BFB6087E00523FB758B4BFC
:10254000FB6082E00623FB75884BFB607DE0072380
:10255000FB75864BFB6078E00823FB75834BFB60C3
:1025600073E00923FB75814BFB606EE00A23FB756A
:102570007E4BFB6069E00B23FB757C4BFB6064E0EA
:102580000C23FB75794BFB605FE00D23FB75774BEC
:10259000FB605AE00E23FB75744BFB6055E00F2384
:1025A000FB75724BFB6050E01023FB75704BFB60BA
:1025B0004BE01123FB756E4BFB6046E01223FB756D
:1025C0006B4BFB6041E01323FB75694BFB603CE008
:1025D0001423FB75664BFB6037E01523FB75644BDA
:1025E000FB6032E01623FB75614BFB602DE0172387
:1025F000FB755F4BFB6028E01823FB755C4BFB60B1
:1026000023E01923FB755A4BFB601EE01A23FB7570
:10261000574BFB6019E01B23FB75554BFB6014E027
:102620001C23FB75524BFB600FE01D23FB75504BC9
:10263000FB600AE01E23FB754D4BFB6005E01F238A
:10264000FB754B4BFB6000E000BFBB79012B0AD14F
:10265000FB7D484A42331B01134401221A704FF09C
:102660007E533B6173E0BB79022B0AD1FB7D414A6B
:1026700042331B01134402221A704FF000033B61E6
:1026800065E0FB7D3B4A42331B01134403221A7071
:10269000FB7D384A1B01134403F22E4397F8282090
:1026A0001A70FB7D334A42331B0113440433FA781A
:1026B0001A7097F8283097F828202F4931F812100F
:1026C0002C4A03F5457322F81310FB7D294A423347
:1026D0001B0113440233BA881A8097F82830254A20
:1026E000134493F8303607EE903AF8EE677AC7ED68
:1026F000047AFB7D1F4A42331B01134404331B78C9
:10270000002B24D0FB7D1B4A42331B0113440633AC
:102710001B88002B11D0FB7D164903F142021201E8
:102720000A4406321288013A91B2124A42331B011E
:10273000134406330A461A8009E04FF000033B6158
:10274000FB7D0C4A42331B01134402221A70FB7DAD
:1027500003F00F03002297ED040A1946F868FFF70B
:10276000E3FD00BF1C37BD4690BD00BF50050120F2
:1027700058050120D40501206C1A010890B587B0D6
:1027800000AF0446084611461A462346FB7103462D
:10279000BB710B46BB801346FB70FB791F2B00F20D
:1027A000E38001A252F823F029280008332800080A
:1027B0003D28000847280008512800085B28000829
:1027C000652800086F280008792800088328000879
:1027D0008D28000897280008A1280008AB280008C9
:1027E000B5280008BF280008C9280008D328000819
:1027F000DD280008E7280008F1280008FB28000869
:10280000052900080F2900081929000823290008B4
:102810002D29000837290008412900084B29000804
:10282000552900085F2900080023FB758D4BFB60CC
:102830009BE00123FB758B4BFB6096E00223FB754D
:10284000884BFB6091E00323FB75864BFB608CE0BB
:102850000423FB75834BFB6087E00523FB75814BED
:10286000FB6082E00623FB757E4BFB607DE0072367
:10287000FB757C4BFB6078E00823FB75794BFB60B4
:1028800073E00923FB75774BFB606EE00A23FB7551
:10289000744BFB6069E00B23FB75724BFB6064E0DB
:1028A0000C23FB756F4BFB605FE00D23FB756D4BDD
:1028B000FB605AE00E23FB756A4BFB6055E00F236B
:1028C000FB75684BFB6050E01023FB75664BFB60AB
:1028D0004BE01123FB75644BFB6046E01223FB7554
:1028E000614BFB6041E01323FB755F4BFB603CE0F9
:1028F0001423FB755C4BFB6037E01523FB755A4BCB
:10290000FB6032E01623FB75574BFB602DE017236D
:10291000FB75554BFB6028E01823FB75524BFB60A1
:1029200023E01923FB75504BFB601EE01A23FB7557
:102930004D4BFB6019E01B23FB754B4BFB6014E018
:102940001C23FB75484BFB600FE01D23FB75464BBA
:10295000FB600AE01E23FB75434BFB6005E01F2371
:10296000FB75414BFB6000E000BF97F82C30022B59
:1029700073D1BB79012B0DD14FF07E533B61FB7DB1
:1029800003F00F03002297ED040A1946F868FFF7D9
:10299000CBFC62E0BB79022B23D1FB7D142B02D050
:1029A000FB7D152B0FD1314B03F5C8631B683B61D1
:1029B000FB7D03F00F03012297ED040A1946F86826
:1029C000FFF7B2FC49E04FF000033B61FB7D03F0F1
:1029D0000F03002297ED040A1946F868FFF7A4FCDC
:1029E0003BE097F82830214A134493F8303607EE3D
:1029F000903AF8EE677AC7ED047AFB7D1B4A023302
:102A00001B01134404331B78002B1CD0FB7D174A99
:102A100002331B01134406331B88002B10D0FB7DAF
:102A200012499A1C12010A4406321288013A91B2E4
:102A30000E4A02331B01134406330A461A8002E091
:102A40004FF000033B61FB7D03F00F03002297ED85
:102A5000040A1946F868FFF767FC00BF1C37BD463B
:102A600090BD00BF6005012068050120D40501204C
:102A700080B483B000AF0023FB711EE0FB79FA79CC
:102A8000564931F81210564A03F5457322F81310CF
:102A9000FB79534A1344002283F83026FB79FA79F4
:102AA0004F4902F5457231F812104D4A03F544734F
:102AB00022F81310FB790133FB71FB79032BDDD96D
:102AC0000023FB7173E0FB79454A42331B01134439
:102AD00002221A70FB79424A42331B01134402332B
:102AE00005221A80FB793E4A42331B01134404330A
:102AF00000221A70FB79FA793949423212010A44EC
:102B00000432127891B2FA79354842321201024405
:102B10000232128811FB02F291B2314A42331B0198
:102B2000134406330A461A80FB792D4A1B011344CD
:102B300003F22E4302221A70FB79294A02331B0149
:102B4000134402221A70FB79254A02331B011344F5
:102B5000023305221A80FB79214A02331B011344F8
:102B6000043300221A70FB79FA791D4902321201EE
:102B70000A440432127891B2FA79194802321201E9
:102B800002440232128811FB02F291B2144A02335B
:102B90001B01134406330A461A80FB79104A1B01B5
:102BA00013442E3302221A70FB790133FB71FB7937
:102BB0001F2B88D90A4B03F5C8634FF000021A6037
:102BC000074B012283F84426054B0022A3F83C263C
:102BD00000BF0C37BD465DF8047B70476C1A0108D6
:102BE000D405012090B587B002AF044608461146CF
:102BF0001A462346FB710346BB710B467B71134695
:102C00003B710123FB730523BB813B79032B04D864
:102C10003B79C64A32F81330BB81FB79113B712BEB
:102C200001F20A8201A252F823F000BFF52D00083C
:102C3000332E0008712E0008AF2E0008ED2E00087C
:102C4000352F0008732F0008B12F00082530000829
:102C5000993000080D31000839400008394000085B
:102C60003940000839400008394000088131000827
:102C7000BF310008013200083F3200087D320008F1
:102C8000BB320008F932000837330008AB330008C4
:102C90001F34000899340008394000083940000802
:102CA0003940000839400008394000080D35000857
:102CB0004B35000889350008C73500083B36000849
:102CC000AF360008293700089D3700081138000882
:102CD00083380008BF380008FB3800083940000876
:102CE00039400008FD3F0008394000083739000826
:102CF000AD3900081F3A0008913A0008033B00086C
:102D0000753B0008E73B00083940000839400008DF
:102D100039400008394000083940000839400008AF
:102D2000394000083940000839400008394000089F
:102D300039400008394000084D3D0008BF3D0008FB
:102D4000313E0008A33E0008193F00088B3F0008F1
:102D5000394000083940000839400008394000086F
:102D6000394000083940000839400008394000085F
:102D7000394000083940000839400008394000084F
:102D8000394000083940000839400008394000083F
:102D9000394000083940000839400008394000082F
:102DA0003940000839400008394000085D3C0008FF
:102DB000993C0008394000083940000839400008B3
:102DC00039400008394000083940000839400008FF
:102DD00039400008394000083940000839400008EF
:102DE000394000083940000839400008D53C000847
:102DF000113D00080023FB72FB7A7A7992B2B989FF
:102E000011FB02F291B24A4A42331B0113440633CA
:102E10000A461A807879BA89B979012301933B79F6
:102E2000009303460020FFF719FB0123FB7301F019
:102E300004B90223FB72FB7A7A7992B2B98911FB49
:102E400002F291B23A4A42331B01134406330A4656
:102E50001A807879BA89B979012301933B79009373
:102E600003460220FFF7FAFA0123FB7301F0E5B8ED
:102E70000423FB72FB7A7A7992B2B98911FB02F2D0
:102E800091B22B4A42331B01134406330A461A807F
:102E90007879BA89B979012301933B790093034684
:102EA0000420FFF7DBFA0123FB7301F0C6B8062309
:102EB000FB72FB7A7A7992B2B98911FB02F291B274
:102EC0001B4A42331B01134406330A461A807879A1
:102ED000BA89B979012301933B790093034606200F
:102EE000FFF7BCFA0123FB7301F0A7B80823FB72BC
:102EF000FB7A7A7992B2B98911FB02F291B20C4A4B
:102F000042331B01134406330A461A807879BA8982
:102F1000B979012301933B79009303460820FFF719
:102F20009DFA0123FB7301F088B800BF6C1A0108F9
:102F3000D40501200A23FB72FB7A7A7992B2B9890F
:102F400011FB02F291B2AD4A42331B011344063326
:102F50000A461A807879BA89B979012301933B79B5
:102F6000009303460A20FFF779FA0123FB7301F06F
:102F700064B80C23FB72FB7A7A7992B2B98911FB9F
:102F800002F291B29D4A42331B01134406330A46B2
:102F90001A807879BA89B979012301933B79009332
:102FA00003460C20FFF75AFA0123FB7301F045B8E2
:102FB0000C23FB72FB7A7A7992B2B98911FB02F287
:102FC00091B28E4A42331B01134406330A461A80DB
:102FD0007879BA89B979012301933B790093034643
:102FE0000C20FFF73BFA0E23FB72FB7A7A7992B240
:102FF000B98911FB02F291B2804A42331B0113449A
:1030000006330A461A807879BA89B979012301937F
:103010003B79009303460E20FFF720FA0123FB7350
:1030200001F00BB80C23FB72FB7A7A7992B2B98962
:1030300011FB02F291B2714A42331B011344063371
:103040000A461A807879BA89B979012301933B79C4
:10305000009303460C20FFF701FA0F23FB72FB7A63
:103060007A7992B2B98911FB02F291B2634A423382
:103070001B01134406330A461A807879BA89B97954
:10308000012301933B79009303460F20FFF7E6F9F4
:103090000123FB7300F0D1BF0823FB72FB7A7A791E
:1030A00092B2B98911FB02F291B2544A42331B0128
:1030B000134406330A461A807879BA89B97901230C
:1030C00001933B79009303460820FFF7C7F90E23CD
:1030D000FB72FB7A7A7992B2B98911FB02F291B252
:1030E000464A42331B01134406330A461A80787954
:1030F000BA89B979012301933B79009303460E20E5
:10310000FFF7ACF90123FB7300F097BF0823FB72B4
:10311000FB7A7A7992B2B98911FB02F291B2374AFD
:1031200042331B01134406330A461A807879BA8960
:10313000B979012301933B79009303460820FFF7F7
:103140008DF90F23FB72FB7A7A7992B2B98911FB60
:1031500002F291B2294A42331B01134406330A4654
:103160001A807879BA89B979012301933B79009360
:1031700003460F20FFF772F90123FB7300F05DBFD8
:103180000123FB72FB7A7A7992B2B98911FB02F2C0
:1031900091B21A4A42331B01134406330A461A807D
:1031A0007879BA89B979012301933B790093034671
:1031B0000120FFF753F90123FB7300F03EBF032307
:1031C000FB72FB7A7A7992B2B98911FB02F291B261
:1031D0000A4A42331B01134406330A461A8078799F
:1031E000BA89B979012301933B79009303460320FF
:1031F000FFF734F90123FB7300F01FBFD405012052
:103200000523FB72FB7A7A7992B2B98911FB02F23B
:1032100091B2A04A42331B01134406330A461A8076
:103220007879BA89B979012301933B7900930346F0
:103230000520FFF713F90123FB7300F0FEBE0723FF
:10324000FB72FB7A7A7992B2B98911FB02F291B2E0
:10325000904A42331B01134406330A461A80787998
:10326000BA89B979012301933B790093034607207A
:10327000FFF7F4F80123FB7300F0DFBE0923FB72B4
:10328000FB7A7A7992B2B98911FB02F291B2814A42
:1032900042331B01134406330A461A807879BA89EF
:1032A000B979012301933B79009303460920FFF785
:1032B000D5F80123FB7300F0C0BE0B23FB72FB7A31
:1032C0007A7992B2B98911FB02F291B2714A423312
:1032D0001B01134406330A461A807879BA89B979F2
:1032E000012301933B79009303460B20FFF7B6F8C7
:1032F0000123FB7300F0A1BE0D23FB72FB7A7A79E8
:1033000092B2B98911FB02F291B2624A42331B01B7
:10331000134406330A461A807879BA89B9790123A9
:1033200001933B79009303460D20FFF797F80123A3
:10333000FB7300F082BE0D23FB72FB7A7A7992B2A6
:10334000B98911FB02F291B2524A42331B01134474
:1033500006330A461A807879BA89B979012301932C
:103360003B79009303460D20FFF778F80E23FB729C
:10337000FB7A7A7992B2B98911FB02F291B2454A8D
:1033800042331B01134406330A461A807879BA89FE
:10339000B979012301933B79009303460E20FFF78F
:1033A0005DF80123FB7300F048BE0D23FB72FB7A2E
:1033B0007A7992B2B98911FB02F291B2354A42335D
:1033C0001B01134406330A461A807879BA89B97901
:1033D000012301933B79009303460D20FFF73EF84C
:1033E0000F23FB72FB7A7A7992B2B98911FB02F250
:1033F00091B2284A42331B01134406330A461A800D
:103400007879BA89B979012301933B79009303460E
:103410000F20FFF723F80123FB7300F00EBE0923F2
:10342000FB72FB7A7A7992B2B98911FB02F291B2FE
:10343000184A42331B01134406330A461A8078792E
:10344000BA89B979012301933B7900930346092096
:10345000FFF704F80E23FB72FB7A7A7992B2B989EE
:1034600011FB02F291B20B4A42331B0113440633A3
:103470000A461A807879BA89B979012301933B7990
:10348000009303460E20FEF7E9FF0123FB7300F0D3
:10349000D4BD00BFD40501200923FB72FB7A7A79E1
:1034A00092B2B98911FB02F291B29E4A42331B01DA
:1034B000134406330A461A807879BA89B979012308
:1034C00001933B79009303460920FEF7C7FF0F23C2
:1034D000FB72FB7A7A7992B2B98911FB02F291B24E
:1034E000904A42331B01134406330A461A80787906
:1034F000BA89B979012301933B79009303460F20E0
:10350000FEF7ACFF0123FB7300F097BD1623FB729F
:10351000FB7A7A7992B2B98911FB02F291B2814AAF
:1035200042331B01134406330A461A807879BA895C
:10353000B979012301933B79009303461620FEF7E6
:103540008DFF0123FB7300F078BD1823FB72FB7A1B
:103550007A7992B2B98911FB02F291B2714A42337F
:103560001B01134406330A461A807879BA89B9795F
:10357000012301933B79009303461820FEF76EFF69
:103580000123FB7300F059BD1323FB72FB7A7A7998
:1035900092B2B98911FB02F291B2624A42331B0125
:1035A000134406330A461A807879BA89B979012317
:1035B00001933B79009303461320FEF74FFF01234D
:1035C000FB7300F03ABD1823FB72FB7A7A7992B252
:1035D000B98911FB02F291B2524A42331B011344E2
:1035E00006330A461A807879BA89B979012301939A
:1035F0003B79009303461820FEF730FF1723FB7238
:10360000FB7A7A7992B2B98911FB02F291B2454AFA
:1036100042331B01134406330A461A807879BA896B
:10362000B979012301933B79009303461720FEF7F4
:1036300015FF0123FB7300F000BD1823FB72FB7A1A
:103640007A7992B2B98911FB02F291B2354A4233CA
:103650001B01134406330A461A807879BA89B9796E
:10366000012301933B79009303461820FEF7F6FEF1
:103670001923FB72FB7A7A7992B2B98911FB02F2B3
:1036800091B2284A42331B01134406330A461A807A
:103690007879BA89B979012301933B79009303467C
:1036A0001920FEF7DBFE0123FB7300F0C6BC1823D4
:1036B000FB72FB7A7A7992B2B98911FB02F291B26C
:1036C000184A42331B01134406330A461A8078799C
:1036D000BA89B979012301933B79009303461820F5
:1036E000FEF7BCFE1B23FB72FB7A7A7992B2B98992
:1036F00011FB02F291B20B4A42331B011344063311
:103700000A461A807879BA89B979012301933B79FD
:10371000009303461B20FEF7A1FE0123FB7300F07C
:103720008CBC00BFD40501201623FB72FB7A7A798A
:1037300092B2B98911FB02F291B29B4A42331B014A
:10374000134406330A461A807879BA89B979012375
:1037500001933B79009303461620FEF77FFE172363
:10376000FB72FB7A7A7992B2B98911FB02F291B2BB
:103770008D4A42331B01134406330A461A80787976
:10378000BA89B979012301933B7900930346172045
:10379000FEF764FE0123FB7300F04FBC1623FB729F
:1037A000FB7A7A7992B2B98911FB02F291B27E4A20
:1037B00042331B01134406330A461A807879BA89CA
:1037C000B979012301933B79009303461620FEF754
:1037D00045FE1923FB72FB7A7A7992B2B98911FB03
:1037E00002F291B2704A42331B01134406330A4677
:1037F0001A807879BA89B979012301933B790093CA
:1038000003461920FEF72AFE0123FB7300F015BCC6
:103810001623FB72FB7A7A7992B2B98911FB02F214
:1038200091B2614A42331B01134406330A461A809F
:103830007879BA89B979012301933B7900930346DA
:103840001620FEF70BFE1B23FB72FB7A7A7992B2ED
:10385000B98911FB02F291B2534A42331B0113445E
:1038600006330A461A807879BA89B9790123019317
:103870003B79009303461B20FEF7F0FD0123FB7309
:10388000DBE31023FB72FB7A7A7992B2B98911FBE0
:1038900002F291B2444A42331B01134406330A46F2
:1038A0001A807879BA89B979012301933B79009319
:1038B00003461020FEF7D2FD0123FB73BDE3112365
:1038C000FB72FB7A7A7992B2B98911FB02F291B25A
:1038D000354A42331B01134406330A461A8078796D
:1038E000BA89B979012301933B79009303461120EA
:1038F000FEF7B4FD0123FB739FE31223FB72FB7AF7
:103900007A7992B2B98911FB02F291B2264A423316
:103910001B01134406330A461A807879BA89B979AB
:10392000012301933B79009303461220FEF796FD95
:103930000123FB7381E31823FB72FB7A7A7992B23D
:10394000B98911FB02F291B2174A42331B011344A9
:1039500006330A461A807879BA89B9790123019326
:103960003B79009303461820FEF778FD0023FB7295
:10397000FB7A7A7992B2B98911FB02F291B20A4AC2
:1039800042331B01134406330A461A807879BA89F8
:10399000B979012301933B79009303460020FEF798
:1039A0005DFD0123FB7348E3D40501201823FB725E
:1039B000FB7A7A7992B2B98911FB02F291B2A64AE6
:1039C00042331B01134406330A461A807879BA89B8
:1039D000B979012301933B79009303461820FEF740
:1039E0003DFD0223FB72FB7A7A7992B2B98911FB11
:1039F00002F291B2984A42331B01134406330A463D
:103A00001A807879BA89B979012301933B790093B7
:103A100003460220FEF722FD0123FB730DE318236A
:103A2000FB72FB7A7A7992B2B98911FB02F291B2F8
:103A3000894A42331B01134406330A461A807879B7
:103A4000BA89B979012301933B7900930346182081
:103A5000FEF704FD0423FB72FB7A7A7992B2B989EE
:103A600011FB02F291B27C4A42331B01134406332C
:103A70000A461A807879BA89B979012301933B798A
:103A8000009303460420FEF7E9FC0123FB73D4E214
:103A90001823FB72FB7A7A7992B2B98911FB02F290
:103AA00091B26D4A42331B01134406330A461A8011
:103AB0007879BA89B979012301933B790093034658
:103AC0001820FEF7CBFC0623FB72FB7A7A7992B2C0
:103AD000B98911FB02F291B25F4A42331B011344D0
:103AE00006330A461A807879BA89B9790123019395
:103AF0003B79009303460620FEF7B0FC0123FB73DD
:103B00009BE21823FB72FB7A7A7992B2B98911FB96
:103B100002F291B2504A42331B01134406330A4663
:103B20001A807879BA89B979012301933B79009396
:103B300003461820FEF792FC0823FB72FB7A7A7981
:103B400092B2B98911FB02F291B2434A42331B018E
:103B5000134406330A461A807879BA89B979012361
:103B600001933B79009303460820FEF777FC01237D
:103B7000FB7362E21823FB72FB7A7A7992B2B989FD
:103B800011FB02F291B2344A42331B011344063353
:103B90000A461A807879BA89B979012301933B7969
:103BA000009303461820FEF759FC0A23FB72FB7AA8
:103BB0007A7992B2B98911FB02F291B2264A423364
:103BC0001B01134406330A461A807879BA89B979F9
:103BD000012301933B79009303460A20FEF73EFC44
:103BE0000123FB7329E21823FB72FB7A7A7992B2E4
:103BF000B98911FB02F291B2174A42331B011344F7
:103C000006330A461A807879BA89B9790123019373
:103C10003B79009303461820FEF720FC0C23FB722F
:103C2000FB7A7A7992B2B98911FB02F291B20A4A0F
:103C300042331B01134406330A461A807879BA8945
:103C4000B979012301933B79009303460C20FEF7D9
:103C500005FC0123FB73F0E1D40501201C23FB725A
:103C6000FB7A7A7992B2B98911FB02F291B2A94A30
:103C700042331B01134406330A461A807879BA8905
:103C8000B979012301933B79009303461C20FEF789
:103C9000E5FB0123FB73D0E11D23FB72FB7A7A79EC
:103CA00092B2B98911FB02F291B29A4A42331B01D6
:103CB000134406330A461A807879BA89B979012300
:103CC00001933B79009303461D20FEF7C7FB0123B8
:103CD000FB73B2E11E23FB72FB7A7A7992B2B98947
:103CE00011FB02F291B28B4A42331B01134406339B
:103CF0000A461A807879BA89B979012301933B7908
:103D0000009303461E20FEF7A9FB0123FB7394E1F9
:103D10001F23FB72FB7A7A7992B2B98911FB02F206
:103D200091B27C4A42331B01134406330A461A807F
:103D30007879BA89B979012301933B7900930346D5
:103D40001F20FEF78BFB0123FB7376E11823FB7228
:103D5000FB7A7A7992B2B98911FB02F291B26D4A7B
:103D600042331B01134406330A461A807879BA8914
:103D7000B979012301933B79009303461820FEF79C
:103D80006DFB1723FB72FB7A7A7992B2B98911FB2A
:103D900002F291B25F4A42331B01134406330A46D2
:103DA0001A807879BA89B979012301933B79009314
:103DB00003461720FEF752FB0123FB733DE1182356
:103DC000FB72FB7A7A7992B2B98911FB02F291B255
:103DD000504A42331B01134406330A461A8078794D
:103DE000BA89B979012301933B79009303461820DE
:103DF000FEF734FB1923FB72FB7A7A7992B2B98908
:103E000011FB02F291B2434A42331B0113440633C1
:103E10000A461A807879BA89B979012301933B79E6
:103E2000009303461920FEF719FB0123FB7304E1FD
:103E30001823FB72FB7A7A7992B2B98911FB02F2EC
:103E400091B2344A42331B01134406330A461A80A6
:103E50007879BA89B979012301933B7900930346B4
:103E60001820FEF7FBFA1B23FB72FB7A7A7992B2D9
:103E7000B98911FB02F291B2264A42331B01134465
:103E800006330A461A807879BA89B97901230193F1
:103E90003B79009303461B20FEF7E0FA0123FB73F6
:103EA000CBE01623FB72FB7A7A7992B2B98911FBC7
:103EB00002F291B2174A42331B01134406330A46F9
:103EC0001A807879BA89B979012301933B790093F3
:103ED00003461620FEF7C2FA1723FB72FB7A7A79A3
:103EE00092B2B98911FB02F291B20A4A42331B0124
:103EF000134406330A461A807879BA89B9790123BE
:103F000001933B79009303461720FEF7A7FA01239C
:103F1000FB7392E0D40501201623FB72FB7A7A79B9
:103F200092B2B98911FB02F291B2464A42331B01A7
:103F3000134406330A461A807879BA89B97901237D
:103F400001933B79009303461620FEF787FA192365
:103F5000FB72FB7A7A7992B2B98911FB02F291B2C3
:103F6000384A42331B01134406330A461A807879D3
:103F7000BA89B979012301933B790093034619204B
:103F8000FEF76CFA0123FB7357E01623FB72FB7AF2
:103F90007A7992B2B98911FB02F291B2294A42337D
:103FA0001B01134406330A461A807879BA89B97915
:103FB000012301933B79009303461620FEF74EFA46
:103FC0001B23FB72FB7A7A7992B2B98911FB02F258
:103FD00091B21C4A42331B01134406330A461A802D
:103FE0007879BA89B979012301933B790093034623
:103FF0001B20FEF733FA0123FB731EE00223FB7242
:10400000FB7A7A7992B2B98911FB02F291B20D4A28
:1040100042331B01134406330A461A807879BA8961
:10402000B979012301933B79009303461A20FEF7E7
:1040300015FA0123FB7300E000BFFB7B1846143721
:10404000BD4690BDD405012090B482B000AF0446B7
:10405000084611461A462346FB710346BB710B46C0
:104060007B7113463B71BB79032B07D0FB79234A45
:1040700042331B011344BA791A703AE0FB791F4AA4
:1040800042331B01134403221A70FB793A7991B22F
:104090001A4A42331B01134402330A461A80FB7941
:1040A000164A42331B01134404337A791A70FB79A0
:1040B000FA791249423212010A440432127891B25A
:1040C000FA790E484232120102440232128811FB80
:1040D00002F291B2094A42331B01134406330A46E5
:1040E0001A80FB79054A1B01134403F22E43032275
:1040F0001A7000BF0837BD4690BC7047D405012038
:1041000080B584B000AF3871084611461A460346A0
:10411000FB710B46BB7113467B710023FB73FB796C
:10412000032B40F0D981A74A3B7953763B7903F0C2
:104130000103DBB2002B0CD07B79BA79F97900202E
:10414000FFF782FF7B79BA79F9790120FFF77CFFCD
:104150001FE09C4B1B7E03F00103DBB2002B0CD154
:104160007B79BA7902210020FFF76EFF7B79BA795B
:1041700002210120FFF768FF0BE07B79BA7901216A
:104180000020FFF761FF7B79BA7901210120FFF759
:104190005BFF3B7903F00203DBB2002B0CD07B7991
:1041A000BA79F9790220FFF74FFF7B79BA79F9796B
:1041B0000320FFF749FF1FE0824B1B7E03F0020341
:1041C000DBB2002B0CD17B79BA7902210220FFF7F8
:1041D0003BFF7B79BA7902210320FFF735FF0BE023
:1041E0007B79BA7901210220FFF72EFF7B79BA791A
:1041F00001210320FFF728FF3B7903F00403DBB222
:10420000002B0CD07B79BA79F9790420FFF71CFFD9
:104210007B79BA79F9790520FFF716FF1FE0694B22
:104220001B7E03F00403DBB2002B0CD17B79BA793F
:1042300002210420FFF708FF7B79BA7902210520CB
:10424000FFF702FF0BE07B79BA7901210420FFF729
:10425000FBFE7B79BA7901210520FFF7F5FE3B795A
:1042600003F00803DBB2002B0CD07B79BA79F97923
:104270000620FFF7E9FE7B79BA79F9790720FFF785
:10428000E3FE1FE04F4B1B7E03F00803DBB2002B65
:104290000CD17B79BA7902210620FFF7D5FE7B7914
:1042A000BA7902210720FFF7CFFE0BE07B79BA79BC
:1042B00001210620FFF7C8FE7B79BA79012107208A
:1042C000FFF7C2FE3B7903F01003DBB2002B0CD0EA
:1042D0007B79BA79F9790820FFF7B6FE7B79BA794C
:1042E000F9790920FFF7B0FE1FE0364B1B7E03F083
:1042F0001003DBB2002B0CD17B79BA7902210820A4
:10430000FFF7A2FE7B79BA7902210920FFF79CFE14
:104310000BE07B79BA7901210820FFF795FE7B79C4
:10432000BA7901210920FFF78FFE3B7903F02003C2
:10433000DBB2002B0CD07B79BA79F9790A20FFF730
:1043400083FE7B79BA79F9790B20FFF77DFE1FE0B8
:104350001C4B1B7E03F02003DBB2002B0CD17B79BE
:10436000BA7902210A20FFF76FFE7B79BA79022120
:104370000B20FFF769FE0BE07B79BA7901210A2057
:10438000FFF762FE7B79BA7901210B20FFF75CFE13
:104390003B7903F04003DBB2002B15D07B79BA796F
:1043A000F9790C20FFF750FE7B79BA79F9790D2065
:1043B000FFF74AFE7B79BA79F9790E20FFF744FEC0
:1043C0002EE000BFD4050120B14B1B7E03F040035B
:1043D000DBB2002B12D17B79BA7902210C20FFF7D6
:1043E00033FE7B79BA7902210D20FFF72DFE7B7910
:1043F000BA7902210E20FFF727FE11E07B79BA7906
:1044000001210C20FFF720FE7B79BA7901210D20D4
:10441000FFF71AFE7B79BA7901210E20FFF714FE0F
:104420003B7923F07F03DBB2002B12D07B79BA7982
:10443000F9790C20FFF708FE7B79BA79F9790D201C
:10444000FFF702FE7B79BA79F9790F20FFF7FCFDBF
:10445000B3E18F4B1B7E23F07F03DBB2002B21D116
:104460007B79BA7902210F20FFF7EEFD884B1B7E86
:1044700003F04003DBB2002B40F09F813B7903F057
:104480004003DBB2002B40F098817B79BA7902219E
:104490000C20FFF7D9FD7B79BA7902210D20FFF7B7
:1044A000D3FD8AE17B79BA7901210F20FFF7CCFD9A
:1044B0003B7903F04003DBB2002B40F07E817B7937
:1044C000BA7901210C20FFF7BFFD7B79BA79012170
:1044D0000D20FFF7B9FD70E16D4A3B7913766C4B07
:1044E0005B7E03F00103DBB2002B1ED13B7903F0AE
:1044F0000103DBB2002B0CD17B79BA7902210020B9
:10450000FFF7A2FD7B79BA7902210120FFF79CFD1C
:104510000BE07B79BA7901210020FFF795FD7B79CB
:10452000BA7901210120FFF78FFD594B5B7E03F023
:104530000203DBB2002B1ED13B7903F00203DBB296
:10454000002B0CD17B79BA7902210220FFF77CFD88
:104550007B79BA7902210320FFF776FD0BE07B79A6
:10456000BA7901210220FFF76FFD7B79BA79012129
:104570000320FFF769FD464B5B7E03F00403DBB2CB
:10458000002B1ED13B7903F00403DBB2002B0CD1CE
:104590007B79BA7902210420FFF756FD7B79BA793D
:1045A00002210520FFF750FD0BE07B79BA7901214C
:1045B0000420FFF749FD7B79BA7901210520FFF737
:1045C00043FD334B5B7E03F00803DBB2002B1ED1AF
:1045D0003B7903F00803DBB2002B0CD17B79BA796D
:1045E00002210620FFF730FD7B79BA7902210720EE
:1045F000FFF72AFD0BE07B79BA7901210620FFF74E
:1046000023FD7B79BA7901210720FFF71DFD204B9F
:104610005B7E03F01003DBB2002B1ED13B7903F06D
:104620001003DBB2002B0CD17B79BA790221082070
:10463000FFF70AFD7B79BA7902210920FFF704FD13
:104640000BE07B79BA7901210820FFF7FDFC7B792B
:10465000BA7901210920FFF7F7FC0D4B5B7E03F0CF
:104660002003DBB2002B21D13B7903F02003DBB226
:10467000002B0FD17B79BA7902210A20FFF7E4FCE5
:104680007B79BA7902210B20FFF7DEFC0EE000BF38
:10469000D40501207B79BA7901210A20FFF7D4FCE7
:1046A0007B79BA7901210B20FFF7CEFC464B5B7E6C
:1046B00003F04003DBB2002B38D13B7903F0400319
:1046C000DBB2002B19D17B79BA7902210E20FFF7DA
:1046D000BBFC3D4B5B7E23F07F03DBB2002B25D17F
:1046E0007B79BA7902210C20FFF7AEFC7B79BA798D
:1046F00002210D20FFF7A8FC18E07B79BA7901218F
:104700000E20FFF7A1FC304B5B7E23F07F03DBB272
:10471000002B0BD17B79BA7901210C20FFF794FC97
:104720007B79BA7901210D20FFF78EFC264B5B7E49
:1047300023F07F03DBB2002B3FD13B7923F07F03D3
:10474000DBB2002B20D17B79BA7902210F20FFF751
:104750007BFC1D4B1B7E03F04003DBB2002B2CD1F6
:10476000194B5B7E03F04003DBB2002B25D17B7934
:10477000BA7902210C20FFF767FC7B79BA79022114
:104780000D20FFF761FC18E07B79BA7901210F2039
:10479000FFF75AFC0C4B5B7E03F04003DBB2002BAF
:1047A0000BD17B79BA7901210C20FFF74DFC7B7985
:1047B000BA7901210D20FFF747FC0123FB73FB7B36
:1047C00018461037BD4680BDD405012080B485B0A1
:1047D00000AF0346FB710B46BB7113467B71284B40
:1047E0005B88012B02D12023BB7301E02023BB7324
:1047F0000023FB733AE0FB7B214A02331B01134485
:10480000FA791A70FB7B1E4A02331B0113440233F0
:1048100005221A80FB7B1A4A02331B01134404331E
:10482000BA791A70FB7BFA7B1549023212010A44ED
:104830000432127891B2FA7B11480232120102441A
:104840000232128811FB02F291B20D4A02331B01AF
:10485000134406330A461A80FB7B094A1B011344A2
:104860002E337A791A70FB7B0133FB73FA7BBB7BA7
:104870009A42C0D300BF1437BD465DF8047B704731
:10488000D405012080B584B002AF0346FB71FB79EB
:10489000022B40F085804E4BB3F83E36002B60D1A2
:1048A0004B4B0022A3F83E26494BB3F83C36002B75
:1048B00061D1474B93F84436012B24D1444B03F587
:1048C000C863D3ED007A9FED437AF4EEC77AF1EE38
:1048D00010FA0ED53E4B03F5C863D3ED007A9FED79
:1048E0003E7A77EE877A3A4B03F5C863C3ED007AD8
:1048F00032E0374B03F5C863384A1A60344B002264
:1049000083F8442628E0324B03F5C863D3ED007AE0
:104910009FED317AF4EEC77AF1EE10FA0EDD2C4BF2
:1049200003F5C863D3ED007A9FED2B7A77EEC77A53
:10493000274B03F5C863C3ED007A0DE0244B03F564
:10494000C8634FF000021A60214B012283F844260D
:104950001F4B0A22A3F83E261D4B0122A3F83C263A
:1049600009E01B4B03F5C8634FF000021A60184BB7
:10497000012283F84426022301930023009300239D
:10498000002202211420FDF7F9FE022301930023E7
:1049900000930023002202211520FDF7EFFE13E013
:1049A00002230193002300930023002201211420FD
:1049B000FDF7E4FE0223019300230093002300226D
:1049C00001211520FDF7DAFE00BF0837BD4680BD86
:1049D000D40501203D0A573F0AD7233D3D0A573FE2
:1049E000B0B586B002AF0346FB71FB79012B44D111
:1049F0000023FB733DE0FB7B142B14D0FB7B152BBA
:104A000011D0FB7B414A42331B0113441B78022B1C
:104A100009D0F87B02230193002300930023002296
:104A20000221FDF7ABFEFB7B384A42331B011344E6
:104A30001978FB7B354A42331B01134402331C882F
:104A4000FB7B324A42331B01134404331D78FB7B4A
:104A50002E4A1B01134403F22E431B78F87B0122DC
:104A6000019200932B462246FDF7F8FCFB7B0133B5
:104A7000FB73FB7B1F2BBED943E00023FB733DE0A0
:104A8000FB7B142B37D0FB7B152B34D0FB7B1F4AD1
:104A900042331B0113441B78022B0AD0F87B0223FC
:104AA000019300230093002300220221FDF766FEFC
:104AB00021E0FB7B154A02331B0113441978FB7B71
:104AC000124A02331B01134402331C88FB7B0F4A3A
:104AD00002331B01134404331D78FB7B0B4A1B017B
:104AE00013442E331B78F87B0222019200932B464D
:104AF0002246FDF743FEFB7B0133FB73FB7B1F2B41
:104B0000BED900BF1037BD46B0BD00BFD4050120DF
:104B100080B582B000AF224A214B1B6B43F4800367
:104B200013631F4B1B6B03F480037B607B681C4A81
:104B30001B4B1B6B43F400131363194B1B6B03F4E8
:104B400000133B603B68002200210C2003F02BFE89
:104B50000C2003F044FE002200210E2003F023FE6F
:104B60000E2003F03CFE00220021112003F01BFE6A
:104B7000112003F034FE002200213C2003F013FE3C
:104B80003C2003F02CFE00220021452003F00BFE08
:104B9000452003F024FE00BF0837BD4680BD00BF9E
:104BA0000038024080B487B000AF786039603B685D
:104BB0007B617B683B612023FB60BFF34F8F0BE081
:104BC0000C4A3B69C2F87032FB683A6913443B6196
:104BD0007A69FB68D31A7B617B69002BF0DCBFF339
:104BE0004F8FBFF36F8F00BF1C37BD465DF8047B4E
:104BF000704700BF00ED00E080B58AB000AF06232B
:104C00007B8406233B840023FB840023FB83002357
:104C1000BB834FF6FF73BB8400237B61AC4B1B88C7
:104C20007B84AC4B1B883B8400237B600423BB60EC
:104C30000123FB6002233B617B8C4EF6EE629342C4
:104C400061D04FF6FF72934203D0002B00F0088131
:104C5000ADE13B8C002B1BD19D4800F0C9F9034608
:104C6000002B40F0AE8107F114023B1D114618469F
:104C700004F088FB0346FB76FB7E002B02D0FB7E14
:104C80009BB2A6E14FF400319148FFF78BFF98E10A
:104C90003B8C4EF6EE6293422AD18D4800F0A8F983
:104CA0000346002B13D107F114023B1D1146184691
:104CB00004F068FB0346FB76FB7E002B02D0FB7EF4
:104CC0009BB286E14FF400318148FFF76BFF4FF054
:104CD00000024FF000037F49012004F0AFF90346C2
:104CE000FB76FB7E002B00F06C81FB7E9BB270E1BB
:104CF00000F00EFA0346FB76FB7E002B00F061818C
:104D0000FB7E9BB265E13B8C002B68D10023FB84CA
:104D100030E0714B1B889AB2FB8C704931F813302C
:104D20009A4201D1FB8CBB84FA8CB7F924309A42A9
:104D30001DD0FB8C694A32F813306949184600F0DF
:104D40007DF90346BB83BB8B012B10D0FB8C634AE0
:104D500032F81320624B1B881946104600F07AFA8D
:104D60000346FB83FB8B002B01D0FB8B31E1FB8CDB
:104D70000133FB84FB8C082BCBD94FF000024FF0A2
:104D800000035349012004F059F90346FB76FB7EEA
:104D9000002B02D0FB7E9BB21BE10523BB600123ED
:104DA000FB6002233B614B4800F022F90346002BD5
:104DB00040F0098107F114023B1D1146184604F02A
:104DC000E1FA0346FB76FB7E002B02D0FB7E9BB212
:104DD000FFE04FF400313F48FFF7E4FEF3E03B8C87
:104DE0004FF6FF72934230D10523BB600123FB6075
:104DF00002233B61374800F0FBF80346002B13D138
:104E000007F114023B1D1146184604F0BBFA034695
:104E1000FB76FB7E002B02D0FB7E9BB2D9E04FF4E9
:104E200000312C48FFF7BEFE4FF000024FF00003A8
:104E30002749012004F002F90346FB76FB7E002B94
:104E400000F0C180FB7E9BB2C3E000F061F9034635
:104E5000FB76FB7E002B00F0B680FB7E9BB2B8E0B9
:104E60003B8C002B0AD100F053F90346FB76FB7E06
:104E7000002B00F0AA80FB7E9BB2AAE03B8C4FF691
:104E8000FF72934221D10523BB600123FB60022303
:104E90003B61104800F0ACF80346002B40F09580D1
:104EA00007F114023B1D1146184604F06BFA034645
:104EB000FB76FB7E002B02D0FB7E9BB289E04FF499
:104EC00000310448FFF76EFE7FE00023FB843AE0E8
:104ED0000000020800000608060002082004012065
:104EE000460301203D4B1B889AB2FB8C3C4931F8AC
:104EF00013309A4201D1FB8CBB84FA8CB7F9243071
:104F00009A421DD0FB8C364A32F813303549184688
:104F100000F094F80346BB83BB8B012B10D0FB8CB5
:104F20002F4A32F813202F4B1B881946104600F0E9
:104F300091F90346FB83FB8B002B01D0FB8B48E0F0
:104F4000FB8C0133FB84FB8C082BCBD94FF0000288
:104F50004FF000032449012004F070F80346FB766B
:104F6000FB7E002B02D0FB7E9BB232E00423BB60B1
:104F70000123FB6002233B611C4800F039F8034623
:104F8000002B22D107F114023B1D1146184604F0F4
:104F9000F9F90346FB76FB7E002B02D0FB7E9BB229
:104FA00017E04FF400311148FFF7FCFD0DE000F071
:104FB000AFF80346FB76FB7E002B08D0FB7E9BB24E
:104FC00007E000BF04E000BF02E000BF00E000BF58
:104FD000002318462837BD4680BD00BF06000608DE
:104FE00020040120460301200000060800000208FA
:104FF00080B485B000AF78600123FB6045F2555363
:105000007B810DE07B681B887B817B894FF6FF727B
:10501000934202D00023FB6006E07B6804337B6090
:105020007B68054A9342EDD9FB689BB2184614375A
:10503000BD465DF8047B7047FFFF030880B586B06E
:1050400000AF03463960FB800023FB8145F25553D6
:10505000BB810123FB821B4B3B611A4BBB600020D1
:1050600000F0B2F80346FB81FB89AB2B01D1AB23E7
:1050700024E0FB8903F201435B04BB60FB8901333D
:105080005A04114B13443B6112E03B691B88BB81FE
:10509000BA89FB889A4208D13B69023B1B889AB2C5
:1050A0003B681A800023FB8207E03B69043B3B61BD
:1050B000BB689A1C3B699A42E7D3FB8A18461837AB
:1050C000BD4680BD00000208FEFF010880B584B027
:1050D00000AF03460A46FB801346BB800023FB81DA
:1050E000BA88FB881146184600F0B4F80346FB81E5
:1050F000FB89802B07D1BA88FB881146184600F03F
:1051000007F90346FB81FB8918461037BD4680BD71
:1051100080B586B000AF0023FB7500233B61002300
:105120003B6004237B600123BB600223FB602448B7
:10513000FFF75EFF0346002B12D107F110023B463A
:105140001146184604F01EF90346FB75FB7D002B43
:1051500001D0FB7D2FE04FF400311948FFF722FD0D
:105160004FF000024FF000031549012003F066FFE5
:105170000346FB75FB7D002B01D0FB7D1BE0052367
:105180007B601048FFF734FF0346002B12D107F174
:1051900010023B461146184604F0F4F80346FB752E
:1051A000FB7D002B01D0FB7D05E04FF4003105486D
:1051B000FFF7F8FC002318461837BD4680BD00BF36
:1051C000000002080000060880B485B000AF034666
:1051D000FB710623FB810623BB811C4B1B88FB81D3
:1051E0001B4B1B88BB81FB79002B1BD0012B25D1CE
:1051F000BB89002B08D1FB894EF6EE62934201D1A8
:1052000000231CE001231AE0FB89002B08D1BB8995
:105210004EF6EE62934201D1012310E000230EE02E
:10522000AB230CE0FB89002B01D1002307E0BB89F5
:10523000002B01D1012302E0AB2300E0002318463C
:105240001437BD465DF8047B704700BF00000208BC
:105250000000060890B587B000AF03460A46FB8001
:105260001346BB800023FB7400233B82254B7B61EC
:10527000254BFB600120FFF7A7FF03463B823B8ADB
:10528000AB2B01D1AB2338E03B8A03F201435B0433
:105290007B613B8A01335A041C4B1344FB6027E0BB
:1052A0007B691B68B3F1FF3F1FD1BB884FF000043F
:1052B0001A4623467969012003F0C0FE0346FB74B9
:1052C000FB7C002B02D0FB7C9BB216E07B69991C17
:1052D000FB884FF000041A462346012003F0AEFE7F
:1052E0000346FB74FB7C9BB207E07B6904337B6164
:1052F0007A69FB689A42D3D3802318461C37BD468F
:1053000090BD00BF0000020800000408FFFF010874
:1053100080B58CB000AF03460A46FB801346BB80C5
:10532000002387F823305A4BFB620023BB62002323
:10533000FB8400233B840023BB840023FB830023E6
:10534000BB830023BB610020FFF73EFF03463B8485
:105350003B8C012B06D14E4BFB624E4BBB620523AF
:10536000FB840BE03B8C002B06D14A4BFB62484B85
:10537000BB620423FB8401E0AB2384E04EF6EE62C3
:105380004FF00003F96A012003F058FE034687F846
:10539000233097F82330002B03D097F823309BB2AB
:1053A00071E0BA88FB8811461846FFF753FF0346A1
:1053B000FB83FB8B002B01D0FB8B64E00023BB84C1
:1053C00027E0BB8C344A32F81330FA889A421DD059
:1053D000BB8C314A32F8133030491846FFF72EFEA5
:1053E0000346BB83BB8B012B10D0BB8C2A4A32F8FF
:1053F00013202A4B1B8819461046FFF72BFF034644
:10540000FB83FB8B002B01D0FB8B3CE0BB8C01337F
:10541000BB84BB8C082BD4D90023BB60FB8CFB6006
:1054200001233B6102237B6107F1180207F10803A6
:105430001146184603F0A6FF034687F8233097F875
:105440002330002B03D097F823309BB21BE0BB6ABC
:105450004FF400311846FFF7A5FB4FF000024FF064
:105460000003F96A012003F0E9FD034687F82330C1
:1054700097F82330002B03D097F823309BB202E03B
:1054800097F823309BB218463037BD4680BD00BF29
:105490000000020800000608200401204603012045
:1054A00080B483B000AF0023FB71C4E0FB799BB2F2
:1054B00003F50053BB80BB88A3F50053082B00F213
:1054C000AC8001A252F823F0ED5400080355000807
:1054D000215500084355000863550008835500080E
:1054E000A3550008C7550008F9550008FB7957492E
:1054F000BA8821F81320FB79554A1E2122F813108F
:1055000096E0544B01225A80FB795049BA8821F821
:105510001320FB794F4A51884D4A22F8131087E037
:105520004C4B1522A3F84A26FB794849BA8821F842
:105530001320FB79474AB2F84A16454A22F813105D
:1055400076E0444B4FF6FF729A80FB793F49BA8868
:1055500021F81320FB793F4A91883D4A22F8131025
:1055600066E03C4B4FF6FF72DA80FB793749BA8828
:1055700021F81320FB79374AD188354A22F81310D5
:1055800056E0354B31221A70FB793049BA8821F840
:105590001320FB79304A127891B22D4A22F8131069
:1055A00046E02C4B012283F84C26FB792749BA8828
:1055B00021F81320FB79274A92F84C2691B2244A0D
:1055C00022F8131034E0234B4FF41652C3F8502640
:1055D000FB791E49BA8821F813201E4BD3F85036A8
:1055E0001E4AA2FB03235B093B60FB793A6891B238
:1055F000174A22F813101BE0164B7822A3F8362620
:10560000FB791249BA8821F81320FB79114AB2F8C4
:1056100036160F4A22F813100AE0FB790B49BA88B4
:1056200021F81320FB790A4A002122F8131000BF49
:10563000FB790133FB71FB79082B7FF637AF00BF95
:105640000C37BD465DF8047B704700BF2004012085
:10565000C0050120D4050120B00401201F85EB51B5
:1056600080B582B000AF0023FB7153E1FB799BB2A0
:1056700003F50053BB80FB79AA4A32F81300FB798B
:105680005B00A94A13441946FFF7D8FC03467B8008
:10569000BB88A3F50053082B00F2388101A252F811
:1056A00023F000BFC95600080957000847570008F3
:1056B00087570008C75700080758000847580008D0
:1056C00089580008D3580008FB799649BA8821F810
:1056D00013207B88012B0FD1FB79934A1E2122F8DE
:1056E0001310FB79904A32F81300FB798D4A32F897
:1056F0001330194600F020F9FB798B4A32F8133049
:105700001A468A4B1A6002E1FB798649BA8821F869
:1057100013207B88012B0FD1FB79834A012122F8CA
:105720001310FB79804A32F81300FB797D4A32F876
:105730001330194600F000F9FB797B4A32F8132048
:105740007B4B5A80E3E0FB797649BA8821F8132035
:105750007B88012B0FD1FB79734A152122F8131096
:10576000FB79714A32F81300FB796E4A32F8133034
:10577000194600F0E1F8FB796B4A32F813206C4BC4
:10578000A3F84A26C3E0FB796649BA8821F81320BA
:105790007B88012B10D1FB79634A4FF6FF7122F809
:1057A0001310FB79604A32F81300FB795D4A32F836
:1057B0001330194600F0C0F8FB795B4A32F8132029
:1057C0005B4B9A80A3E0FB795649BA8821F81320F5
:1057D0007B88012B10D1FB79534A4FF6FF7122F8D9
:1057E0001310FB79504A32F81300FB794D4A32F816
:1057F0001330194600F0A0F8FB794B4A32F8132019
:105800004B4BDA8083E0FB794649BA8821F81320B4
:105810007B88012B0FD1FB79434A312122F81310E9
:10582000FB79414A32F81300FB793E4A32F81330D3
:10583000194600F081F8FB793B4A32F81330DAB2AE
:105840003C4B1A7063E0FB793649BA8821F8132083
:105850007B88012B0FD1FB79334A012122F81310E9
:10586000FB79314A32F81300FB792E4A32F81330B3
:10587000194600F061F8FB792B4A32F81330DAB29E
:105880002B4B83F84C2642E0FB792649BA8821F855
:1058900013207B88012B0FD1FB79234A602122F84A
:1058A0001310FB79204A32F81300FB791D4A32F8B5
:1058B0001330194600F040F8FB791B4A32F81330D8
:1058C0001A46642303FB02F31A46194BC3F8502609
:1058D0001DE0FB791349BA8821F813207B88012B3E
:1058E0000FD1FB79104A782122F81310FB790E4A68
:1058F00032F81300FB790B4A32F81330194600F0E6
:105900001BF80B4B7822A3F8362600E000BFFB798A
:105910000133FB71FB79082B7FF6A8AE00BF083777
:10592000BD4680BD20040120C00501209C0C012043
:10593000D4050120B004012080B584B000AF034637
:105940000A46FB801346BB804FF6FF73BB81FA8883
:10595000BB8811461846FFF7B9FB0346FB81FB895C
:10596000002B01D08123FB8107F10C02BB8811467B
:105970001846FFF763FB0346FB81FB89002B01D030
:105980008223FB81BB89FA889A4201D08323FB8161
:10599000FB8918461037BD4680BD000080B58EB02B
:1059A00000AF07F1240300221A605A609A60DA609F
:1059B0001A61B24AB14B1B6B43F010031363AF4B38
:1059C0001B6B03F010033B623B6AAC4AAB4B1B6B97
:1059D00043F004031363A94B1B6B03F00403FB6147
:1059E000FB69A64AA54B1B6B43F020031363A34B33
:1059F0001B6B03F02003BB61BB69A04A9F4B1B6B71
:105A000043F0800313639D4B1B6B03F080037B61AA
:105A10007B699A4A994B1B6B43F001031363974BC5
:105A20001B6B03F001033B613B69944A934B1B6B77
:105A300043F002031363914B1B6B03F00203FB6003
:105A4000FB688E4A8D4B1B6B43F0400313638B4BFB
:105A50001B6B03F04003BB60BB68884A874B1B6B22
:105A600043F008031363854B1B6B03F008037B6053
:105A70007B68002244F20B51814803F01FFF002293
:105A80004FF400517F4803F019FF002220217E4887
:105A900003F014FF002202217C4803F00FFF0022D4
:105AA00040F201117A4803F009FF00224FF4C1517E
:105AB000784803F003FF00224FF42141764803F0B9
:105AC000FDFE44F20B537B620123BB620023FB62A9
:105AD00000233B6307F124031946694803F02CFDBA
:105AE0004FF400537B620123BB620023FB6200235F
:105AF0003B6307F124031946624803F01DFD4FF68E
:105B00005C437B620023BB620023FB6207F124033A
:105B100019465D4803F010FD20237B620123BB6220
:105B20000023FB6200233B6307F124031946564818
:105B300003F002FD36237B620023BB620023FB627D
:105B400007F1240319464F4803F0F6FCF1237B626A
:105B50000023BB620023FB6207F1240319464B4874
:105B600003F0EAFC02237B620123BB620023FB6299
:105B700000233B6307F124031946444803F0DCFC8F
:105B800040F201137B620123BB620023FB6200230E
:105B90003B6307F1240319463D4803F0CDFC042381
:105BA0007B620023BB620023FB6207F124031946DA
:105BB000374803F0C1FCFF237B620023BB62002354
:105BC000FB6207F124031946334803F0B5FC4FF498
:105BD00084537B620023BB620023FB6207F1240332
:105BE0001946274803F0A8FC4FF400437B622B4B77
:105BF000BB620023FB6207F124031946204803F02F
:105C00009BFC4FF447437B620023BB620023FB6293
:105C100007F1240319461F4803F08EFC4FF4C153CB
:105C20007B620123BB620023FB6200233B6307F11D
:105C300024031946174803F07FFC4FF421437B628D
:105C40000123BB620123FB6200233B6307F12403B2
:105C50001946114803F070FC4FF400737B620F4B40
:105C6000BB620023FB6207F124031946074803F0D7
:105C700063FC00BF3837BD4680BD00BF003802401E
:105C800000100240000802400014024000000240E0
:105C900000040240000C02400018024000001110F5
:105CA00080B500AF01224FF480711E4803F006FE5C
:105CB00001224FF400411C4803F000FE01220121A3
:105CC0001A4803F0FBFD01220221184803F0F6FDFB
:105CD00001224FF48071154803F0F0FD01220121EB
:105CE000104803F0EBFD01222021114803F0E6FDEE
:105CF000012220210F4803F0E1FD01224FF48061D1
:105D00000A4803F0DBFD0C4B1B6840F2DE32DA621E
:105D1000094B40F2E732DA60074B1B6800229A63B6
:105D200000BF80BD00040240001802400010024085
:105D300000140240000C0240EC10012080B586B037
:105D400000AF3B1D00221A605A609A60DA601A6147
:105D500000224FF428511A4803F0B0FD00222221FE
:105D6000184803F0ABFD4FF428537B600123BB6060
:105D70000023FB6000233B613B1D1946104803F0E4
:105D8000DBFB02237B600123BB600023FB6000235D
:105D90003B613B1D19460B4803F0CEFB20237B6083
:105DA0000123BB600023FB6000233B613B1D1946C0
:105DB000044803F0C1FB00BF1837BD4680BD00BFDB
:105DC000001002400004024080B500AF334B5B88F6
:105DD000012B51D9314B93F8463603F00103DBB266
:105DE000002B06D001224FF400512D4803F066FD30
:105DF00005E000224FF40051294803F05FFD274BD6
:105E000093F8463603F00203DBB2002B05D00122E3
:105E10000221244803F052FD04E00022022121481F
:105E200003F04CFD1D4B93F8463603F00403DBB240
:105E3000002B06D001224FF40071194803F03EFDFB
:105E400005E000224FF40071154803F037FD134BB5
:105E500093F8463603F00803DBB2002B06D001228C
:105E60004FF400610E4803F029FD05E000224FF4D5
:105E700000610B4803F022FD084BB3F83836002BC5
:105E800005D001222021074803F018FD04E000227C
:105E90002021044803F012FD00BF80BDD40501207D
:105EA000001002400004024080B500AF1B4B1C4AAA
:105EB0001A601A4B1B4A5A60184B00229A60174B03
:105EC0000122DA60154B00221A61144B00225A613C
:105ED000124B00229A61114B0022DA610F4B002213
:105EE0001A620E4804F004FF0346002B01D000F0B4
:105EF000B1FF0021094805F051FB0346002B01D0FA
:105F000000F0A8FF0021054805F093FB0346002B95
:105F100001D000F09FFF00BF80BD00BF940F0120A3
:105F2000005C00400D03006080B58EB000AF78606B
:105F300007F1240300221A605A609A60DA601A613D
:105F40007B681B68544A934228D1544A534B1B6BBD
:105F500043F002031363514B1B6B03F002033B62DC
:105F60003B6AC0237B621223BB620123FB620323D3
:105F70003B6304237B6307F124031946484803F07D
:105F8000DBFA464A454B1B6C43F400131364434B46
:105F90001B6C03F40013FB61FB6978E07B681B68F2
:105FA000404A934228D13D4A3C4B1B6B43F02003AF
:105FB00013633A4B1B6B03F02003BB61BB690323E4
:105FC0007B621223BB620123FB6203233B63042336
:105FD0007B6307F124031946334803F0ADFA2F4AD7
:105FE0002E4B1B6C43F4800313642C4B1B6C03F48B
:105FF00080037B617B694AE07B681B682B4A934284
:1060000045D1264A254B1B6B43F004031363234BF6
:106010001B6B03F004033B613B69204A1F4B1B6B66
:1060200043F0010313631D4B1B6B03F00103FB6083
:10603000FB684FF400737B621223BB620023FB6298
:1060400003233B6304237B6307F1240319461848A9
:1060500003F072FA4FF480737B621223BB62002359
:10606000FB6203233B6304237B6307F1240319468C
:10607000104803F061FA094A084B1B6C43F4000313
:106080001364064B1B6C03F40003BB60BB6800BFCA
:106090003837BD4680BD00BF005400400038024084
:1060A000000402400058004000140240005C004020
:1060B000000802400000024080B483B000AF00231B
:1060C000FB7116E0FB791A4A002122F81310FB79C4
:1060D000184A002122F81310FB79174A002122F8F0
:1060E0001310FB79154A002122F81310FB790133B4
:1060F000FB71FB791F2BE5D9114B00221A60114B64
:106100004FF480121A60104B00221A600F4B0022CD
:106110001A600F4B05221A600E4B0022DA600D4BFD
:1061200000229A6000BF0C37BD465DF8047B7047C3
:10613000E0030120B8040120FC040120380C0120F8
:10614000940C0120900C0120780501203C050120D1
:10615000F8040120D405012080B586B000AF0123EA
:106160003B613B69DB43FB600023FB75D6E0012309
:106170003B61FB7D3A6902FA03F33B613B69DB4318
:10618000FB60FB7D6F4A52F82330BB60FB7D6E4A9B
:1061900032F813301946B86803F078FB0346FB71F8
:1061A0006A4B5A693B6913403B603B68002B59D1ED
:1061B000FB79002B30D1664B1A683B691343644A64
:1061C0001360FB7D634A32F81320013291B2614AB9
:1061D00022F81310FB7D5F4A32F813301A465E4BEB
:1061E0001B689A4212D9FB7D5B4A126891B2594AE8
:1061F00022F81310594B1A683B691343574A13602E
:10620000574B1A683B691343554A1360FB7D554A47
:10621000002122F813107EE0FB7D4E4A002122F877
:1062200013104E4B1A68FB6813404C4A1360484BDE
:106230001A68FB681340464A1360FB7D494A32F8EE
:106240001320013291B2474A22F81310FB7D454AD0
:1062500032F81330052B5ED1FB7D424A052122F82E
:10626000131058E0FB79012B30D1394B1A683B6988
:106270001343374A1360FB7D364A32F8132001324C
:1062800091B2344A22F81310FB7D324A32F81330AF
:106290001A46314B1B689A4212D9FB7D2E4A12686E
:1062A00091B22C4A22F813102C4B1A683B69134305
:1062B0002A4A13602A4B1A683B691343284A136021
:1062C000FB7D284A002122F8131024E0FB7D214A9F
:1062D000002122F81310214B1A68FB6813401F4A53
:1062E00013601B4B1A68FB681340194A1360FB7D4F
:1062F0001C4A32F81320013291B21A4A22F81310C4
:10630000FB7D184A32F81330052B04D1FB7D154A6A
:10631000052122F81310FB7D0133FB75FB7D1F2B3C
:106320007FF625AF094B9B68084AD360074B1A6973
:106330000A4B1B681340054A936000BF1837BD46DF
:1063400080BD00BF0000012080000120D405012095
:10635000940C0120E0030120F8040120900C01209E
:10636000A80C0120380C012080B582B000AF0023BA
:10637000FB718A4B5B88012B40F0A880874B9B7A8E
:1063800003F01003DBB2002B08D0844B9B7B03F09F
:106390001003DBB2002B01D1012300E00023FB71CD
:1063A000FB79002B56D07D4B1B7F012B14BF0123A3
:1063B0000023DBB21A46794B1A77784B1B7F012BEF
:1063C00025D1764B012283F86025744B002283F897
:1063D0006425724B002283F86E25002200210120E3
:1063E000FEF7F4F96D4B03F5C8634FF000021A6035
:1063F0006A4B012283F84426684B0122A3F83C260D
:10640000664BB3F83626654BA3F8342622E0634B7F
:10641000022283F86025614B002283F864255F4BDC
:10642000002283F86E25002200210220FEF7CEF91B
:106430005A4B03F5C8634FF000021A60574B012214
:1064400083F84426554B0022A3F83C26534B0022E8
:10645000A3F83426514B1B7F012B09D14F4B9B7E58
:10646000002B05D04D4BB3F836264C4BA3F8342601
:106470004A4BB3F83436002B4CD1484B00221A77E4
:106480001423BB71BB79454A42331B0113440222DA
:106490001A70BB79414A42331B0113440433002272
:1064A0001A70BB793D4A1B01134403F22E430022AC
:1064B0001A70002200210220FEF788F9374B9B7EDC
:1064C0003F2B27D0354B00229A7623E0334B1B7F9E
:1064D000012B0CD1314B012283F860252F4B002278
:1064E00083F864252D4B002283F86E2512E02B4B98
:1064F000022283F86025294B002283F86425274B6C
:10650000002283F86E25254B9B7E612B02D0234B06
:1065100000229A76214B1B7F012B34D11F4BDB7A53
:1065200003F00403DBB2002B08D11C4BDB7B03F030
:106530000403DBB2002B01D0012300E00023FB7138
:10654000FB79002B26D0154BDB7E012B14BF0123DA
:106550000023DBB21A46114BDA76104BDB7E012B9F
:106560000CD10E4B012283F8C0250C4B002283F87E
:10657000C4250A4B002283F8CE250BE0074B0222EC
:1065800083F8C02506E0054B0022DA76034B022291
:1065900083F8C02500BF0837BD4680BDD405012063
:1065A00080B582B000AF0023FB71CB4B00225A773D
:1065B000C94B9B68B3F5801F00F0DC81B3F5801FE9
:1065C0007AD8B3F5805F00F00B81B3F5805F32D8E5
:1065D000202B00F01A81202B12D8042B00F0F18020
:1065E000042B06D8012B00F0E980022B00F0078174
:1065F000CAE1082B00F00681102B00F0E580C3E112
:10660000B3F5807F00F0E680B3F5807F06D8402B9D
:1066100000F0DD80802B00F0FB80B5E1B3F5806FEA
:1066200000F0DB80B3F5006F00F0F880B3F5007F79
:1066300000F0F180A8E1B3F5024F00F0FE80B3F561
:10664000024F1CD8B3F5844F00F0F480B3F5844FAB
:1066500008D8B3F5005F00F0E480B3F5824F00F096
:10666000C88091E1B3F5C04F00F0DE80B3F5014F73
:1066700000F0C280B3F5A04F00F0B58084E1B3F51F
:10668000803F00F01F81B3F5803F08D8B3F5104F6D
:1066900000F0AC80B3F5204F00F0C98074E1B3F591
:1066A000802F00F01581B3F5002F00F0CF80B3F5F7
:1066B000003F00F00A8167E1884A934200F035818B
:1066C000864A93423CD8864A934200F02281844A0B
:1066D000934218D8B3F1807F00F0B580B3F1807F8A
:1066E00008D8B3F5800F00F0AB80B3F5400F00F091
:1066F000CE8049E17B4A934240F208817A4A934234
:1067000000F0078140E1794A934200F00881774A1E
:10671000934208D8764A934200F0FE80754A93422D
:1067200000F0FA8030E1B3F1012F00F0FB80724AF3
:10673000934200F0F780714A934200F0F08023E129
:10674000B3F1806F00F01381B3F1806F1AD86C4AF7
:10675000934200F0ED806A4A934208D8694A934216
:1067600000F0E380684A934200F0E2800CE1B3F16C
:10677000107F00F09580B3F1407F74D0B3F1C07FFB
:1067800067D001E1B3F1805F00F0D580B3F1805FA5
:1067900007D8B3F1046F00F08C80B3F1106F6CD0A8
:1067A000F2E0B3F1804F00F0D480B3F1004F00F07D
:1067B000D780B3F1005F00F0C580E5E01123FB71E5
:1067C000F8E01223FB71F5E01323FB71F2E01423D0
:1067D000FB71EFE01523FB71ECE01623FB71E9E0A0
:1067E0001723FB71E6E01823FB71E3E01923FB712B
:1067F000E0E01A23FB71DDE01B23FB71DAE02123CB
:10680000FB71D7E02223FB71D4E02323FB71D1E09D
:106810002423FB71CEE02523FB71CBE02623FB7103
:10682000C8E02723FB71C5E02823FB71C2E02923C0
:10683000FB71BFE02A23FB71BCE02B23FB71B9E0A5
:106840003123FB71B6E03223FB71B3E03323FB71DC
:10685000B0E03423FB71204BDB7E012B40F09780AE
:106860005423FB7193E03523FB711B4BDB7E012B23
:1068700040F08F805523FB718BE03623FB71164B64
:10688000DB7E012B40F087805623FB7183E03723AA
:10689000FB71114BDB7E012B7FD15723FB717CE019
:1068A0003823FB710C4BDB7E012B78D15823FB7115
:1068B00075E03923FB71084BDB7E012B71D1592325
:1068C000FB716EE03A23FB7174E03B23FB7171E0D6
:1068D0003C23FB716EE000BFD405012000040001E1
:1068E0000800000102000001040000014000000156
:1068F00010000001200000010002000180000001E2
:106900000020000100080001001000014123FB717C
:1069100050E04223FB714DE04323FB714AE04423E6
:10692000FB7147E04523FB7144E04623FB7141E0E6
:106930004723FB713EE0244B5B88012B33D071234E
:10694000FB7130E0204B5B88012B2ED07223FB7152
:106950002BE01D4B5B88012B29D08123FB7126E0A6
:10696000194B5B88012B24D08223FB7121E03F234C
:10697000FB711FE0144B5B88012B02D13F23FB719D
:1069800018E06123FB7115E00023FB7112E000BFEA
:1069900010E000BF0EE000BF0CE000BF0AE000BF47
:1069A00008E000BF06E000BF04E000BF02E000BF57
:1069B00000E000BF044AFB799376FFF7D5FCFB7932
:1069C00018460837BD4680BDD405012080B500AF0C
:1069D0000B4B0C4A1A600A4B01225A60084B4FF4C9
:1069E000FA62DA60064B4FF4FA629A60044804F0E7
:1069F0006CFE0346002B01D000F02CFA00BF80BDD6
:106A0000781001200030004080B500AF01F008FC94
:106A100000F03AF9FEF7C2FFFEF77AF8FFF744FA02
:106A200000F090FC01F0A6F901F0D4F9FFF7CEFFD9
:106A300000F066FD00F09AFD00F0CEFD00F0F0FDE4
:106A400000F012FE00F034FE00F0E2FC00F0BEF9AF
:106A500001F090F97B4804F07EFEFCF709F87A48D3
:106A6000FBF7E8F90120FDF7BBFF0220FDF7B8FFB7
:106A7000FFF764F9FFF714F902F03CFB714804F0EA
:106A80006AFEFEF70DFDFEF7B7F80346002B01D0B6
:106A900000F0E0F96B4804F05EFEFEF7E1FDFFF761
:106AA0000BFB6A4B0022A3F83426684B00221A77AE
:106AB000664B0022DA76654B012283F84C26634B45
:106AC0005B88012B07D1614B614A1A615F4B4FF420
:106AD00080125A6107E05D4B6FF400121A615B4B44
:106AE0004FF480125A61594B022283F87025574B9C
:106AF000002283F84526554B0022A3F83E26514834
:106B000004F029FE00F0CAFF524800F071FE52481E
:106B100000F06EFE514B00221A70514B1E221A607B
:106B20004F4B40F215125A604D4B00229A601E22C4
:106B300000214C4809F08CF94B4B31221A7001F0BE
:106B400049F9404804F007FE474B1B781846FBF70D
:106B500033F8FAF78DFA00224FF48071434802F0BF
:106B6000ADFE00224FF40051404802F0A7FE002283
:106B70000021392001F017FE392001F030FE0022FB
:106B80000021452001F00FFE452001F028FE0022E3
:106B90000021472001F007FE472001F020FE344B82
:106BA00001221A70274804F0D6FD324B00221A80C9
:106BB000FAF79CFA2F4B1A882F4B1A80234B93F825
:106BC00070311846FDF75EFE2A4B1A882A4B5A8010
:106BD0002A4B1B78012B0ED1264B1A88264B9A8004
:106BE000FFF7BAFAFFF7DCFC224B1A88224BDA8057
:106BF000224B00221A70224B1B78012B1AD11D4BFD
:106C00001A881D4B1A811A4B1B78012B01D10222C5
:106C100000E00122164B1A70154B1B781846FDF741
:106C2000DFFE144B1A88144B5A81FFF7CDF8144B32
:106C300000221A70134B1B78012BB3D1114B002289
:106C40001A70AFE77810012050050120D40501200B
:106C5000FFFFDF0FEC120120EC110120A80401203E
:106C60009C0C0120441A0108B004012000180240C5
:106C7000EA0E0120B2040120D0030120350C0120CE
:106C800072050120AE05012080B5B4B000AF07F158
:106C9000A00330220021184608F079FA07F18C038E
:106CA00000221A605A609A60DA601A6107F10803DC
:106CB00084220021184608F06AFA04F05DFD404A7B
:106CC0003F4B1B6C43F0805313643D4B1B6C03F034
:106CD00080537B607B683B4A3A4B1B6843F44043DC
:106CE0001360384B1B6803F440433B603B68092347
:106CF000C7F8A0304FF48033C7F8A4300123C7F899
:106D0000B4300223C7F8B8304FF48003C7F8BC3062
:106D10000623C7F8C030D823C7F8C4300223C7F809
:106D2000C8300923C7F8CC3007F1A003184604F097
:106D300083FD0346002B01D000F08CF804F02CFDFD
:106D40000346002B01D000F085F80F23C7F88C30E4
:106D50000223C7F890300023C7F894304FF4A053B3
:106D6000C7F898304FF48053C7F89C3007F18C0374
:106D70000721184605F004F80346002B01D000F067
:106D800069F8114BBB6000233B6500237B65002342
:106D90003B660023FB6600233B6700237B670023E1
:106DA000C7F8843007F10803184605F0BFF9034619
:106DB000002B01D000F04EF800BFD037BD4680BD9B
:106DC000003802400070004080C9210080B500AF4B
:106DD00000220021102001F0E6FC102001F0FFFC51
:106DE00000220021392001F0DEFC392001F0F7FCFF
:106DF00000220021052001F0D6FC052001F0EFFC67
:106E000000220021472001F0CEFC472001F0E7FCE2
:106E100000220021272001F0C6FC272001F0DFFC22
:106E2000002200212C2001F0BEFC2C2001F0D7FC18
:106E3000002200212D2001F0B6FC2D2001F0CFFC16
:106E400000220021372001F0AEFC372001F0C7FC02
:106E500000BF80BD80B400AF00BFBD465DF8047BBD
:106E60007047000080B483B000AF0F4A0E4B1B6C1C
:106E700043F0805313640C4B1B6C03F080537B6016
:106E80007B68094A084B5B6C43F480435364064BB0
:106E90005B6C03F480433B603B6800BF0C37BD462E
:106EA0005DF8047B704700BF0038024080B400AF3B
:106EB00000BFBD465DF8047B704780B400AFFEE7BD
:106EC00080B400AFFEE780B400AFFEE780B400AF4F
:106ED000FEE780B400AF00BFBD465DF8047B70479D
:106EE00080B400AF00BFBD465DF8047B704780B43E
:106EF00000AF00BFBD465DF8047B704780B500AFB2
:106F000001F0CCF9094B1B68B3F1FF3F02D1074BED
:106F100000221A60054B1B680133044A1360044BBE
:106F20001B680133024A136000BF80BDAC0401201E
:106F3000300C012080B400AF00BFBD465DF8047B7B
:106F40007047000080B500AF024801F003FE00BFAB
:106F500080BD00BF2C14012080B500AF024801F0B5
:106F6000F9FD00BF80BD00BF0C15012080B500AF4A
:106F7000024801F0EFFD00BF80BD00BF6C1301208F
:106F800080B500AF024801F0E5FD00BF80BD00BF45
:106F9000CC15012080B500AF024801F0C1F900BF57
:106FA00080BD00BFEC0E012080B500AF034805F0A6
:106FB00085FE034805F082FE00BF80BDAC120120B3
:106FC0002C11012080B500AF034805F077FE03487F
:106FD00005F074FE00BF80BDAC1201202C12012010
:106FE00080B500AF024805F069FE00BF80BD00BF5C
:106FF000AC12012080B500AF024805F05FFE00BF73
:1070000080BD00BFAC11012080B500AF024806F082
:107010003FFE00BF80BD00BFAC16012080B500AFB1
:10702000024806F035FE00BF80BD00BF8C14012071
:1070300080B500AF024805F041FE00BF80BD00BF33
:10704000EC11012080B500AF034805F037FE00F0D9
:1070500055FD00BF80BD00BFEC12012080B500AF20
:10706000024805F02BFE00BF80BD00BF6C1201205E
:1070700080B500AF024805F021FE00BF80BD00BF13
:107080002C13012080B500AF024801F063FD00BF62
:1070900080BD00BFCC13012080B500AF024801F0D5
:1070A00059FD00BF80BD00BF340F012080B500AF87
:1070B000024801F04FFD00BF80BD00BF6C150120EC
:1070C00080B500AF024806F0E3FD00BF80BD00BF01
:1070D0002C16012080B500AF024802F008FC00BF6A
:1070E00080BD00BF4C17012080B500AF024805F0FD
:1070F0000BFC00BF80BD00BF8810012080B483B0AE
:1071000000AF786000BF0C37BD465DF8047B704768
:1071100080B483B000AF786000BF0C37BD465DF827
:10712000047B704780B483B000AF786000BF0C3739
:10713000BD465DF8047B704780B483B000AF7860D3
:1071400000BF0C37BD465DF8047B704780B483B048
:1071500000AF786000BF0C37BD465DF8047B704718
:1071600080B400AF01231846BD465DF8047B70472C
:1071700080B582B000AF7860396007F0B9FF024691
:10718000162313604FF0FF3318460837BD4680BD05
:1071900080B582B000AF78604FF0FF317868FFF7BC
:1071A000E7FFFEE790B587B000AFF860B9607A609E
:1071B00000237B610AE0BC68631CBB60AFF3008006
:1071C0000346DBB223707B6901337B617A697B689C
:1071D0009A42F0DB7B6818461C37BD4690BD80B5EF
:1071E00086B000AFF860B9607A6000237B6109E087
:1071F000BB685A1CBA601B78184600F0FFFF7B6919
:1072000001337B617A697B689A42F1DB7B681846BF
:107210001837BD4680BD000080B584B000AF7860EF
:10722000114B1B68002B02D10F4B104A1A600E4BFA
:107230001B68FB600C4B1A687B6813446A469342D8
:1072400007D907F055FF02460C2313604FF0FF33B8
:1072500006E0054B1A687B681344034A1360FB6819
:1072600018461037BD4680BD48030120141A01207E
:1072700080B483B000AF78604FF0FF3318460C370E
:10728000BD465DF8047B704780B483B000AF786082
:1072900039603B684FF400525A60002318460C379F
:1072A000BD465DF8047B704780B483B000AF786062
:1072B000012318460C37BD465DF8047B704780B447
:1072C00085B000AFF860B9607A60002318461437C3
:1072D000BD465DF8047B704780B400AF154A154B7E
:1072E000D3F8883043F47003C2F88830124A124B46
:1072F0001B6843F0010313600F4B00229A600E4994
:107300000D4B1A680D4B13400B600B4B0C4A5A6027
:10731000094A094B1B6823F480231360064B0022A3
:10732000DA60044B4FF000629A6000BFBD465DF822
:10733000047B704700ED00E000380240FFFFF6FEDE
:107340001030002480B58AB000AF07F11C03002282
:107350001A605A609A603B4600221A605A609A602E
:10736000DA601A615A619A61274B284A1A60264BE3
:1073700040F237425A60244B00229A60224B63222B
:10738000DA60214B00221A611F4B00229A611E48CD
:1073900005F024FC0346002B01D0FFF75BFD002322
:1073A000FB6100237B6207F11C031946164806F0B7
:1073B000F5F90346002B01D0FFF74CFD60233B603D
:1073C00000237B600023BB6000233B613B4604221B
:1073D00019460D4805F092FD0346002B01D0FFF73A
:1073E00039FD3B460C221946074805F087FD034648
:1073F000002B01D0FFF72EFD034800F08DFA00BFEF
:107400002837BD4680BD00BFEC10012000080040B9
:1074100080B58AB000AF07F11C0300221A605A60E1
:107420009A603B4600221A605A609A60DA601A61DC
:107430005A619A61304B314A1A602F4B00225A60D0
:107440002D4B00229A602C4B0022DA602A4B00223E
:107450001A61294B00229A61274805F0BFFB0346B9
:10746000002B01D0FFF7F6FC0023FB6100237B62B9
:1074700007F11C031946204806F090F90346002B3B
:1074800001D0FFF7E7FC60233B6000237B60002313
:10749000BB6000233B613B4600221946164805F0BD
:1074A0002DFD0346002B01D0FFF7D4FC3B46042200
:1074B0001946114805F022FD0346002B01D0FFF7C5
:1074C000C9FC3B46082219460B4805F017FD034648
:1074D000002B01D0FFF7BEFC3B460C2219460648A4
:1074E00005F00CFD0346002B01D0FFF7B3FC00BFF5
:1074F0002837BD4680BD00BF6C110120000C004044
:1075000080B584B000AF3B1D00221A605A609A60BB
:10751000144B154A1A60134B00225A60114B00227B
:107520009A60104B0022DA600E4B00229A610D48DF
:1075300005F0FFFA0346002B01D0FFF78BFC002378
:107540007B600023FB603B1D1946064806F026F9C8
:107550000346002B01D0FFF77DFC00BF1037BD466E
:1075600080BD00BF6C1201200010004080B584B0C7
:1075700000AF3B1D00221A605A609A60144B154AF6
:107580001A60134B00225A60114B00229A60104B74
:107590000022DA600E4B00229A610D4805F0C9FA0C
:1075A0000346002B01D0FFF755FC00237B6000232E
:1075B000FB603B1D1946064806F0F0F80346002B19
:1075C00001D0FFF747FC00BF1037BD4680BD00BFAC
:1075D0002C1301200014004080B500AF0E4B0F4A61
:1075E0001A600D4B40F237425A600B4B00229A60F2
:1075F000094B0922DA60084B00221A61064B00226F
:107600009A61054805F095FA0346002B01D0FFF773
:1076100021FC00BF80BD00BF2C11012000440140AF
:1076200080B500AF0E4B0F4A1A600D4B40F2374247
:107630005A600B4B00229A60094B0022DA60084B1B
:1076400000221A61064B80229A61054805F071FA02
:107650000346002B01D0FFF7FDFB00BF80BD00BF3C
:107660002C1201200048014080B500AF0E4B0F4A9C
:107670001A600D4B40F237425A600B4B00229A6061
:10768000094B0022DA60084B00221A61064B0022E7
:107690009A61054805F04DFA0346002B01D0FFF72B
:1076A000D9FB00BF80BD00BFEC110120001C0040D1
:1076B00080B500AF0E4B0F4A1A600D4B40F23742B7
:1076C0005A600B4B00229A60094B6322DA60084B28
:1076D00000221A61064B80229A61054805F029FABA
:1076E0000346002B01D0FFF7B5FB00BF80BD00BFF4
:1076F000EC1201200020004080B586B000AF786019
:107700007B681B68324A934214D1324A314B5B6C1E
:1077100043F0010353642F4B5B6C03F001037B6167
:107720007B6900212C4805F085FA04212A4805F0E0
:1077300081FA48E07B681B68284A934218D1254AA1
:10774000244B1B6C43F002031364224B1B6C03F0AD
:1077500002033B613B690421214805F06BFA0821D3
:107760001F4805F067FA0C211D4805F063FA2AE06E
:107770007B681B681B4A934214D1164A154B1B6C3D
:1077800043F004031364134B1B6C03F00403FB600E
:10779000FB680821144805F04DFA0421124805F051
:1077A00049FA10E07B681B68104A93420BD1094AE2
:1077B000084B1B6C43F008031364064B1B6C03F06F
:1077C0000803BB60BB6800BF1837BD4680BD00BF63
:1077D0000000014000380240AC12012000040040CB
:1077E000AC11012000080040EC100120000C00400A
:1077F00080B588B000AF78607B681B683F4A9342D1
:107800000FD13F4A3E4B1B6C43F0100313643C4BBB
:107810001B6C03F01003FB61FB69786805F0B4F999
:1078200067E07B681B68374A93420FD1344A344B78
:107830001B6C43F020031364314B1B6C03F02003DB
:10784000BB61BB69786805F09FF952E07B681B68F3
:107850002D4A93420FD12A4A294B5B6C43F40033E3
:107860005364274B5B6C03F400337B617B6978685E
:1078700005F08AF93DE07B681B68244A93420FD1EA
:107880001F4A1F4B5B6C43F4802353641C4B5B6C9F
:1078900003F480233B613B69786805F075F928E0C3
:1078A0007B681B681A4A93420FD1154A144B1B6C14
:1078B00043F080031364124B1B6C03F08003FB60E6
:1078C000FB68786805F060F913E07B681B68114A73
:1078D00093420ED10A4A0A4B1B6C43F48073136423
:1078E000074B1B6C03F48073BB60BB68786805F0C2
:1078F0004BF900BF2037BD4680BD00BF00100040DF
:10790000003802400014004000440140004801409B
:10791000001C00400020004080B58CB000AF7860B3
:1079200007F11C0300221A605A609A60DA601A613B
:107930007B681B68514A93421DD1514A504B1B6BC7
:1079400043F0100313634E4B1B6B03F01003BB613A
:10795000BB694FF42853FB6102233B6200237B6227
:107960000023BB620123FB6207F11C031946454853
:1079700001F0E2FD7DE07B681B68434A934239D108
:107980003F4A3F4B1B6B43F0020313633C4B1B6BA3
:1079900003F002037B617B69394A394B1B6B43F06F
:1079A00004031363364B1B6B03F004033B613B6919
:1079B0002223FB6102233B6200237B620023BB6224
:1079C0000223FB6207F11C031946304801F0B4FDA5
:1079D0004FF48073FB6102233B6200237B62002330
:1079E000BB620223FB6207F11C031946284801F021
:1079F000A3FD3EE07B681B68264A934239D1204AAA
:107A00001F4B1B6B43F0080313631D4B1B6B03F0F1
:107A10000803FB60FB681A4A194B1B6B43F0020317
:107A20001363174B1B6B03F00203BB60BB684FF47F
:107A30000053FB6102233B6200237B620023BB6295
:107A40000223FB6207F11C031946134801F074FD81
:107A50004FF40073FB6102233B6200237B6200232F
:107A6000BB620223FB6207F11C031946074801F0C1
:107A700063FD00BF3037BD4680BD00BF0000014040
:107A800000380240001002400004004000040240A0
:107A90000008024000080040000C024090B400AF13
:107AA000144A4FF000034FF0000482E81800114A16
:107AB0004FF000034FF00004C2E902340D4A4FF0CA
:107AC00000034FF00004C2E904340A4A4FF00003F7
:107AD0004FF00004C2E90A34064A4FF000034FF0A9
:107AE0000004C2E90834044B00221A7000BFBD46EE
:107AF00090BC704778040120340C012090B583B00D
:107B000000AF904B1B8801339AB28E4B1A808E4B7C
:107B1000D3E900014FF000028C4BF8F7D7FB034686
:107B20000C46894A82E81800874BD3E900014FF0E0
:107B30000002874BF9F70CF80346002B00F0F380A6
:107B4000814A4FF000034FF0000482E81800814B97
:107B500001221A70804BB3F83836002B07D07E4BC9
:107B6000B3F83836013B9AB27B4BA3F83826764BF4
:107B7000D3E902014FF00002744BF8F7A7FB03466C
:107B80000C46714AC2E902346F4BD3E902014FF04F
:107B900000026F4BF8F7DCFF0346002B00F0C380B8
:107BA0006E4B01221A70684A4FF000034FF0000438
:107BB000C2E902340023FB7135E0FB79664A03F524
:107BC000447332F81330002B0DD0FB79624903F572
:107BD000447231F81220013A91B25F4A03F54473BE
:107BE00022F813101CE0FB79FA795B490A4492F8F9
:107BF0003026012A14BF01220022D2B21146564A71
:107C000013440A4683F83026FB79FA79524902F583
:107C1000457231F81210504A03F5447322F81310DC
:107C2000FB790133FB71FB79032BC6D94A4BB3F8BF
:107C30003C36002B07D0484BB3F83C36013B9AB298
:107C4000454BA3F83C26404BD3E904014FF000021A
:107C50003E4BF8F73BFB03460C463B4AC2E9043473
:107C6000394BD3E904014FF00002394BF8F770FFAC
:107C70000346002B57D0344A4FF000034FF0000466
:107C8000C2E90434364B01221A70334BB3F8343650
:107C9000002B08D0304BB3F83436013B9AB22E4B50
:107CA000A3F8342606E02C4B5B88012B02D12A4B2B
:107CB00005221A70244BD3E906014FF00002234B32
:107CC000F8F704FB03460C461F4AC2E906341E4B74
:107CD000D3E906014FF00002224BF8F739FF0346C3
:107CE000002B09D0184A4FF000034FF00004C2E9FE
:107CF00006341D4B01221A701C4B1B78012B14BF3C
:107D000001230023DBB21A46184B1A70124BB3F84A
:107D10003E36002B07D0104BB3F83E36013B9AB2EB
:107D20000D4BA3F83E26124B1B88002B05D0104BA1
:107D30001B88013B9AB20E4B1A8000BF0C37BD4620
:107D400090BD00BFB2040120780401200000F03F84
:107D500000002240350C0120D405012072050120CD
:107D6000AE05012000804D40A8040120340C012004
:107D70007405012080B500AF144B154A1A60134BEF
:107D80004FF4E1325A60114B00229A600F4B0022EF
:107D9000DA600E4B00221A610C4B0C225A610B4B1D
:107DA00000229A61094B0022DA61084B00221A6214
:107DB000064B00225A62054805F09CFD0346002B45
:107DC00001D0FFF747F800BF80BD00BF8C14012031
:107DD0000048004080B500AF144B154A1A60154B9F
:107DE000D3F85036114A5360104B00229A600F4B63
:107DF0000022DA600D4B00221A610C4B0C225A61F2
:107E00000A4B00229A61094B0022DA61074B0022DB
:107E10001A62064B00225A62044805F06BFD0346C5
:107E2000002B01D0FFF716F800BF80BD2C160120F3
:107E300000140140D405012080B58EB000AF7860F9
:107E400007F1240300221A605A609A60DA601A610E
:107E50007B681B688C4A934240F086808B4A8B4B30
:107E60001B6C43F400331364884B1B6C03F4003326
:107E70003B623B6A854A854B1B6B43F001031363EE
:107E8000824B1B6B03F00103FB61FB690C237B62DC
:107E90000223BB620023FB6203233B6307237B6354
:107EA00007F1240319467A4801F046FB794B7A4AD8
:107EB0001A60784B4FF000625A60764B00229A604D
:107EC000744B0022DA60734B4FF480621A61714B7D
:107ED00000225A616F4B00229A616E4B0022DA61D8
:107EE0006C4B00221A626B4B00225A62694800F008
:107EF00091FC0346002B01D0FEF7ACFF7B68654A7E
:107F0000DA66644A7B689363644B654A1A60634B24
:107F10004FF000625A60614B40229A605F4B002232
:107F2000DA605E4B4FF480621A615C4B00225A614A
:107F30005A4B00229A61594B4FF48072DA61574BC9
:107F400000221A62554B00225A62544800F062FC2B
:107F50000346002B01D0FEF77DFF7B684F4A9A66EF
:107F60004E4A7B68936336E17B681B684D4A9342B7
:107F700040F0A480454A454B1B6C43F480231364B6
:107F8000424B1B6C03F48023BB61BB693F4A3F4BF0
:107F90001B6B43F0020313633C4B1B6B03F00203A8
:107FA0007B617B694FF440637B620223BB620023E9
:107FB000FB6203233B6307237B6307F1240319461A
:107FC000394801F0B9FA394B394A1A60374B4FF04A
:107FD00000625A60354B00229A60344B0022DA600E
:107FE000324B4FF480621A61304B00225A612F4BA2
:107FF00000229A612D4B4FF48072DA612B4B4FF4C3
:1080000000321A62294B00225A62284800F002FC12
:108010000346002B01D0FEF71DFF7B68234ADA667A
:10802000224A7B689363234B234A1A60214B4FF00B
:1080300000625A601F4B40229A601E4B0022DA6099
:108040001C4B4FF480621A611A4B00225A61194B83
:1080500000229A61174B4FF48072DA61154B0022AF
:108060001A62144B00225A62124800F0D3FB0346F6
:10807000002B01D0FEF7EEFE7B680E4A9A660D4A91
:108080007B689363A7E000BF0044004000380240D3
:10809000000002406C13012088600240CC150120D2
:1080A000A060024000480040000402402C1401205F
:1080B000286002400C150120586002407B681B6854
:1080C000474A934240F08780464A464B5B6C43F0F8
:1080D00020035364434B5B6C03F020033B613B691B
:1080E000404A404B1B6B43F0040313633D4B1B6B37
:1080F00003F00403FB60FB68C0237B620223BB62C6
:108100000023FB6203233B6308237B6307F1240303
:108110001946354801F010FA344B354A1A60334B92
:108120004FF020625A60314B00229A602F4B0022A0
:10813000DA602E4B4FF480621A612C4B00225A6198
:108140002A4B00229A61294B4FF48072DA61274B47
:108150004FF480321A62254B00225A62234800F005
:1081600059FB0346002B01D0FEF774FE7B681F4AC3
:10817000DA661E4A7B6893631E4B1F4A1A601D4BCA
:108180004FF020625A601B4B40229A60194B00222C
:10819000DA60184B4FF480621A61164B00225A6164
:1081A000144B00229A61134B4FF48072DA61114B29
:1081B00000221A620F4B00225A620E4800F02AFB7E
:1081C0000346002B01D0FEF745FE7B68094A9A66FC
:1081D000084A7B68936300BF3837BD4680BD00BF47
:1081E000001401400038024000080240CC13012076
:1081F000286402406C150120A064024080B582B062
:1082000000AF7860391D4FF6FF730122034805F077
:10821000BFFB7B6818460837BD4680BD8C14012023
:1082200080B500AF032000F0B3FA002000F006F89C
:10823000FEF718FE0023184680BD000080B582B00E
:1082400000AF7860124B1A68124B1B7819464FF436
:108250007A73B3FBF1F3B2FBF3F3184600F0CDFAF7
:108260000346002B01D001230EE07B680F2B0AD8B8
:10827000002279684FF0FF3000F095FA064A7B68DB
:108280001360002300E0012318460837BD4680BD77
:10829000C0000120C8000120C400012080B400AF4C
:1082A000064B1B781A46064B1B681344044A13609E
:1082B00000BFBD465DF8047B704700BFC8000120C9
:1082C0002C17012080B400AF034B1B681846BD4635
:1082D0005DF8047B704700BF2C17012080B584B087
:1082E00000AF7860FFF7EEFFB8607B68FB60FB686B
:1082F000B3F1FF3F05D0094B1B781A46FB681344C6
:10830000FB6000BFFFF7DEFF0246BB68D21AFB68C6
:108310009A42F7D300BF1037BD4680BDC800012088
:1083200080B584B000AF78600023FB600023BB60A1
:108330007B681B681B6803F00203022B0CBF012340
:108340000023DBB2FB607B681B685B6803F02003E3
:10835000202B0CBF01230023DBB2BB60FB68002B8A
:1083600049D0BB68002B46D07B681B6C03F0100320
:10837000002B05D17B681B6C43F400727B681A6488
:108380007B681B689B6803F04053002B2BD17B68F4
:108390009B69002B27D17B681B68DB6A03F47003A1
:1083A000002B06D07B681B689B6803F48063002B5E
:1083B00019D17B681B687A681268526822F0200223
:1083C0005A607B681B6C23F480727B681A647B683C
:1083D0001B6C03F48053002B05D17B681B6C43F0AE
:1083E00001027B681A64786800F0DBF87B681B6820
:1083F0006FF012021A607B681B681B6803F00403AD
:10840000042B0CBF01230023DBB2FB607B681B68DD
:108410005B6803F08003802B0CBF01230023DBB2D9
:10842000BB60FB68002B57D0BB68002B54D07B6827
:108430001B6C03F01003002B05D17B681B6C43F40D
:1084400000527B681A647B681B689B6803F44013C6
:10845000002B39D17B681B689B6B03F44013002B06
:1084600006D07B681B689B6803F48063002B2BD1CC
:108470007B681B685B6803F48063002B24D17B68F6
:108480001B689B6803F04053002B1DD17B689B69E0
:10849000002B19D17B681B687A681268526822F039
:1084A00080025A607B681B6C23F480527B681A64DC
:1084B0007B681B6C03F48073002B05D17B681B6CFD
:1084C00043F001027B681A64786800F088F87B68E2
:1084D0001B686FF00C021A607B681B681B6803F056
:1084E0000103012B0CBF01230023DBB2FB607B687F
:1084F0001B685B6803F04003402B0CBF0123002383
:10850000DBB2BB60FB68002B17D0BB68002B14D01C
:108510007B681B681B6803F00103012B0DD17B688E
:108520001B6C43F480327B681A64786800F043F86F
:108530007B681B686FF001021A607B681B681B6810
:1085400003F02003202B0CBF01230023DBB2FB60D0
:108550007B681B685B6803F08063B3F1806F0CBFBE
:1085600001230023DBB2BB60FB68002B15D0BB6886
:10857000002B12D07B685B6C43F002027B685A646C
:108580007B681B686FF020021A60786800F01DF8A5
:108590007B681B686FF020021A6000BF1037BD4671
:1085A00080BD80B483B000AF786000BF0C37BD469B
:1085B0005DF8047B704780B483B000AF786000BF83
:1085C0000C37BD465DF8047B704780B483B000AFC4
:1085D000786000BF0C37BD465DF8047B704780B4FF
:1085E00083B000AF786000BF0C37BD465DF8047BF8
:1085F0007047000080B485B000AF78607B6803F0FE
:108600000703FB600B4BDB68BB60BA684FF6FF03E8
:108610001340BB60FB681A02BB681A43064B134346
:10862000BB60044ABB68D36000BF1437BD465DF829
:10863000047B704700ED00E00000FA0580B400AF55
:10864000044BDB681B0A03F007031846BD465DF8C0
:10865000047B704700ED00E080B483B000AF0346B8
:10866000FB7197F90730002B0BDB094997F90730AD
:108670005B09FA7902F01F02012000FA02F241F8C8
:10868000232000BF0C37BD465DF8047B704700BF58
:1086900000E100E080B483B000AF03463960FB71B5
:1086A00097F90730002B0ADB0D4997F907303A6834
:1086B000D2B21201D2B20B4483F800230AE0094976
:1086C000FB7903F00F03043B3A68D2B21201D2B235
:1086D0000B441A7600BF0C37BD465DF8047B70472B
:1086E00000E100E000ED00E080B489B000AFF86088
:1086F000B9607A60FB6803F00703FB61FB69C3F1B3
:108700000703042B28BF0423BB61FB690433062B3A
:1087100002D9FB69033B00E000237B610122BB69B6
:1087200002FA03F35A1EBB681A407B699A40012182
:108730007B6901FA03F3591E7B680B40134318460B
:108740002437BD465DF8047B7047000080B582B0D9
:1087500000AF78607B68013BB3F1807F01D30123D8
:108760000FE00A4A7B68013B53600F214FF0FF3056
:10877000FFF790FF054B00229A60044B07221A6016
:10878000002318460837BD4680BD00BF10E000E05A
:1087900080B582B000AF78607868FFF72BFF00BF2C
:1087A0000837BD4680BD80B586B000AF0346B960CE
:1087B0007A60FB7300237B61FFF740FF78617A6882
:1087C000B9687869FFF790FF024697F90F301146B4
:1087D0001846FFF75FFF00BF1837BD4680BD80B564
:1087E00082B000AF0346FB7197F907301846FFF7D8
:1087F00033FF00BF0837BD4680BD80B582B000AFF3
:1088000078607868FFF7A2FF034618460837BD4630
:1088100080BD000080B586B000AF786000237B612A
:10882000FFF750FD38617B68002B01D1012399E0EF
:108830007B68002283F834207B68022283F835208D
:108840007B681B687A681268126822F001021A605D
:108850000FE0FFF737FD02463B69D31A052B08D915
:108860007B6820225A657B68032283F83520032326
:1088700078E07B681B681B6803F00103002BE8D1DC
:108880007B681B681B687B617A69384B13407B618E
:108890007B685A687B689B681A437B68DB681A436D
:1088A0007B681B691A437B685B691A437B689B6919
:1088B0001A437B68DB691A437B681B6A13437A6936
:1088C00013437B617B685B6A042B07D17B68DA6AA0
:1088D0007B681B6B13437A6913437B617B681B685E
:1088E0007A691A607B681B685B697B617B6923F02E
:1088F00007037B617B685B6A7A6913437B617B68F2
:108900005B6A042B17D17B689B6A7A6913437B618E
:108910007B68DB6A002B0ED0786800F015FB0346FD
:10892000002B08D07B6840225A657B68012283F8BF
:108930003520012316E07B681B687A695A617868E4
:1089400000F0CCFA0346FB607B68DB6D3F229A4067
:10895000FB689A607B6800225A657B68012283F875
:108960003520002318461837BD4680BD3F8010F0E3
:1089700080B586B000AFF860B9607A603B600023D4
:10898000FB75FB689B6D3B61FB6893F83430012BF2
:1089900001D1022348E0FB68012283F83420FB6800
:1089A00093F83530DBB2012B37D1FB68022283F814
:1089B0003520FB6800225A653B687A68B968F86818
:1089C00000F05EFAFB68DB6D3F229A403B699A60DB
:1089D000FB681B68FA681268126842F016021A6097
:1089E000FB681B68FA681268526942F080025A619B
:1089F000FB681B6C002B07D0FB681B68FA681268C9
:108A0000126842F008021A60FB681B68FA68126874
:108A1000126842F001021A6005E0FB68002283F848
:108A200034200223FB75FB7D18461837BD4680BDF8
:108A300080B584B000AF78607B689B6DFB60FFF70A
:108A400041FCB8607B6893F83530DBB2022B08D06C
:108A50007B6880225A657B68002283F834200123DA
:108A600052E07B681B687A681268126822F016026E
:108A70001A607B681B687A681268526922F080026B
:108A80005A617B681B6C002B03D17B689B6C002BAD
:108A900007D07B681B687A681268126822F00802A7
:108AA0001A607B681B687A681268126822F00102FB
:108AB0001A6013E0FFF706FC0246BB68D31A052BC9
:108AC0000CD97B6820225A657B68002283F8342009
:108AD0007B68032283F83520032315E07B681B683D
:108AE0001B6803F00103002BE4D17B68DB6D3F22A0
:108AF0009A40FB689A607B68002283F834207B6888
:108B0000012283F83520002318461037BD4680BD6A
:108B100080B483B000AF78607B6893F83530DBB207
:108B2000022B04D07B6880225A6501230CE07B680D
:108B3000052283F835207B681B687A681268126802
:108B400022F001021A60002318460C37BD465DF87A
:108B5000047B704780B586B000AF78600023BB60AF
:108B6000924B1B68924AA2FB03239B0A7B617B68A2
:108B70009B6D3B613B691B68FB607B68DB6D08227A
:108B80009A40FB681340002B1AD07B681B681B6857
:108B900003F00403002B13D07B681B687A6812680B
:108BA000126822F004021A607B68DB6D08229A408A
:108BB0003B699A607B685B6D43F001027B685A6594
:108BC0007B68DB6D01229A40FB681340002B12D0BA
:108BD0007B681B685B6903F08003002B0BD07B680C
:108BE000DB6D01229A403B699A607B685B6D43F0C4
:108BF00002027B685A657B68DB6D04229A40FB6841
:108C00001340002B12D07B681B681B6803F0020323
:108C1000002B0BD07B68DB6D04229A403B699A6085
:108C20007B685B6D43F004027B685A657B68DB6D93
:108C300010229A40FB681340002B43D07B681B68CE
:108C40001B6803F00803002B3CD07B68DB6D10220F
:108C50009A403B699A607B681B681B6803F4802319
:108C6000002B18D07B681B681B6803F40023002BC3
:108C700008D17B681B6C002B24D07B681B6C786848
:108C800098471FE07B689B6C002B1BD07B689B6C1C
:108C90007868984716E07B681B681B6803F480734C
:108CA000002B07D17B681B687A681268126822F073
:108CB00008021A607B681B6C002B03D07B681B6C5E
:108CC000786898477B68DB6D20229A40FB681340E8
:108CD000002B00F08E807B681B681B6803F010037C
:108CE000002B00F086807B68DB6D20229A403B6978
:108CF0009A607B6893F83530DBB2052B36D17B6800
:108D00001B687A681268126822F016021A607B6883
:108D10001B687A681268526922F080025A617B6887
:108D20001B6C002B03D17B689B6C002B07D07B68EE
:108D30001B687A681268126822F008021A607B6861
:108D4000DB6D3F229A403B699A607B68002283F882
:108D500034207B68012283F835207B681B6D002B53
:108D60007DD07B681B6D7868984778E07B681B68CE
:108D70001B6803F48023002B1CD07B681B681B68D6
:108D800003F40023002B08D17B685B6C002B30D0F0
:108D90007B685B6C786898472BE07B68DB6B002B0B
:108DA00027D07B68DB6B7868984722E0C000012001
:108DB000B5814E1B7B681B681B6803F48073002B16
:108DC0000FD17B681B687A681268126822F0100263
:108DD0001A607B68002283F834207B68012283F8C4
:108DE00035207B68DB6B002B03D07B68DB6B7868FE
:108DF00098477B685B6D002B32D07B685B6D03F01E
:108E00000103002B22D07B68052283F835207B6884
:108E10001B687A681268126822F001021A60BB6847
:108E20000133BB607A69934207D87B681B681B6873
:108E300003F00103002BF2D100E000BF7B680022A9
:108E400083F834207B68012283F835207B68DB6C53
:108E5000002B05D07B68DB6C7868984700E000BF8A
:108E60001837BD4680BD00BF80B483B000AF7860C6
:108E70007B685B6D18460C37BD465DF8047B704718
:108E800080B485B000AFF860B9607A603B60FB6881
:108E90001B68FA681268126822F480221A60FB6864
:108EA0001B683A685A60FB689B68402B08D1FB68D6
:108EB0001B687A689A60FB681B68BA68DA6007E02A
:108EC000FB681B68BA689A60FB681B687A68DA609E
:108ED00000BF1437BD465DF8047B704780B485B091
:108EE00000AF78607B681B68DBB2103B134AA2FBC3
:108EF00003231B09FB60124AFB6813441B781A46C4
:108F00007B68DA65FB68032B08D97B681B681A4607
:108F10000C4B13401A1D7B689A6506E07B681B6842
:108F20001A46084B13407A6893657B689B6D184618
:108F30001437BD465DF8047B704700BFABAAAAAAF0
:108F4000F81C010800FCFFFF80B485B000AF78601A
:108F50000023FB737B689B6ABB607B689B69002B6B
:108F60001FD1BB68032B55D801A252F823F000BFD4
:108F7000818F0008938F0008818F000815900008EA
:108F80007B68DB6A03F08073002B45D00123FB7301
:108F900042E07B68DB6AB3F1C07F3FD10123FB7302
:108FA0003CE07B689B69B3F5005F21D1BB68032B74
:108FB00036D801A252F823F0C98F0008CF8F0008DD
:108FC000C98F0008E18F00080123FB732FE07B6845
:108FD000DB6A03F08073002B24D00123FB7321E0B4
:108FE0007B68DB6AB3F1C07F1ED10123FB731BE0FA
:108FF000BB68022B02D9032B03D018E00123FB73BB
:1090000015E07B68DB6A03F08073002B0ED0012330
:10901000FB730BE000BF0AE000BF08E000BF06E002
:1090200000BF04E000BF02E000BF00E000BFFB7B28
:1090300018461437BD465DF8047B704780B586B08E
:1090400000AFF860B960C7E900230123FB75274B27
:109050001B7D012B01D1022343E0244B01221A7511
:109060004CF2503000F068F80346FB75FB7D002B96
:1090700033D1FB68032B23D801A252F823F000BFA1
:10908000919000089D900008A9900008B5900008F4
:109090003B781946B86800F007F912E03B8819469A
:1090A000B86800F0DBF80CE03B681946B86800F0DF
:1090B000B1F806E0D7E90023B86800F07DF800E0D9
:1090C00000BF4CF2503000F037F80346FB75084AF9
:1090D000074B1B6923F001031361044B00221A752F
:1090E000FB7D18461837BD4680BD00BF30170120F4
:1090F000003C024080B483B000AF0023FB710B4BF7
:109100001B69002B0BDA094B094A5A60074B094AC5
:109110005A60064B1B69002B01DA0123FB71FB79B6
:1091200018460C37BD465DF8047B7047003C024092
:1091300023016745AB89EFCD80B584B000AF78607F
:109140000023FB601A4B00229A61FFF7BBF8F8601E
:1091500010E07B68B3F1FF3F0CD07B68002B07D099
:10916000FFF7B0F80246FB68D21A7B689A4201D931
:10917000032319E00F4BDB6803F48033002BE8D1A5
:109180000C4BDB6803F0F203002B03D000F0B0F8C7
:10919000012309E0074BDB6803F00103002B02D039
:1091A000044B0122DA60002318461037BD4680BD0B
:1091B00030170120003C0240F0B484B000AFF860EA
:1091C000C7E90023124A124B1B6923F44073136151
:1091D0000F4A0F4B1B6943F4407313610C4A0C4B4D
:1091E0001B6943F001031361FB683A681A60FB686E
:1091F00004331A4697E81800250000262B46136012
:10920000BFF34F8F00BF1037BD46F0BC704700BFA3
:10921000003C024080B483B000AF786039600E4AF1
:109220000D4B1B6923F4407313610B4A0A4B1B69F6
:1092300043F400731361084A074B1B6943F00103B1
:1092400013617B683A681A60BFF34F8F00BF0C3719
:10925000BD465DF8047B7047003C024080B483B09B
:1092600000AF78600B467B800E4A0E4B1B6923F4DF
:10927000407313610B4A0B4B1B6943F480731361FA
:10928000084A084B1B6943F0010313617B687A8825
:109290001A80BFF34F8F00BF0C37BD465DF8047BCB
:1092A000704700BF003C024080B483B000AF7860DC
:1092B0000B46FB700D4A0D4B1B6923F44073136181
:1092C0000A4A0A4B1B691361084A084B1B6943F0A1
:1092D000010313617B68FA781A70BFF34F8F00BFE8
:1092E0000C37BD465DF8047B704700BF003C024070
:1092F00080B400AF214BDB6803F00203002B05D0E4
:109300001F4B9B6943F020031D4A93611B4BDB6895
:1093100003F01003002B05D0194B9B6943F0100399
:10932000174A9361154BDB6803F02003002B05D02F
:10933000134B9B6943F00803114A93610F4BDB68A1
:1093400003F04003002B05D00D4B9B6943F0040351
:109350000B4A9361094BDB6803F08003002B05D0B7
:10936000074B9B6943F00203054A9361034BF222CA
:10937000DA6000BFBD465DF8047B7047003C0240E8
:109380003017012080B584B000AF786039600123C8
:10939000FB730023BB602F4B1B7D012B01D10223EC
:1093A00053E02C4B01221A754CF25030FFF7C4FEEB
:1093B0000346FB73FB7B002B43D13B684FF0FF322E
:1093C0001A607B681B68012B12D17B68DB68DBB2FB
:1093D000184600F043F84CF25030FFF7ADFE03465C
:1093E000FB731D4A1C4B1B6923F00403136128E027
:1093F0007B685B68BB601CE07B68DB68DBB219469E
:10940000B86800F04FF84CF25030FFF795FE034675
:10941000FB73114A104B1B6923F07A031361FB7B2A
:10942000002B03D03B68BA681A600AE0BB680133BE
:10943000BB607B689A687B685B681A44BB689A4229
:10944000DAD8044B00221A75FB7B18461037BD464C
:1094500080BD00BF30170120003C024080B483B0C3
:1094600000AF0346FB710E4A0D4B1B6923F440739A
:1094700013610B4A0A4B1B6943F00403136108494B
:10948000074B1A69FB791B02134343F480330B61CA
:10949000BFF34F8F00BF0C37BD465DF8047B7047AC
:1094A000003C024080B485B000AF78600B46FB7092
:1094B0000023FB60FB78002B02D10023FB6010E04F
:1094C000FB78012B03D14FF48073FB6009E0FB783C
:1094D000022B03D14FF40073FB6002E04FF44073A2
:1094E000FB60144A134B1B6923F440731361114949
:1094F000104B1A69FB6813430B610E4A0D4B1B6935
:1095000023F0F80313610B490A4B1A697B68DB00EF
:10951000134343F002030B61064A064B1B6943F4F5
:1095200080331361BFF34F8F00BF1437BD465DF822
:10953000047B7047003C024080B489B000AF786083
:1095400039600023FB6100237B6100233B61002322
:10955000BB610023FB6175E10122FB6902FA03F3A1
:109560007B613B681A687B6913403B613A697B69A0
:109570009A4240F064813B685B68012B0BD03B68EA
:109580005B68022B07D03B685B68112B03D03B68FC
:109590005B68122B30D17B689B68BB61FB695B0009
:1095A000032202FA03F3DB43BA691340BB613B6851
:1095B000DA68FB695B0002FA03F3BA691343BB6123
:1095C0007B68BA699A607B685B68BB610122FB6952
:1095D00002FA03F3DB43BA691340BB613B685B6883
:1095E0001B0903F00102FB6902FA03F3BA69134392
:1095F000BB617B68BA695A607B68DB68BB61FB69E9
:109600005B00032202FA03F3DB43BA691340BB6138
:109610003B689A68FB695B0002FA03F3BA6913437B
:10962000BB617B68BA69DA603B685B68022B03D078
:109630003B685B68122B23D1FB69DA087B68083230
:1096400053F82230BB61FB6903F007039B000F2234
:1096500002FA03F3DB43BA691340BB613B681A6942
:10966000FB6903F007039B0002FA03F3BA69134393
:10967000BB61FB69DA087B680832B96943F82210DC
:109680007B681B68BB61FB695B00032202FA03F382
:10969000DB43BA691340BB613B685B6803F00302BC
:1096A000FB695B0002FA03F3BA691343BB617B6891
:1096B000BA691A603B685B6803F08053002B00F0C6
:1096C000BE80654A644B5B6C43F480435364624BD9
:1096D0005B6C03F48043FB60FB68604AFB699B089A
:1096E000023352F82330BB61FB6903F003039B0094
:1096F0000F2202FA03F3DB43BA691340BB617B68B4
:10970000574A934237D07B68564A934231D07B68A0
:10971000554A93422BD07B68544A934225D07B68AC
:10972000534A93421FD07B68524A934219D07B68B8
:10973000514A934213D07B68504A93420DD07B68C4
:109740004F4A934207D07B684E4A934201D1092386
:1097500012E00A2310E008230EE007230CE00623A2
:109760000AE0052308E0042306E0032304E00223C3
:1097700002E0012300E00023FA6902F003029200F4
:109780009340BA691343BB613449FB699B080233B8
:10979000BA6941F823203C4B1B68BB613B69DB4342
:1097A000BA691340BB613B685B6803F48033002BEC
:1097B00003D0BA693B691343BB61334ABB69136089
:1097C000314B5B68BB613B69DB43BA691340BB61EA
:1097D0003B685B6803F40033002B03D0BA693B6934
:1097E0001343BB61284ABB695360274B9B68BB612D
:1097F0003B69DB43BA691340BB613B685B6803F4B8
:109800008013002B03D0BA693B691343BB611E4A26
:10981000BB6993601C4BDB68BB613B69DB43BA6986
:109820001340BB613B685B6803F40013002B03D05B
:10983000BA693B691343BB61134ABB69D360FB69D7
:109840000133FB61FB690F2B7FF686AE00BF243727
:10985000BD465DF8047B7047003802400038014087
:10986000000002400004024000080240000C0240D8
:10987000001002400014024000180240001C024088
:109880000020024000240240003C014080B485B02A
:1098900000AF78600B467B807B681A697B88134039
:1098A000002B02D00123FB7301E00023FB73FB7B41
:1098B00018461437BD465DF8047B704780B483B00A
:1098C00000AF78600B467B8013467B707B78002B63
:1098D00003D07A887B689A6103E07B881A047B68EE
:1098E0009A6100BF0C37BD465DF8047B704780B5B8
:1098F00086B000AF78607B681B683B613B69FB60AA
:109900007B681B68184605F085F80346012B40F07C
:10991000EF807B681B68184605F069F80346002B4A
:1099200000F0E5807B681B68184605F060F8034688
:1099300003F40013B3F5001F04D17B681B684FF4D8
:1099400000125A617B681B68184605F050F8034600
:1099500003F48013B3F5801F04D17B681B684FF4B8
:1099600080125A617B681B68184605F040F8034670
:1099700003F08063B3F1806F04D17B681B684FF004
:1099800080625A617B681B68184605F030F8034610
:1099900003F00203022B03D17B681B6802225A6189
:1099A0007B681B68184605F022F8034603F0005355
:1099B000B3F1005F15D17B681B684FF000525A610C
:1099C000FB6803F588631B6803F00103002B08D1D3
:1099D000786805F0C5FA7B681B680121184605F018
:1099E00027F87B681B68184605F001F8034603F06A
:1099F0008073B3F1807F02D1786801F005F97B684C
:109A00001B68184604F0F3FF034603F00803082B15
:109A100006D1786805F088FA7B681B6808225A61CD
:109A20007B681B68184604F0E2FF034603F00073EE
:109A3000B3F1007F38D17B681B68184605F034F815
:109A4000B86000237B6125E07B6903F00F03BA68EF
:109A500022FA03F303F00103002B18D07B695A01AB
:109A6000FB68134403F5A0631B6803F40043B3F5DC
:109A7000004F06D17B69DBB21946786800F058F8D0
:109A800005E07B69DBB21946786800F091FC7B69E0
:109A900001337B617B689A687B699A42D4D87B6882
:109AA0001B684FF000725A617B681B68184604F00F
:109AB0009EFF034603F01003102B01D1012300E0A9
:109AC0000023002B14D07B681B687A6812689269A7
:109AD00022F010029A61786800F0EAFF7B681B6848
:109AE0007A681268926942F010029A6100E000BF41
:109AF0001837BD4680BD80B582B000AF78607B6806
:109B000093F8B832012B01D102230DE07B680122CA
:109B100083F8B8227B681B68184605F0DFF87B687D
:109B2000002283F8B822002318460837BD4680BDBE
:109B300080B586B000AF78600B46FB707B681B6811
:109B40007B617B693B61FB78FB60FB685A013B6989
:109B5000134403F5A0639B6803F00403042B1AD19C
:109B6000FB685A013B69134403F5A0631A460423BA
:109B70009360FB685A013B69134403F5A0631946DF
:109B8000FB685A013B69134403F5A063DB6843F0AB
:109B90000203CB60D1E0FB685A013B69134403F533
:109BA000A0639B6803F48073B3F5807F2DD1FB68BD
:109BB0005A013B69134403F5A0631A464FF48073BE
:109BC00093607968FA6813469B001344DB000B44EA
:109BD0005D3307221A70FB685A013B69134403F591
:109BE000A0631946FB685A013B69134403F5A0635F
:109BF000DB6843F00203CB607B681B68FA68D2B273
:109C00001146184604F061FF97E0FB685A013B6972
:109C1000134403F5A0639B6803F02003202B09D1B4
:109C2000FB685A013B69134403F5A0631A462023DD
:109C3000936082E0FB685A013B69134403F5A0631B
:109C40009B6803F00803082B35D1FB685A013B6978
:109C5000134403F5A0631946FB685A013B6913449A
:109C600003F5A063DB6843F00203CB607968FA6810
:109C700013469B001344DB000B445D3305221A702E
:109C8000FB685A013B69134403F5A0631A4610238D
:109C90009360FB685A013B69134403F5A0631A46BD
:109CA000082393607B681B68FA68D2B21146184695
:109CB00004F00BFF41E0FB685A013B69134403F5D4
:109CC000A0639B6803F48063B3F5806F35D1FB68B4
:109CD0005A013B69134403F5A0631946FB685A0116
:109CE0003B69134403F5A063DB6843F00203CB60D8
:109CF0007B681B68FA68D2B21146184604F0E5FE8C
:109D0000FB685A013B69134403F5A0631A4610230C
:109D100093607968FA6813469B001344DB000B4498
:109D20005D3308221A70FB685A013B69134403F53E
:109D3000A0631A464FF480639360FB685A013B6945
:109D4000134403F5A0639B6803F40073B3F5007F2D
:109D500023D1FB685A013B69134403F5A0631946FC
:109D6000FB685A013B69134403F5A063DB6843F0C9
:109D70000203CB607B681B68FA68D2B211461846B2
:109D800004F0A3FEFB685A013B69134403F5A0638A
:109D90001A464FF40073936006E3FB685A013B696F
:109DA000134403F5A0639B6803F00103012B40F00B
:109DB000FF807B681B69002B1BD07968FA6813460B
:109DC0009B001344DB000B4448331A68FB685901BD
:109DD0003B690B4403F5A0631B69C3F31203D11A5B
:109DE0007868FA6813469B001344DB0003444C3345
:109DF00019607968FA6813469B001344DB000B4432
:109E00005D3301221A707968FA6813469B00134487
:109E1000DB000B44583300221A60FB685A013B698F
:109E2000134403F5A0631A46012393607968FA6826
:109E300013469B001344DB000B443F331B78002B7D
:109E40000AD07968FA6813469B001344DB000B4480
:109E50003F331B78022B22D1FB685A013B69134424
:109E600003F5A0631946FB685A013B69134403F5E7
:109E7000A063DB6843F00203CB607B681B68FA6871
:109E8000D2B21146184604F020FEFB685A013B6925
:109E9000134403F5A0631A461023936071E07968B8
:109EA000FA6813469B001344DB000B443F331B78D6
:109EB000032B2BD1FB685A013B69134403F5A063C4
:109EC0001946FB685A013B69134403F5A0631B68FC
:109ED00043F000530B607968FA6813469B00134403
:109EE000DB000B445C3301221A70FB68D8B279683E
:109EF000FA6813469B001344DB000B445C331B7869
:109F00001A460146786805F039F83AE07968FA6847
:109F100013469B001344DB000B443F331B78012B9B
:109F20002FD17968FA6813469B001344DB000B4479
:109F30005C3301221A707968FA6813469B00134457
:109F4000DB000B4450331B7883F00103D8B27968EF
:109F5000FA6813469B001344DB000B44503302465F
:109F60001A70FB68D8B27968FA6813469B001344EC
:109F7000DB000B445C331B781A460146786804F01A
:109F8000FDFF7968FA6813469B001344DB000B441D
:109F900050331B7883F00103D8B27968FA6813460E
:109FA0009B001344DB000B44503302461A70FBE164
:109FB000FB685A013B69134403F5A0639B6803F0F7
:109FC0000203022B40F01B81FB685A013B691344DA
:109FD00003F5A0631946FB685A013B69134403F576
:109FE000A063DB6823F00203CB607968FA6813464C
:109FF0009B001344DB000B445D331B78012B0AD11B
:10A000007968FA6813469B001344DB000B445C3309
:10A0100001221A70D9E07968FA6813469B0013444C
:10A02000DB000B445D331B78052B0AD17968FA6895
:10A0300013469B001344DB000B445C3305221A706B
:10A04000C3E07968FA6813469B001344DB000B44B5
:10A050005D331B78062B0AD07968FA6813469B009B
:10A060001344DB000B445D331B78082B56D1796811
:10A07000FA6813469B001344DB000B4458331B68FB
:10A08000591C7868FA6813469B001344DB000344AC
:10A09000583319607968FA6813469B001344DB0053
:10A0A0000B4458331B68032B14D97968FA6813469C
:10A0B0009B001344DB000B44583300221A6079687C
:10A0C000FA6813469B001344DB000B445C33042204
:10A0D0001A7009E07968FA6813469B001344DB00A4
:10A0E0000B445C3302221A70FB685A013B6913442B
:10A0F00003F5A0631B68BB60BB6823F08043BB60B3
:10A10000BB6843F00043BB60FB685A013B691344E2
:10A1100003F5A0631A46BB68136056E07968FA68D5
:10A1200013469B001344DB000B445D331B78032B69
:10A1300023D17968FA6813469B001344DB000B4473
:10A140005C3302221A70FB685A013B69134403F521
:10A15000A0631B68BB60BB6823F08043BB60BB6827
:10A1600043F00043BB60FB685A013B69134403F5AD
:10A17000A0631A46BB68136027E07968FA68134643
:10A180009B001344DB000B445D331B78072B1CD171
:10A190007968FA6813469B001344DB000B4458337C
:10A1A0001B68591C7868FA6813469B001344DB004F
:10A1B0000344583319607968FA6813469B001344C6
:10A1C000DB000B445C3304221A70FB685A013B69C4
:10A1D000134403F5A0631A4602239360FB68D8B2C8
:10A1E0007968FA6813469B001344DB000B445C3328
:10A1F0001B781A460146786804F0C0FED4E0FB687C
:10A200005A013B69134403F5A0639B6803F0800384
:10A21000802B3FD1FB685A013B69134403F5A063CF
:10A220001946FB685A013B69134403F5A063DB68D8
:10A2300043F00203CB607968FA6813469B0013442D
:10A24000DB000B4458331B68591C7868FA681346C6
:10A250009B001344DB000344583319607968FA68A3
:10A2600013469B001344DB000B445D3306221A7037
:10A270007B681B68FA68D2B21146184604F025FCC8
:10A28000FB685A013B69134403F5A0631A46802317
:10A29000936089E0FB685A013B69134403F5A063AE
:10A2A0009B6803F01003102B7ED17968FA6813467F
:10A2B0009B001344DB000B443F331B78032B23D15B
:10A2C0007968FA6813469B001344DB000B4458334B
:10A2D00000221A60FB685A013B69134403F5A0632E
:10A2E0001946FB685A013B69134403F5A063DB6818
:10A2F00043F00203CB607B681B68FA68D2B2114658
:10A30000184604F0E2FB46E07968FA6813469B00C1
:10A310001344DB000B443F331B78002B0AD07968D1
:10A32000FA6813469B001344DB000B443F331B7851
:10A33000022B30D17968FA6813469B001344DB0086
:10A340000B44583300221A607B681B69002B22D112
:10A350007968FA6813469B001344DB000B445D33B5
:10A3600003221A70FB685A013B69134403F5A0638A
:10A370001946FB685A013B69134403F5A063DB6887
:10A3800043F00203CB607B681B68FA68D2B21146C7
:10A39000184604F09AFBFB685A013B69134403F525
:10A3A000A0631A461023936000BF1837BD4680BDD6
:10A3B00080B586B000AF78600B46FB707B681B6889
:10A3C0007B617B693B61FB78FB60FB685A013B6901
:10A3D000134403F5A0639B6803F00403042B1AD114
:10A3E000FB685A013B69134403F5A0631A46042332
:10A3F0009360FB685A013B69134403F5A063194657
:10A40000FB685A013B69134403F5A063DB6843F022
:10A410000203CB6047E3FB685A013B69134403F531
:10A42000A0639B6803F02003202B42D1FB685A01F4
:10A430003B69134403F5A0631A46202393607968AF
:10A44000FA6813469B001344DB000B443D331B7832
:10A45000012B40F028837968FA6813469B00134467
:10A46000DB000B443D3300221A707968FA6813460A
:10A470009B001344DB000B445C3302221A70FB6820
:10A480005A013B69134403F5A0631946FB685A015E
:10A490003B69134403F5A063DB6843F00203CB6020
:10A4A0007B681B68FA68D2B21146184604F00DFBAF
:10A4B000F9E2FB685A013B69134403F5A0639B680A
:10A4C00003F04003402B40D17968FA6813469B00A3
:10A4D0001344DB000B445D3304221A707968FA6878
:10A4E00013469B001344DB000B443D3301221A70DA
:10A4F0007968FA6813469B001344DB000B44583319
:10A5000000221A60FB685A013B69134403F5A063FB
:10A510001946FB685A013B69134403F5A063DB68E5
:10A5200043F00203CB607B681B68FA68D2B2114625
:10A53000184604F0CAFAFB685A013B69134403F554
:10A54000A0631A4640239360ADE2FB685A013B6961
:10A55000134403F5A0639B6803F40073B3F5007F15
:10A5600023D1FB685A013B69134403F5A0631946E4
:10A57000FB685A013B69134403F5A063DB6843F0B1
:10A580000203CB607B681B68FA68D2B2114618469A
:10A5900004F09BFAFB685A013B69134403F5A0637E
:10A5A0001A464FF4007393607DE2FB685A013B69E1
:10A5B000134403F5A0639B6803F00103012B36D11C
:10A5C0007968FA6813469B001344DB000B44583348
:10A5D00000221A60FB685A013B69134403F5A0632B
:10A5E0001946FB685A013B69134403F5A063DB6815
:10A5F00043F00203CB607B681B68FA68D2B2114655
:10A60000184604F062FAFB685A013B69134403F5EB
:10A61000A0631A46012393607968FA6813469B0089
:10A620001344DB000B445D3301221A703BE2FB68EC
:10A630005A013B69134403F5A0639B6803F00803C8
:10A64000082B2CD1FB685A013B69134403F5A06326
:10A650001A4608239360FB685A013B69134403F5CB
:10A66000A0631946FB685A013B69134403F5A063D4
:10A67000DB6843F00203CB607B681B68FA68D2B2E8
:10A680001146184604F021FA7968FA6813469B00CF
:10A690001344DB000B445D3305221A7003E2FB68B0
:10A6A0005A013B69134403F5A0639B6803F0100350
:10A6B000102B56D17968FA6813469B001344DB00CF
:10A6C0000B44583300221A607968FA6813469B00DD
:10A6D0001344DB000B445D3303221A707968FA6877
:10A6E00013469B001344DB000B443D331B78002BC7
:10A6F00014D17968FA6813469B001344DB000B44BD
:10A700003C331B78002B09D17968FA6813469B000B
:10A710001344DB000B443D3301221A70FB685A01DD
:10A720003B69134403F5A0631946FB685A013B6972
:10A73000134403F5A063DB6843F00203CB607B683E
:10A740001B68FA68D2B21146184604F0BEF9FB68DD
:10A750005A013B69134403F5A0631A461023936022
:10A76000A1E1FB685A013B69134403F5A0639B68B0
:10A7700003F08003802B2CD1FB685A013B69134402
:10A7800003F5A0631946FB685A013B69134403F5BE
:10A79000A063DB6843F00203CB607B681B68FA6848
:10A7A000D2B21146184604F090F97968FA68134657
:10A7B0009B001344DB000B445D3306221A70FB68D8
:10A7C0005A013B69134403F5A0631A468023936042
:10A7D00069E1FB685A013B69134403F5A0639B6878
:10A7E00003F48063B3F5806F36D1FB685A013B698F
:10A7F000134403F5A0631946FB685A013B691344EF
:10A8000003F5A063DB6843F00203CB607B681B6841
:10A81000FA68D2B21146184604F057F9FB685A019B
:10A820003B69134403F5A0631A4610239360FB6849
:10A830005A013B69134403F5A0631A464FF4806341
:10A8400093607968FA6813469B001344DB000B445D
:10A850005D3308221A7026E1FB685A013B691344F4
:10A8600003F5A0639B6803F00203022B40F01B81F9
:10A87000FB685A013B69134403F5A0631946FB6862
:10A880005A013B69134403F5A063DB6823F002031C
:10A89000CB607968FA6813469B001344DB000B44D5
:10A8A0005D331B78012B37D17968FA6813469B001A
:10A8B0001344DB000B445C3301221A707968FA6898
:10A8C00013469B001344DB000B443F331B78022BE1
:10A8D0000BD07968FA6813469B001344DB000B44E5
:10A8E0003F331B78032B40F0C5807968FA68134624
:10A8F0009B001344DB000B4451331B7883F00103AE
:10A90000D8B27968FA6813469B001344DB000B4405
:10A91000513302461A70ADE07968FA6813469B001D
:10A920001344DB000B445D331B78032B0AD1796899
:10A93000FA6813469B001344DB000B445C3302228D
:10A940001A7097E07968FA6813469B001344DB009D
:10A950000B445D331B78042B0AD17968FA681346DF
:10A960009B001344DB000B445C3302221A7081E02D
:10A970007968FA6813469B001344DB000B445D338F
:10A980001B78052B0AD17968FA6813469B0013449B
:10A99000DB000B445C3305221A706BE07968FA68BF
:10A9A00013469B001344DB000B445D331B78062BDE
:10A9B0000AD07968FA6813469B001344DB000B4405
:10A9C0005D331B78082B55D17968FA6813469B00D4
:10A9D0001344DB000B4458331B68591C7868FA6831
:10A9E00013469B001344DB00034458331960796815
:10A9F000FA6813469B001344DB000B4458331B6872
:10AA0000032B14D97968FA6813469B001344DB00C2
:10AA10000B44583300221A607968FA6813469B0089
:10AA20001344DB000B445C3304221A7009E079689C
:10AA3000FA6813469B001344DB000B445C3302228C
:10AA40001A70FB685A013B69134403F5A0631B6845
:10AA5000BB60BB6823F08043BB60BB6843F000432E
:10AA6000BB60FB685A013B69134403F5A0631A46B7
:10AA7000BB681360FB685A013B69134403F5A0638C
:10AA80001A4602239360FB68D8B27968FA681346C5
:10AA90009B001344DB000B445C331B781A460146D1
:10AAA000786804F06BFA00BF1837BD4680BD00001F
:10AAB00080B58AB000AF78607B681B687B627B6A78
:10AAC0003B627B681B681B6AFB61FB6903F00F0339
:10AAD000BB61FB695B0C03F00F037B61FB691B0926
:10AAE000C3F30A033B617B69022B03D0052B00F003
:10AAF000828083E03B69002B7FD07968BA69134676
:10AB00009B001344DB000B4444331B68002B74D0C0
:10AB10007B6818687968BA6913469B001344DB00A8
:10AB20000B4444331B683A6992B2194603F036FF6E
:10AB30007968BA6913469B001344DB000B44443325
:10AB40001A683B69D1187868BA6913469B001344A8
:10AB5000DB000344443319607968BA6913469B00EB
:10AB60001344DB000B444C331A683B69D1187868F6
:10AB7000BA6913469B001344DB0003444C3319604D
:10AB8000BB695A013B6A134403F5A0631A691D4B64
:10AB90001340002B31D0BB695A013B6A134403F5C3
:10ABA000A0631B68FB60FB6823F08043FB60FB68CD
:10ABB00043F00043FB60BB695A013B6A134403F551
:10ABC000A0631A46FB6813607968BA6913469B0054
:10ABD0001344DB000B4450331B7883F00103D8B2DD
:10ABE0007968BA6913469B001344DB000B44503369
:10ABF00002461A7001E000BF00E000BF00BF283726
:10AC0000BD4680BD0000F81F80B586B000AF7860FB
:10AC10007B681B687B617B693B613B6903F58863EB
:10AC20001B68FB603B6903F588631B68BB60BB68FE
:10AC300023F02E03BB60FB6803F00203022B0BD151
:10AC4000FB6803F00103012B02D1786804F07AF964
:10AC5000BB6843F00203BB60FB6803F00803082BEA
:10AC600032D1BB6843F00803BB60FB6803F0040308
:10AC7000042B26D17B689B69022B13D1FB6803F45C
:10AC8000C023B3F5802F06D17B681B6802211846CC
:10AC900003F0CEFE11E07B681B680121184603F02B
:10ACA000C7FE0AE07B68DB68012B06D13B6903F530
:10ACB00080631A464EF660235360786804F06CF99E
:10ACC00002E0786804F076F9FB6803F02003202B9B
:10ACD00003D1BB6843F02003BB603B6903F5886385
:10ACE0001A46BB68136000BF1837BD4680BD000020
:10ACF00080B582B000AF78607B68002B01D1012362
:10AD00007EE07B6893F84130DBB2002B06D17B6894
:10AD1000002283F840207868FBF706F97B6824223C
:10AD200083F841207B681B687A681268126822F0F9
:10AD300001021A607B681B687A68526822F07062B0
:10AD40001A617B681B687A681268926822F4004274
:10AD50009A607B68DB68012B07D17B681B687A6887
:10AD6000926842F400429A6006E07B681B687A6849
:10AD7000926842F404429A607B68DB68022B04D13B
:10AD80007B681B684FF400625A607B681A687B68B6
:10AD90001B6859681C4B0B4353607B681B687A68BF
:10ADA0001268D26822F40042DA607B681B687A6815
:10ADB00011697A68526911437A68926912020A43EA
:10ADC000DA607B681B687A68D1697A68126A0A431C
:10ADD0001A607B681B687A681268126842F0010288
:10ADE0001A607B6800225A647B68202283F8412025
:10ADF0007B6800221A637B68002283F842200023CC
:10AE000018460837BD4680BD0080000280B588B076
:10AE100002AFF8607A601A460B467B8113463B818D
:10AE2000FB6893F84130DBB2202B40F0DA80FB68FE
:10AE300093F84030012B01D10223D3E0FB680122BB
:10AE400083F84020FDF73EFA78617B69009319236F
:10AE500001224FF40041F86800F0E6F90346002BA8
:10AE600001D00123BEE0FB68212283F84120FB686A
:10AE7000102283F84220FB6800225A64FB687A683B
:10AE80005A62FB683A895A85FB6800225A63FB685C
:10AE90005B8D9BB2FF2B0ED9FB68FF221A85FB68E6
:10AEA0001B8DDAB27989514B00934FF08073F868AB
:10AEB00000F048FB6CE0FB685B8D9AB2FB681A857A
:10AEC000FB681B8DDAB27989484B00934FF0007311
:10AED000F86800F037FB5BE07A69396AF86800F0DF
:10AEE000E3F90346002B01D001237BE0FB681B68DC
:10AEF000FA68526A12789A62FB685B6A5A1CFB68AD
:10AF00005A62FB685B8D9BB2013B9AB2FB685A8523
:10AF1000FB681B8D013B9AB2FB681A85FB685B8D51
:10AF20009BB2002B34D0FB681B8D002B30D17B698A
:10AF300000933B6A00228021F86800F075F903460F
:10AF4000002B01D001234DE0FB685B8D9BB2FF2BF2
:10AF50000ED9FB68FF221A85FB681B8DDAB279894E
:10AF6000002300934FF08073F86800F0EBFA0FE0D5
:10AF7000FB685B8D9AB2FB681A85FB681B8DDAB2A1
:10AF80007989002300934FF00073F86800F0DAFA33
:10AF9000FB685B8D9BB2002B9ED17A69396AF86899
:10AFA00000F0C2F90346002B01D001231AE0FB6830
:10AFB0001B682022DA61FB681A68FB681B68596805
:10AFC0000B4B0B405360FB68202283F84120FB6849
:10AFD000002283F84220FB68002283F840200023EF
:10AFE00000E0022318461837BD4680BD00200080CF
:10AFF00000E800FE80B588B002AFF8607A601A46BB
:10B000000B467B8113463B81FB6893F84130DBB2F2
:10B01000202B40F0DB80FB6893F84030012B01D1FE
:10B020000223D4E0FB68012283F84020FDF74AF9AF
:10B0300078617B690093192301224FF40041F8687D
:10B0400000F0F2F80346002B01D00123BFE0FB68BB
:10B05000222283F84120FB68102283F84220FB68FB
:10B0600000225A64FB687A685A62FB683A895A85FA
:10B07000FB6800225A63FB685B8D9BB2FF2B0ED9E5
:10B08000FB68FF221A85FB681B8DDAB27989524B67
:10B0900000934FF08073F86800F054FA6DE0FB689D
:10B0A0005B8D9AB2FB681A85FB681B8DDAB27989D1
:10B0B000494B00934FF00073F86800F043FA5CE0EE
:10B0C0007A69396AF86800F06BF90346002B01D001
:10B0D00001237CE0FB685B6AFA681268526AD2B2AC
:10B0E0001A70FB685B6A5A1CFB685A62FB681B8D0E
:10B0F000013B9AB2FB681A85FB685B8D9BB2013BF2
:10B100009AB2FB685A85FB685B8D9BB2002B34D0EA
:10B11000FB681B8D002B30D17B6900933B6A0022BA
:10B120008021F86800F080F80346002B01D001234D
:10B130004DE0FB685B8D9BB2FF2B0ED9FB68FF22B5
:10B140001A85FB681B8DDAB27989002300934FF0D2
:10B150008073F86800F0F6F90FE0FB685B8D9AB237
:10B16000FB681A85FB681B8DDAB27989002300938E
:10B170004FF00073F86800F0E5F9FB685B8D9BB257
:10B18000002B9DD17A69396AF86800F0CDF8034642
:10B19000002B01D001231AE0FB681B682022DA6132
:10B1A000FB681A68FB681B6859680C4B0B405360BE
:10B1B000FB68202283F84120FB68002283F84220AC
:10B1C000FB68002283F84020002300E00223184699
:10B1D0001837BD4680BD00BF0024008000E800FE97
:10B1E00080B483B000AF78607B681B689B6903F014
:10B1F0000203022B03D17B681B6800229A627B68E2
:10B200001B689B6903F00103012B07D07B681B6857
:10B210007A681268926942F001029A6100BF0C37A5
:10B22000BD465DF8047B704780B584B000AFF86020
:10B23000B9603B601346FB7122E03B68B3F1FF3F0E
:10B240001ED0FDF73FF80246BB69D21A3B689A420E
:10B2500002D83B68002B13D1FB685B6C43F02002E3
:10B26000FB685A64FB68202283F84120FB680022B7
:10B2700083F84220FB68002283F8402001230FE07E
:10B28000FB681B689A69BB681A40BB689A420CBF8E
:10B2900001230023DBB21A46FB799A42CDD000236A
:10B2A00018461037BD4680BD80B584B000AFF86049
:10B2B000B9607A602CE07A68B968F86800F0DCF868
:10B2C0000346002B01D001232AE0BB68B3F1FF3F06
:10B2D0001ED0FCF7F7FF02467B68D21ABB689A4281
:10B2E00002D8BB68002B13D1FB685B6C43F02002D3
:10B2F000FB685A64FB68202283F84120FB68002227
:10B3000083F84220FB68002283F84020012307E0F5
:10B31000FB681B689B6903F00203022BCBD100235F
:10B3200018461037BD4680BD80B584B000AFF860C8
:10B33000B9607A6028E07A68B968F86800F09CF82B
:10B340000346002B01D0012326E0FCF7BBFF024699
:10B350007B68D21ABB689A4202D8BB68002B13D113
:10B36000FB685B6C43F02002FB685A64FB68202298
:10B3700083F84120FB68002283F84220FB6800220A
:10B3800083F84020012307E0FB681B689B6903F0FA
:10B390002003202BCFD1002318461037BD4680BD97
:10B3A00080B584B000AFF860B9607A6055E07A6823
:10B3B000B968F86800F060F80346002B01D001235B
:10B3C00053E0FB681B689B6903F02003202B29D105
:10B3D000FB681B689B6903F00403042B05D1FB6821
:10B3E0001B8D002B01D000233FE0FB681B6820224F
:10B3F000DA61FB681A68FB681B6859681D4B0B40D3
:10B400005360FB6800225A64FB68202283F84120C5
:10B41000FB68002283F84220FB68002283F840206A
:10B42000012322E0FCF74EFF02467B68D21ABB687C
:10B430009A4202D8BB68002B0FD1FB685B6C43F0CB
:10B440002002FB685A64FB68202283F84120FB68D5
:10B45000002283F84020012307E0FB681B689B69FA
:10B4600003F00403042BA2D1002318461037BD4675
:10B4700080BD00BF00E800FE80B584B000AFF8607A
:10B48000B9607A60FB681B689B6903F01003102B9E
:10B4900051D122E0BB68B3F1FF3F1ED0FCF712FF91
:10B4A00002467B68D21ABB689A4202D8BB68002B5E
:10B4B00013D1FB685B6C43F02002FB685A64FB68A5
:10B4C000202283F84120FB68002283F84220FB6899
:10B4D000002283F8402001232EE0FB681B689B6953
:10B4E00003F02003202BD5D1FB681B681022DA6102
:10B4F000FB681B682022DA61F868FFF771FEFB68C1
:10B500001A68FB681B6859680D4B0B405360FB6859
:10B510005B6C43F00402FB685A64FB68202283F8EA
:10B520004120FB68002283F84220FB68002283F858
:10B530004020012300E0002318461037BD4680BD9F
:10B5400000E800FE80B485B000AFF8607B600B4679
:10B550007B8113467B72FB681A68FB681B6859681D
:10B56000BB695B0D03F480600B4B0343DB43194065
:10B570007B89C3F309007B7A1B0403F47F03184320
:10B580007B681843BB6903430B43536000BF143708
:10B59000BD465DF8047B7047FF63FF0380B483B052
:10B5A00000AF786039607B6893F84130DBB2202BC4
:10B5B00038D17B6893F84030012B01D1022332E06F
:10B5C0007B68012283F840207B68242283F8412095
:10B5D0007B681B687A681268126822F001021A60A0
:10B5E0007B681B687A681268126822F480521A60BD
:10B5F0007B681B687A68126811683A680A431A60A7
:10B600007B681B687A681268126842F001021A604F
:10B610007B68202283F841207B68002283F8402049
:10B62000002300E0022318460C37BD465DF8047B7A
:10B63000704780B485B000AF786039607B6893F85C
:10B640004130DBB2202B39D17B6893F84030012B9D
:10B6500001D1022333E07B68012283F840207B681C
:10B66000242283F841207B681B687A68126812687C
:10B6700022F001021A607B681B681B68FB60FB6894
:10B6800023F47063FB603B681B02FA681343FB60A2
:10B690007B681B68FA681A607B681B687A681268A6
:10B6A000126842F001021A607B68202283F8412070
:10B6B0007B68002283F84020002300E00223184624
:10B6C0001437BD465DF8047B704780B584B000AF89
:10B6D00078607B68002B01D1012338E07B681B6810
:10B6E0004CF6CC421A607B681B6845F255521A60D2
:10B6F0007B681B687A6852685A607B681B687A6846
:10B7000092689A60FCF7DEFDF86008E0FCF7DAFD6D
:10B710000246FB68D31A302B01D9032317E07B685C
:10B720001B68DB68002BF1D17B681B681A697B689A
:10B73000DB689A4205D07B681B687A68D2681A6118
:10B7400004E07B681B684AF6AA221A6000231846A8
:10B750001037BD4680BD80B483B000AF78607B6891
:10B760001B684AF6AA221A60002318460C37BD4609
:10B770005DF8047B7047000080B400AF054A054BBC
:10B780001B6843F48073136000BFBD465DF8047B03
:10B79000704700BF0070004080B582B000AF00234A
:10B7A0007B60234A224B1B6C43F080531364204B75
:10B7B0001B6C03F080533B603B681E4A1D4B1B68AB
:10B7C00043F480331360FCF77DFD786009E0FCF7FB
:10B7D00079FD02467B68D31AB3F57A7F01D903233A
:10B7E00022E0144B5B6803F48033B3F5803FEED165
:10B7F000104A104B1B6843F400331360FCF762FDE2
:10B80000786009E0FCF75EFD02467B68D31AB3F569
:10B810007A7F01D9032307E0064B5B6803F400330A
:10B82000B3F5003FEED1002318460837BD4680BD72
:10B83000003802400070004080B586B000AF7860EC
:10B840000023FB757B68002B01D1012391E27B680B
:10B850001B6803F00103002B00F08780964B9B6868
:10B8600003F00C03042B0CD0934B9B6803F00C03E8
:10B87000082B12D1904B5B6803F48003B3F5800F63
:10B880000BD18D4B1B6803F40033002B6CD07B680D
:10B890005B68002B68D101236BE27B685B68B3F5C2
:10B8A000803F06D1844A844B1B6843F48033136085
:10B8B0002EE07B685B68002B0CD17F4A7E4B1B68B7
:10B8C00023F4803313607C4A7B4B1B6823F4802372
:10B8D00013601DE07B685B68B3F5A02F0CD1764A3E
:10B8E000754B1B6843F480231360734A724B1B68CB
:10B8F00043F4803313600BE06F4A6F4B1B6823F4F3
:10B90000803313606C4A6C4B1B6823F480231360F4
:10B910007B685B68002B13D0FCF7D4FC386108E02F
:10B92000FCF7D0FC02463B69D31A642B01D90323F0
:10B930001FE2614B1B6803F40033002BF0D014E0CE
:10B94000FCF7C0FC386108E0FCF7BCFC02463B6930
:10B95000D31A642B01D903230BE2574B1B6803F462
:10B960000033002BF0D100E000BF7B681B6803F0C0
:10B970000203002B69D0504B9B6803F00C03002B93
:10B980000BD04D4B9B6803F00C03082B1CD14A4B8A
:10B990005B6803F48003002B16D1474B1B6803F050
:10B9A0000203002B05D07B68DB68012B01D001234B
:10B9B000DFE14149404B1B6823F0F8027B681B69BB
:10B9C000DB0013430B6040E07B68DB68002B23D077
:10B9D000394A394B1B6843F001031360FCF772FCD2
:10B9E000386108E0FCF76EFC02463B69D31A022B73
:10B9F00001D90323BDE1304B1B6803F00203002B88
:10BA0000F0D02D492C4B1B6823F0F8027B681B6992
:10BA1000DB0013430B6018E0274A274B1B6823F019
:10BA200001031360FCF74EFC386108E0FCF74AFCA8
:10BA300002463B69D31A022B01D9032399E11E4B1D
:10BA40001B6803F00203002BF0D17B681B6803F036
:10BA50000803002B38D07B685B69002B19D0164A8D
:10BA6000154B5B6F43F001035367FCF72BFC386108
:10BA700008E0FCF727FC02463B69D31A022B01D9E8
:10BA8000032376E10C4B5B6F03F00203002BF0D035
:10BA90001AE0094A084B5B6F23F001035367FCF778
:10BAA00011FC38610AE0FCF70DFC02463B69D31A31
:10BAB000022B03D903235CE100380240914B5B6FFA
:10BAC00003F00203002BEED17B681B6803F0040334
:10BAD000002B00F0A4808B4B1B6C03F08053002BD9
:10BAE0000DD1884A874B1B6C43F080531364854B00
:10BAF0001B6C03F08053BB60BB680123FB75824B5A
:10BB00001B6803F48073002B18D17F4A7E4B1B689F
:10BB100043F480731360FCF7D5FB386108E0FCF751
:10BB2000D1FB02463B69D31A642B01D9032320E1E0
:10BB3000754B1B6803F48073002BF0D07B689B6807
:10BB4000012B06D16F4A6F4B1B6F43F00103136744
:10BB50002DE07B689B68002B0CD16A4A694B1B6FF8
:10BB600023F001031367674A664B1B6F23F004033E
:10BB700013671CE07B689B68052B0CD1614A614B05
:10BB80001B6F43F0040313675E4A5E4B1B6F43F069
:10BB9000010313670BE05B4A5A4B1B6F23F0010351
:10BBA0001367584A574B1B6F23F0040313677B68D6
:10BBB0009B68002B15D0FCF785FB38610AE0FCF789
:10BBC00081FB02463B69D31A41F28832934201D984
:10BBD0000323CEE04B4B1B6F03F00203002BEED090
:10BBE00014E0FCF76FFB38610AE0FCF76BFB0246E0
:10BBF0003B69D31A41F28832934201D90323B8E05A
:10BC0000404B1B6F03F00203002BEED1FB7D012B99
:10BC100005D13C4A3B4B1B6C23F0805313647B687B
:10BC20009B69002B00F0A480364B9B6803F00C034B
:10BC3000082B6BD07B689B69022B49D1314A314B71
:10BC40001B6823F080731360FCF73CFB386108E04D
:10BC5000FCF738FB02463B69D31A022B01D90323B8
:10BC600087E0284B1B6803F00073002BF0D12549B7
:10BC70007B68DA697B681B6A1A437B685B6A9B0195
:10BC80001A437B689B6A5B08013B1B041A437B6871
:10BC9000DB6A1B06134343F000534B60194A194BF0
:10BCA0001B6843F080731360FCF70CFB386108E0FD
:10BCB000FCF708FB02463B69D31A022B01D9032388
:10BCC00057E0104B1B6803F00073002BF0D04FE0DF
:10BCD0000C4A0C4B1B6823F080731360FCF7F2FADC
:10BCE000386108E0FCF7EEFA02463B69D31A022BF2
:10BCF00001D903233DE0034B1B6803F00073002BC5
:10BD0000F0D135E000380240007000401B4B5B680A
:10BD1000FB607B689B69012B28D0FB6803F48002E1
:10BD20007B68DB699A4221D1FB6803F03F027B68A4
:10BD30001B6A9A421AD1FA6847F6C07313407A68B0
:10BD4000526A9201934211D1FB6803F440327B683E
:10BD50009B6A5B08013B1B049A4207D1FB6803F016
:10BD600070627B68DB6A1B069A4201D0012300E007
:10BD7000002318461837BD4680BD00BF003802407A
:10BD800080B584B000AF786039600023FB607B68C9
:10BD9000002B01D10123D0E06A4B1B6803F00F0296
:10BDA0003B689A4210D26749664B1B6823F00F022A
:10BDB0003B6813430B60634B1B6803F00F023B6847
:10BDC0009A4201D00123B8E07B681B6803F00203AC
:10BDD000002B20D07B681B6803F00403002B05D0E8
:10BDE000594A594B9B6843F4E05393607B681B6846
:10BDF00003F00803002B05D0534A534B9B6843F4D0
:10BE0000604393605049504B9B6823F0F0027B687D
:10BE10009B6813438B607B681B6803F00103002B56
:10BE200040D07B685B68012B07D1474B1B6803F44C
:10BE30000033002B15D101237FE07B685B68022B68
:10BE400007D1414B1B6803F00073002B09D101237C
:10BE500073E03D4B1B6803F00203002B01D101236B
:10BE60006BE03949384B9B6823F003027B685B68C1
:10BE700013438B60FCF726FAF8600AE0FCF722FA1D
:10BE80000246FB68D31A41F28832934201D9032358
:10BE900053E02D4B9B6803F00C027B685B689B00B2
:10BEA0009A42EBD1274B1B6803F00F023B689A4282
:10BEB00010D92449234B1B6823F00F023B6813431E
:10BEC0000B60204B1B6803F00F023B689A4201D0C5
:10BED000012332E07B681B6803F00403002B08D0C9
:10BEE0001949194B9B6823F4E0527B68DB681343C4
:10BEF0008B607B681B6803F00803002B09D0124994
:10BF0000114B9B6823F460427B681B69DB00134381
:10BF10008B6000F021F801460B4B9B681B0903F076
:10BF20000F030A4AD35C21FA03F3094A1360094B51
:10BF30001B681846FCF782F9002318461037BD46E7
:10BF400080BD00BF003C024000380240E01C0108F8
:10BF5000C0000120C40001202DE9F04F87B000AFE0
:10BF60000022FA6000227A610022BA6000223A615F
:10BF7000514A926802F00C02042A07D0082A08D01D
:10BF8000002A40F090804D4B3B618FE04C4B3B6171
:10BF90008CE0494A526802F03F02FA60464A526811
:10BFA00002F48002002A23D0434B5B689B094FF0C8
:10BFB000000440F2FF114FF0000203EA010304EA1B
:10BFC00002043F4A02FB04F1002202FB03F20A448E
:10BFD0003B49A3FB010153181946FB684FF00004CD
:10BFE0001A462346F4F7FCFD03460C467B614CE001
:10BFF000314A5268920911464FF0000240F2FF1593
:10C000004FF0000605EA010506EA02062946324617
:10C010004FEA421B4BEAD16B4FEA411A51465A464E
:10C02000AA46B34655465E464D1B62EB06062946B8
:10C030003246940144EA91648B015B1A64EB02047A
:10C040004FEAC40949EA53794FEAC30843464C46CC
:10C0500055465E46ED1846EB04062B463446A202D2
:10C060007A607A6842EA93527A609B023B6097E872
:10C07000180018462146FB684FF000041A46234674
:10C08000F4F7AEFD03460C467B610B4B5B681B0C63
:10C0900003F0030301335B00BB607A69BB68B2FB4A
:10C0A000F3F33B6102E0054B3B6100BF3B6918467F
:10C0B0001C37BD46BDE8F08F003802400024F40074
:10C0C000001BB70080B400AF034B1B681846BD4689
:10C0D0005DF8047B704700BFC000012080B500AF51
:10C0E000FFF7F0FF0146054B9B689B0A03F007032F
:10C0F000034AD35C21FA03F3184680BD003802409E
:10C10000F01C010880B500AFFFF7DCFF0146054BCE
:10C110009B685B0B03F00703034AD35C21FA03F32C
:10C12000184680BD00380240F01C010880B588B078
:10C1300000AF786000237B6100233B610023FB603C
:10C140000023FB610023BB617B681B6803F00103D4
:10C15000002B12D0694A694B9B6823F4000393605B
:10C160006649664B9A687B685B6B13438B607B68A0
:10C170005B6B002B01D10123FB617B681B6803F41F
:10C180000023002B17D05D495C4BD3F88C3023F48F
:10C1900040127B68DB6B1343C1F88C307B68DB6B30
:10C1A000B3F5801F01D10123FB617B68DB6B002BA2
:10C1B00001D10123BB617B681B6803F48013002B52
:10C1C00017D04E494D4BD3F88C3023F440027B6896
:10C1D0001B6C1343C1F88C307B681B6CB3F5800F6C
:10C1E00001D10123FB617B681B6C002B01D1012372
:10C1F000BB617B681B6803F08073002B01D00123B7
:10C20000FB617B681B6803F02003002B00F08B8030
:10C210003A4A3A4B1B6C43F080531364374B1B6C08
:10C2200003F08053BB60BB68354A354B1B6843F451
:10C2300080731360FCF746F8786108E0FCF742F879
:10C2400002467B69D31A642B01D9032355E32C4B97
:10C250001B6803F48073002BF0D0284B1B6F03F492
:10C2600040733B613B69002B35D07B681B6B03F44B
:10C2700040723B699A422ED0204B1B6F23F44073CF
:10C280003B611E4A1D4B1B6F43F4803313671B4AEF
:10C290001A4B1B6F23F480331367184A3B691367EB
:10C2A000164B1B6F03F00103012B14D1FCF70AF8A6
:10C2B00078610AE0FCF706F802467B69D31A41F27E
:10C2C0008832934201D9032317E30C4B1B6F03F011
:10C2D0000203002BEED07B681B6B03F44073B3F5B5
:10C2E000407F11D10548054B9B6823F4F8127B6809
:10C2F000196B044B0B40134383600BE00038024082
:10C3000000700040FFFCFF0FB04AB04B9B6823F465
:10C31000F8139360AD49AD4B1A6F7B681B6BC3F389
:10C320000B0313430B677B681B6803F01003002BA0
:10C3300010D0A64AA54BD3F88C3023F08073C2F8F6
:10C340008C30A249A14BD3F88C207B689B6B1343A4
:10C35000C1F88C307B681B6803F48043002B0AD043
:10C360009A499A4BD3F8903023F440327B685B6E45
:10C370001343C1F890307B681B6803F40043002B23
:10C380000AD09249914BD3F8903023F440227B6835
:10C390009B6E1343C1F890307B681B6803F48033B5
:10C3A000002B0AD08949894BD3F8903023F44012EE
:10C3B0007B68DB6E1343C1F890307B681B6803F425
:10C3C0000033002B0AD08149804BD3F8903023F4FE
:10C3D00040027B681B6F1343C1F890307B681B6879
:10C3E00003F04003002B0AD07849784BD3F8903003
:10C3F00023F003027B685B6C1343C1F890307B68C9
:10C400001B6803F08003002B0AD070496F4BD3F8F0
:10C41000903023F00C027B689B6C1343C1F8903082
:10C420007B681B6803F48073002B0AD06749674B55
:10C43000D3F8903023F030027B68DB6C1343C1F8F3
:10C4400090307B681B6803F40073002B0AD05F49AF
:10C450005E4BD3F8903023F0C0027B681B6D134312
:10C46000C1F890307B681B6803F48063002B0AD00E
:10C470005649564BD3F8903023F440727B685B6D7D
:10C480001343C1F890307B681B6803F40063002BF2
:10C490000AD04E494D4BD3F8903023F440627B686C
:10C4A0009B6D1343C1F890307B681B6803F4805385
:10C4B000002B0AD04549454BD3F8903023F4405225
:10C4C0007B68DB6D1343C1F890307B681B6803F415
:10C4D0000053002B0AD03D493C4BD3F8903023F455
:10C4E00040427B681B6E1343C1F890307B681B6829
:10C4F00003F48003002B0AD03449344BD3F8903036
:10C5000023F080627B689B6F1343C1F890307B6897
:10C510001B6803F40013002B11D02C492B4BD3F8CC
:10C52000903023F000627B68DB6F1343C1F89030DA
:10C530007B68DB6FB3F1006F01D10123BB617B68C6
:10C540001B6803F00803002B01D00123BB617B684B
:10C550001B6803F48023002B0AD01C491B4BD3F823
:10C56000903023F040727B685B6F1343C1F89030CA
:10C570007B681B6803F40003002B0BD01349134B9B
:10C58000D3F8903023F080527B68D3F88030134387
:10C59000C1F89030FB69012B05D07B681B68B3F1B3
:10C5A000007F40F0D880094A084B1B6823F0806365
:10C5B0001360FBF787FE78610AE0FBF783FE024613
:10C5C0007B69D31A642B03D9032396E10038024018
:10C5D0006C4B1B6803F00063002BEED17B681B687B
:10C5E00003F00103002B21D07B685B6B002B1DD176
:10C5F000644BD3F884301B0C03F003033B61614BA5
:10C60000D3F884301B0E03F00F03FB605D497B6899
:10C610005B689A013B691B041A43FB681B061A43BB
:10C620007B689B681B071343C1F884307B681B68D9
:10C6300003F40023002B04D07B68DB6BB3F5801F71
:10C640000AD07B681B6803F48013002B2ED07B6814
:10C650001B6CB3F5800F29D14A4BD3F884301B0CE7
:10C6600003F003033B61474BD3F884301B0F03F007
:10C670000703FB6043497B685B689A013B691B04C5
:10C680001A437B68DB681B061A43FB681B071343CE
:10C69000C1F884303B493B4BD3F88C3023F01F0268
:10C6A0007B685B6A013B1343C1F88C307B681B6875
:10C6B00003F08073002B1DD0324BD3F884301B0E57
:10C6C00003F00F033B612F4BD3F884301B0F03F0B3
:10C6D0000703FB602B497B685B689A017B681B69D9
:10C6E0001B041A433B691B061A43FB681B071343D1
:10C6F000C1F884307B681B6803F00073002B11D0F5
:10C7000020497B685B689A017B681B691B041A439C
:10C710007B68DB681B061A437B689B681B07134317
:10C72000C1F88430174A174B1B6843F080631360CD
:10C73000FBF7C8FD786108E0FBF7C4FD02467B69A2
:10C74000D31A642B01D90323D7E00E4B1B6803F0E7
:10C750000063002BF0D0BB69012B40F0CD80094A6B
:10C76000084B1B6823F080531360FBF7ABFD786127
:10C770000AE0FBF7A7FD02467B69D31A642B03D9B5
:10C780000323BAE0003802405E4B1B6803F00053FD
:10C79000B3F1005FEDD07B681B6803F40023002B2E
:10C7A00003D07B68DB6B002B09D07B681B6803F42C
:10C7B0008013002B2ED07B681B6C002B2AD1514B91
:10C7C000D3F888301B0C03F003033B614D4BD3F8C7
:10C7D00088301B0F03F00703FB604A497B685B69E5
:10C7E0009A013B691B041A437B689B691B061A4329
:10C7F000FB681B071343C1F888304249414BD3F80B
:10C800008C3023F4F8527B689B6A013B1B02134374
:10C81000C1F88C307B681B6803F40013002B22D016
:10C820007B68DB6FB3F1006F1DD1364BD3F88830D6
:10C830001B0E03F00F033B61324BD3F888301B0F04
:10C8400003F00703FB602F497B685B699A017B68F3
:10C850001B6A1B041A433B691B061A43FB681B0730
:10C860001343C1F888307B681B6803F00803002B72
:10C8700028D0244BD3F888301B0E03F00F033B6104
:10C88000204BD3F888301B0C03F00303FB601D49D9
:10C890007B685B699A01FB681B041A433B691B06B2
:10C8A0001A437B68DB691B071343C1F888301549BD
:10C8B000144BD3F88C3023F440327B68DB6A13438B
:10C8C000C1F88C300F4A0F4B1B6843F08053136044
:10C8D000FBF7F8FC786108E0FBF7F4FC02467B69A3
:10C8E000D31A642B01D9032307E0064B1B6803F01E
:10C8F0000053B3F1005FEFD1002318462037BD4647
:10C9000080BD00BF0038024080B588B000AF7860BD
:10C910007B681B685B68FB617B681B689B68BB610D
:10C92000BB6903F04003002B0ED1BB6903F0010388
:10C93000002B09D0FB6903F04003002B04D07B6877
:10C94000DB6C78689847CFE0BB6903F00203002BEB
:10C9500009D0FB6903F08003002B04D07B681B6DBA
:10C9600078689847C0E0BB6903F02003002B0AD128
:10C97000BB6903F04003002B05D1BB6903F480734E
:10C98000002B00F0B180FB6903F02003002B00F0C6
:10C99000AB80BB6903F04003002B23D07B6893F886
:10C9A0005D30DBB2032B11D07B681B6E43F00402B9
:10C9B0007B681A6600237B617B681B68DB687B6190
:10C9C0007B681B689B687B617B690BE000233B6194
:10C9D0007B681B68DB683B617B681B689B683B610D
:10C9E0003B6981E0BB6903F02003002B14D07B6816
:10C9F0001B6E43F001027B681A660023FB607B68B4
:10CA00001B689B68FB607B681B687A681268126809
:10CA100022F040021A60FB68BB6903F48073002BAC
:10CA20000CD07B681B6E43F008027B681A660023FB
:10CA3000BB607B681B689B68BB60BB687B681B6EC8
:10CA4000002B50D07B681B687A681268526822F00D
:10CA5000E0025A607B68012283F85D20FB6903F0E5
:10CA60000203002B04D1FB6903F00103002B34D037
:10CA70007B681B687A681268526822F003025A6069
:10CA80007B689B6D002B11D07B689B6D184A1A65E3
:10CA90007B689B6D1846FCF73BF80346002B05D0DE
:10CAA0007B681B6E43F040027B681A667B685B6D97
:10CAB000002B16D07B685B6D0D4A1A657B685B6D39
:10CAC0001846FCF725F80346002B0AD07B681B6E3E
:10CAD00043F040027B681A6603E0786800F00AF8C9
:10CAE00000E000BF00BF00BF2037BD4680BD00BFD3
:10CAF00009CB000880B483B000AF786000BF0C376A
:10CB0000BD465DF8047B704780B584B000AF7860A7
:10CB10007B689B6BFB60FB680022A3F84620FB68E8
:10CB20000022DA87F868FFF7E5FF00BF1037BD463F
:10CB300080BD80B582B000AF78607B68002B01D1EA
:10CB400001231DE07B6893F83D30DBB2002B06D15A
:10CB50007B68002283F83C207868FAF749FE7B68FE
:10CB6000022283F83D207B681A687B6804331946EB
:10CB7000104600F0EFFA7B68012283F83D20002385
:10CB800018460837BD4680BD80B485B000AF7860D8
:10CB90007B681B687A681268D26842F00102DA602A
:10CBA0007B681B689A680C4B1340FB60FB68062B84
:10CBB0000BD0FB68B3F5803F07D07B681B687A68B1
:10CBC0001268126842F001021A60002318461437F6
:10CBD000BD465DF8047B70470700010080B582B058
:10CBE00000AF78607B68002B01D101231DE07B68DA
:10CBF00093F83D30DBB2002B06D17B68002283F82E
:10CC00003C207868FAF778FD7B68022283F83D20A3
:10CC10007B681A687B6804331946104600F09AFA5C
:10CC20007B68012283F83D20002318460837BD4663
:10CC300080BD000080B584B000AF786039607B684B
:10CC40001B6801223968184600F082FD7B681B686A
:10CC5000174A934204D07B681B68164A934201D15D
:10CC6000012300E00023002B07D07B681B687A6853
:10CC70001268526C42F400425A647B681B689A68DE
:10CC80000D4B1340FB60FB68062B0BD0FB68B3F524
:10CC9000803F07D07B681B687A681268126842F090
:10CCA00001021A60002318461037BD4680BD00BF40
:10CCB00000000140000401400700010080B582B07F
:10CCC00000AF78607B681B681B6903F00203022BCE
:10CCD00022D17B681B68DB6803F00203022B1BD1A7
:10CCE0007B681B686FF002021A617B6801221A7769
:10CCF0007B681B689B6903F00303002B03D07868F3
:10CD000000F014FA05E07868FAF70CFA7868FAF798
:10CD10001DFA7B6800221A777B681B681B6903F089
:10CD20000403042B22D17B681B68DB6803F0040337
:10CD3000042B1BD17B681B686FF004021A617B68AF
:10CD400002221A777B681B689B6903F44073002BEF
:10CD500003D0786800F0EAF905E07868FAF7E2F9BC
:10CD60007868FAF7F3F97B6800221A777B681B680A
:10CD70001B6903F00803082B22D17B681B68DB6862
:10CD800003F00803082B1BD17B681B686FF00802B7
:10CD90001A617B6804221A777B681B68DB6903F0E1
:10CDA0000303002B03D0786800F0C0F905E0786831
:10CDB000FAF7B8F97868FAF7C9F97B6800221A77A8
:10CDC0007B681B681B6903F01003102B22D17B6862
:10CDD0001B68DB6803F01003102B1BD17B681B68FA
:10CDE0006FF010021A617B6808221A777B681B6853
:10CDF000DB6903F44073002B03D0786800F096F9E8
:10CE000005E07868FAF78EF97868FAF79FF97B6899
:10CE100000221A777B681B681B6903F00103012B52
:10CE20000ED17B681B68DB6803F00103012B07D17F
:10CE30007B681B686FF001021A617868FAF77CF969
:10CE40007B681B681B6903F08003802B0ED17B6815
:10CE50001B68DB6803F08003802B07D17B681B68AD
:10CE60006FF080021A61786800F030FD7B681B6803
:10CE70001B6903F48073B3F5807F0ED17B681B6858
:10CE8000DB6803F08003802B07D17B681B686FF49D
:10CE900080721A61786800F023FD7B681B681B694B
:10CEA00003F04003402B0ED17B681B68DB6803F066
:10CEB0004003402B07D17B681B686FF040021A616A
:10CEC000786800F03DF97B681B681B6903F020035C
:10CED000202B0ED17B681B68DB6803F02003202B1E
:10CEE00007D17B681B686FF020021A61786800F038
:10CEF000E3FC00BF0837BD4680BD000080B584B0AC
:10CF000000AFF860B9607A60FB6893F83C30012BA1
:10CF100001D1022305E1FB68012283F83C20FB6874
:10CF2000022283F83D207B68142B00F2F08001A2DE
:10CF300052F823F089CF00080FD100080FD1000864
:10CF40000FD10008C9CF00080FD100080FD1000889
:10CF50000FD100080BD000080FD100080FD1000836
:10CF60000FD100084BD000080FD100080FD10008E6
:10CF70000FD100088DD000080FD100080FD1000894
:10CF80000FD10008CDD00008FB681B68B9681846AF
:10CF900000F080F9FB681B68FA681268926942F039
:10CFA00008029A61FB681B68FA681268926922F0AD
:10CFB00004029A61FB681B68FA6812689169BA6892
:10CFC00012690A439A61A3E0FB681B68B9681846B6
:10CFD00000F0D2F9FB681B68FA681268926942F4A3
:10CFE00000629A61FB681B68FA681268926922F411
:10CFF00080629A61FB681B68FA6812689169BA6876
:10D00000126912020A439A6182E0FB681B68B968E0
:10D01000184600F029FAFB681B68FA681268D269A2
:10D0200042F00802DA61FB681B68FA681268D2698C
:10D0300022F00402DA61FB681B68FA681268D169A1
:10D04000BA6812690A43DA6162E0FB681B68B96872
:10D05000184600F07FFAFB681B68FA681268D2690C
:10D0600042F40062DA61FB681B68FA681268D269F0
:10D0700022F48062DA61FB681B68FA681268D16981
:10D08000BA68126912020A43DA6141E0FB681B6860
:10D09000B968184600F0B6FAFB681B68FA681268AF
:10D0A000526D42F008025A65FB681B68FA68126804
:10D0B000526D22F004025A65FB681B68FA68126818
:10D0C000516DBA6812690A435A6521E0FB681B6812
:10D0D000B968184600F0E8FAFB681B68FA6812683D
:10D0E000526D42F400625A65FB681B68FA68126868
:10D0F000526D22F480625A65FB681B68FA681268F8
:10D10000516DBA68126912020A435A6500E000BF05
:10D11000FB68012283F83D20FB68002283F83C2055
:10D12000002318461037BD4680BD00BF80B483B0D1
:10D1300000AF786000BF0C37BD465DF8047B7047D8
:10D1400080B483B000AF786000BF0C37BD465DF897
:10D15000047B704780B485B000AF786039607B682D
:10D160001B68FB607B68404A934213D07B68B3F135
:10D17000804F0FD07B683D4A93420BD07B683C4A7E
:10D18000934207D07B683B4A934203D07B683A4A7C
:10D19000934208D1FB6823F07003FB603B685B6837
:10D1A000FA681343FB607B682F4A93422BD07B685D
:10D1B000B3F1804F27D07B682C4A934223D07B6801
:10D1C0002B4A93421FD07B682A4A93421BD07B682C
:10D1D000294A934217D07B68284A934213D07B6830
:10D1E000274A93420FD07B68264A93420BD07B6834
:10D1F000254A934207D07B68244A934203D07B6838
:10D20000234A934208D1FB6823F44073FB603B68D8
:10D21000DB68FA681343FB60FB6823F080023B681D
:10D220005B691343FB607B68FA681A603B689A6825
:10D230007B68DA623B681A687B689A627B680A4A94
:10D24000934203D07B680C4A934203D13B681A692E
:10D250007B681A637B6801225A6100BF1437BD46A0
:10D260005DF8047B704700BF0000014000040040EF
:10D2700000080040000C0040000401400040014054
:10D28000004401400048014000180040001C0040DC
:10D290000020004080B487B000AF786039607B68C0
:10D2A0001B6A23F001027B681A627B681B6A7B6140
:10D2B0007B685B683B617B689B69FB60FA682B4B12
:10D2C0001340FB60FB6823F00303FB603B681B68B3
:10D2D000FA681343FB607B6923F002037B613B68C0
:10D2E0009B687A6913437B617B68214A934203D030
:10D2F0007B68204A93420CD17B6923F008037B6151
:10D300003B68DB687A6913437B617B6923F0040324
:10D310007B617B68164A934203D07B68154A93422F
:10D3200011D13B6923F480733B613B6923F40073A3
:10D330003B613B685B693A6913433B613B689B69AE
:10D340003A6913433B617B683A695A607B68FA68C3
:10D350009A613B685A687B685A637B687A691A628B
:10D3600000BF1C37BD465DF8047B70478FFFFEFF92
:10D37000000001400004014080B487B000AF786035
:10D3800039607B681B6A23F010027B681A627B6835
:10D390001B6A7B617B685B683B617B689B69FB60A8
:10D3A000FA682E4B1340FB60FB6823F44073FB606C
:10D3B0003B681B681B02FA681343FB607B6923F020
:10D3C00020037B613B689B681B017A6913437B6187
:10D3D0007B68234A934203D07B68224A93420DD153
:10D3E0007B6923F080037B613B68DB681B017A6902
:10D3F00013437B617B6923F040037B617B68184AA0
:10D40000934203D07B68174A934213D13B6923F4BC
:10D4100080633B613B6923F400633B613B685B696C
:10D420009B003A6913433B613B689B699B003A69E7
:10D4300013433B617B683A695A607B68FA689A617A
:10D440003B685A687B689A637B687A691A6200BF96
:10D450001C37BD465DF8047B704700BFFF8FFFFEA1
:10D46000000001400004014080B487B000AF786044
:10D4700039607B681B6A23F480727B681A627B6860
:10D480001B6A7B617B685B683B617B68DB69FB6077
:10D49000FA682D4B1340FB60FB6823F00303FB602D
:10D4A0003B681B68FA681343FB607B6923F40073D5
:10D4B0007B613B689B681B027A6913437B617B68D5
:10D4C000224A934203D07B68214A93420DD17B6963
:10D4D00023F400637B613B68DB681B027A691343BA
:10D4E0007B617B6923F480637B617B68174A93428D
:10D4F00003D07B68164A934213D13B6923F48053CF
:10D500003B613B6923F400533B613B685B691B0152
:10D510003A6913433B613B689B691B013A691343BA
:10D520003B617B683A695A607B68FA68DA613B68FC
:10D530005A687B68DA637B687A691A6200BF1C37B5
:10D54000BD465DF8047B70478FFFFEFF0000014081
:10D550000004014080B487B000AF786039607B6818
:10D560001B6A23F480527B681A627B681B6A3B61EA
:10D570007B685B687B617B68DB69FB60FA681E4BDC
:10D580001340FB60FB6823F44073FB603B681B683F
:10D590001B02FA681343FB603B6923F400533B61B1
:10D5A0003B689B681B033A6913433B617B68134AE2
:10D5B000934203D07B68124A934209D17B6923F4DA
:10D5C00080437B613B685B699B017A6913437B61A4
:10D5D0007B687A695A607B68FA68DA613B685A68E6
:10D5E0007B681A647B683A691A6200BF1C37BD46C3
:10D5F0005DF8047B704700BFFF8FFFFE0000014015
:10D600000004014080B487B000AF786039607B6867
:10D610001B6A23F480327B681A627B681B6A3B6159
:10D620007B685B687B617B685B6DFB60FA681B4BAA
:10D630001340FB603B681B68FA681343FB603B695F
:10D6400023F400333B613B689B681B043A69134336
:10D650003B617B68124A934203D07B68114A934234
:10D6600009D17B6923F480337B613B685B691B02D2
:10D670007A6913437B617B687A695A607B68FA68D0
:10D680005A653B685A687B689A657B683A691A6292
:10D6900000BF1C37BD465DF8047B70478FFFFEFF5F
:10D6A000000001400004014080B487B000AF786002
:10D6B00039607B681B6A23F480127B681A627B687E
:10D6C0001B6A3B617B685B687B617B685B6DFB60B1
:10D6D000FA681C4B1340FB603B681B681B02FA682E
:10D6E0001343FB603B6923F400133B613B689B6879
:10D6F0001B053A6913433B617B68134A934203D08D
:10D700007B68124A934209D17B6923F480237B61B1
:10D710003B685B699B027A6913437B617B687A692A
:10D720005A607B68FA685A653B685A687B68DA65B4
:10D730007B683A691A6200BF1C37BD465DF8047BFE
:10D74000704700BFFF8FFFFE000001400004014052
:10D7500080B487B000AFF860B9607A60BB6803F04E
:10D760001F03012202FA03F37B61FB681A6A7B69DB
:10D77000DB431A40FB681A62FB681A6ABB6803F055
:10D780001F03796801FA03F31A43FB681A6200BFAA
:10D790001C37BD465DF8047B7047000080B485B03F
:10D7A00000AF786039607B6893F83C30012B01D181
:10D7B00002236DE07B68012283F83C207B68022213
:10D7C00083F83D207B681B685B68FB607B681B6897
:10D7D0009B68BB607B681B68304A934204D07B68BF
:10D7E0001B682F4A934208D1FB6823F47003FB6047
:10D7F0003B685B68FA681343FB60FB6823F07003C7
:10D80000FB603B681B68FA681343FB607B681B681E
:10D81000FA685A607B681B68204A934222D07B6872
:10D820001B68B3F1804F1DD07B681B681D4A934273
:10D8300018D07B681B681C4A934213D07B681B6816
:10D840001A4A93420ED07B681B68154A934209D04E
:10D850007B681B68164A934204D07B681B68154A94
:10D8600093420CD1BB6823F08003BB603B689B688C
:10D87000BA681343BB607B681B68BA689A607B68B0
:10D88000012283F83D207B68002283F83C2000239E
:10D8900018461437BD465DF8047B70470000014010
:10D8A000000401400004004000080040000C00405B
:10D8B000004001400018004080B483B000AF7860A1
:10D8C00000BF0C37BD465DF8047B704780B483B061
:10D8D00000AF786000BF0C37BD465DF8047B704731
:10D8E00080B483B000AF786000BF0C37BD465DF8F0
:10D8F000047B704780B582B000AF78607B68002BF6
:10D9000001D1012340E07B685B6F002B06D17B686F
:10D91000002283F870207868FAF78EFA7B68242258
:10D920005A677B681B687A681268126822F00102E5
:10D930001A60786800F0F2FA0346012B01D1012346
:10D9400022E07B685B6A002B02D0786800F090FDD3
:10D950007B681B687A681268526822F490425A60A9
:10D960007B681B687A681268926822F02A029A60C3
:10D970007B681B687A681268126842F001021A60BC
:10D98000786800F017FE034618460837BD4680BD8C
:10D9900080B58AB002AFF860B9603B601346FB8087
:10D9A000FB685B6F202B7ED1BB68002B02D0FB880D
:10D9B000002B01D1012377E0FB6893F87030012B35
:10D9C00001D1022370E0FB68012283F87020FB681C
:10D9D0000022DA67FB6821225A67FAF773FC786144
:10D9E000FB68FA88A3F85020FB68FA88A3F8522055
:10D9F000FB689B68B3F5805F08D1FB681B69002B4F
:10DA000004D10023FB61BB68BB6103E0BB68FB6121
:10DA10000023BB61FB68002283F870202BE03B6889
:10DA200000937B6900228021F86800F0F2FD034634
:10DA3000002B01D0032337E0FB69002B0AD1FB68E0
:10DA40001B68BA691288C2F308029A62BB69023382
:10DA5000BB6107E0FB681B68FA6912789A62FB6990
:10DA60000133FB61FB68B3F852309BB2013B9AB2C1
:10DA7000FB68A3F85220FB68B3F852309BB2002B2E
:10DA8000CDD13B6800937B6900224021F86800F00B
:10DA9000C0FD0346002B01D0032305E0FB682022D4
:10DAA0005A67002300E0022318462037BD4680BD98
:10DAB00080B584B000AFF860B9601346FB80FB68A6
:10DAC0009B6F202B6CD1BB68002B02D0FB88002BF6
:10DAD00001D1012365E0FB6893F87030012B01D17F
:10DAE00002235EE0FB68012283F87020FB68BA68BD
:10DAF0005A65FB68FA88A3F85820FB680022DA67A9
:10DB0000FB6822229A67FB68DB6E002B2AD0FB6839
:10DB1000DB6E264ADA63FB68DB6E254A1A64FB6813
:10DB2000DB6E244ADA64FB68DB6E00221A65FB6850
:10DB3000D86EFB681B6824331946FB685B6D1A4678
:10DB4000FB88FAF715FF0346002B0BD0FB68102269
:10DB5000DA67FB68002283F87020FB6820225A678E
:10DB600001231EE0FB68002283F87020FB681B681D
:10DB7000FA681268126842F480721A60FB681B68C7
:10DB8000FA681268926842F001029A60FB681B68AA
:10DB9000FA681268926842F040029A60002300E03E
:10DBA000022318461037BD4680BD00BF73E700084A
:10DBB000D7E70008F3E7000880B584B000AF7860CD
:10DBC0007B685B6FFB607B689B6FBB607B681B68DF
:10DBD0009B6803F08003802B26D1FB68212B23D187
:10DBE0007B681B687A681268926822F080029A60EB
:10DBF0007B689B6E002B14D07B689B6E1846FAF7EF
:10DC000017FF0346002B0CD07B689B6E1846FBF772
:10DC10002BF90346202B04D17B681022DA670323FB
:10DC200031E0786800F070FD7B681B689B6803F04A
:10DC30004003402B26D1BB68222B23D17B681B6875
:10DC40007A681268926822F040029A607B68DB6E04
:10DC5000002B14D07B68DB6E1846FAF7E9FE03460A
:10DC6000002B0CD07B68DB6E1846FBF7FDF80346F3
:10DC7000202B04D17B681022DA67032303E0786845
:10DC800000F057FD002318461037BD4680BD000048
:10DC900080B588B000AF78607B681B68DB69FB618A
:10DCA0007B681B681B68BB617B681B689B687B612A
:10DCB000FA6940F60F0313403B613B69002B13D117
:10DCC000FB6903F02003002B0ED0BB6903F0200397
:10DCD000002B09D07B681B6E002B00F000817B6855
:10DCE0001B6E78689847FAE03B69002B00F0D580FE
:10DCF0007B6903F00103002B05D1BB6903F490732A
:10DD0000002B00F0CA80FB6903F00103002B0ED04A
:10DD1000BB6903F48073002B09D07B681B68012268
:10DD20001A627B68DB6F43F001027B68DA67FB698C
:10DD300003F00203002B0ED07B6903F00103002BDC
:10DD400009D07B681B6802221A627B68DB6F43F094
:10DD500004027B68DA67FB6903F00403002B0ED032
:10DD60007B6903F00103002B09D07B681B68042248
:10DD70001A627B68DB6F43F002027B68DA67FB693B
:10DD800003F00803002B13D0BB6903F02003002B22
:10DD900004D17B6903F00103002B09D07B681B6869
:10DDA00008221A627B68DB6F43F008027B68DA673F
:10DDB000FB6903F40063002B0FD0BB6903F08063A1
:10DDC000002B0AD07B681B684FF400621A627B68E4
:10DDD000DB6F43F020027B68DA677B68DB6F002B28
:10DDE0007FD0FB6903F02003002B0CD0BB6903F04C
:10DDF0002003002B07D07B681B6E002B03D07B68B1
:10DE00001B6E786898477B68DB6FFB607B681B68DC
:10DE10009B6803F04003402B04D0FB6803F0280309
:10DE2000002B31D0786800F084FC7B681B689B680D
:10DE300003F04003402B23D17B681B687A6812688B
:10DE4000926822F040029A607B68DB6E002B13D050
:10DE50007B68DB6E264A1A657B68DB6E1846FAF72C
:10DE600057FE0346002B16D07B68DB6E1B6D7A686D
:10DE7000D26E104698470EE0786800F045F80AE048
:10DE8000786800F041F806E0786800F03DF87B68BB
:10DE90000022DA6725E000BF23E0FB6903F080037E
:10DEA000002B0DD0BB6903F08003002B08D07B68EA
:10DEB0005B6E002B17D07B685B6E7868984712E02A
:10DEC000FB6903F04003002B0ED0BB6903F0400355
:10DED000002B09D0786800F0DEFC00BF04E000BF32
:10DEE00002E000BF00E000BF2037BD4680BD00BF9C
:10DEF0006BE8000880B483B000AF786000BF0C37D7
:10DF0000BD465DF8047B704780B483B000AF786095
:10DF100000BF0C37BD465DF8047B704780B588B004
:10DF200000AF78600023BB610023FB757B689A68B3
:10DF30007B681B691A437B685B691A437B68DB69F2
:10DF400013433B617B681A687B681B681968B34B95
:10DF50000B4039690B4313607B681B687A68126851
:10DF6000526822F440517A68D2680A435A607B684A
:10DF70009B693B617B681B6A3A6913433B617B6821
:10DF80001B687A681268926822F430613A690A4321
:10DF90009A607B681B68A24A934221D1A14BD3F8B7
:10DFA000903003F00303032B16D801A252F823F09C
:10DFB000C1DF0008CDDF0008C7DF0008D3DF00089D
:10DFC0000123FB7750E10223FB774DE10423FB772C
:10DFD0004AE10823FB7747E11023FB7700BF43E1C9
:10DFE0007B681B68904A934234D18E4BD3F89030B3
:10DFF00003F00C030C2B29D801A252F823F000BF28
:10E0000035E000084DE000084DE000084DE0000854
:10E0100041E000084DE000084DE000084DE0000838
:10E020003BE000084DE000084DE000084DE000082E
:10E0300047E000080023FB7716E10223FB7713E19A
:10E040000423FB7710E10823FB770DE11023FB7716
:10E0500000BF09E17B681B68744A934220D1714B71
:10E06000D3F8903003F03003102B0FD0102B02D8D0
:10E07000002B05D010E0202B05D0302B09D00BE071
:10E080000023FB77F0E00223FB77EDE00423FB772E
:10E09000EAE00823FB77E7E01023FB7700BFE3E02B
:10E0A0007B681B68624A934220D15E4BD3F8903064
:10E0B00003F0C003402B0FD0402B02D8002B05D01B
:10E0C00010E0802B05D0C02B09D00BE00023FB779C
:10E0D000CAE00223FB77C7E00423FB77C4E00823F0
:10E0E000FB77C1E01023FB7700BFBDE07B681B68B6
:10E0F000504A934224D14B4BD3F8903003F44073F1
:10E10000B3F5807F12D0B3F5807F02D8002B07D003
:10E1100012E0B3F5007F06D0B3F5407F09D00BE0E5
:10E120000023FB77A0E00223FB779DE00423FB772D
:10E130009AE00823FB7797E01023FB7700BF93E07A
:10E140007B681B683C4A934224D1364BD3F890300D
:10E1500003F44063B3F5806F12D0B3F5806F02D83B
:10E16000002B07D012E0B3F5006F06D0B3F5406F77
:10E1700009D00BE00123FB7776E00223FB7773E005
:10E180000423FB7770E00823FB776DE01023FB7717
:10E1900000BF69E07B681B68284A934224D1214B69
:10E1A000D3F8903003F44053B3F5805F12D0B3F549
:10E1B000805F02D8002B07D012E0B3F5005F06D0D5
:10E1C000B3F5405F09D00BE00023FB774CE002235E
:10E1D000FB7749E00423FB7746E00823FB7743E025
:10E1E0001023FB7700BF3FE07B681B68144A934213
:10E1F00038D10C4BD3F8903003F44043B3F5804F43
:10E2000026D0B3F5804F02D8002B1BD026E0B3F503
:10E21000004F1AD0B3F5404F1DD01FE0F369FFEF58
:10E220000010014000380240004400400048004017
:10E23000004C0040005000400014014000780040B5
:10E24000007C00400023FB770EE00223FB770BE00D
:10E250000423FB7708E00823FB7705E01023FB7716
:10E2600000BF01E01023FB777B68DB69B3F5004F4B
:10E2700040F08080FB7F082B5CD801A252F823F08D
:10E28000A5E20008C5E20008E5E2000835E3000861
:10E29000FDE2000835E3000835E3000835E3000837
:10E2A0001DE30008FDF71AFFF860FB685A007B6861
:10E2B0005B685B081A447B685B68B2FBF3F39BB254
:10E2C000BB613AE0FDF71EFFF860FB685A007B680F
:10E2D0005B685B081A447B685B68B2FBF3F39BB234
:10E2E000BB612AE07B685B685A085F4B13447A681D
:10E2F0005268B3FBF2F39BB2BB611EE0FDF72CFE4C
:10E30000F860FB685A007B685B685B081A447B68AE
:10E310005B68B2FBF3F39BB2BB610EE07B685B68AA
:10E320005B0803F580327B685B68B2FBF3F39BB25A
:10E33000BB6102E00123FB7500BFBB690F2B16D93F
:10E34000BB69B3F5803F12D2BB699BB223F00F03C8
:10E350007B81BB695B089BB203F007039AB27B89A0
:10E3600013437B817B681B687A89DA6070E0012344
:10E37000FB756DE0FB7F082B59D801A252F823F002
:10E38000A5E30008C3E30008E1E300082FE4000868
:10E39000F9E300082FE400082FE400082FE4000848
:10E3A00017E40008FDF79AFEF8607B685B685A087E
:10E3B000FB681A447B685B68B2FBF3F39BB2BB61FA
:10E3C00038E0FDF79FFEF8607B685B685A08FB68E1
:10E3D0001A447B685B68B2FBF3F39BB2BB6129E034
:10E3E0007B685B685A08214B13447A685268B3FB18
:10E3F000F2F39BB2BB611DE0FDF7AEFDF8607B68F8
:10E400005B685A08FB681A447B685B68B2FBF3F3ED
:10E410009BB2BB610EE07B685B685B0803F5004262
:10E420007B685B68B2FBF3F39BB2BB6102E0012344
:10E43000FB7500BFBB690F2B08D9BB69B3F5803FE3
:10E4400004D27B681B68BA69DA6001E00123FB75BE
:10E450007B6800221A667B6800225A66FB7D18469C
:10E460002037BD4680BD00BF0048E8010024F4000D
:10E4700080B483B000AF78607B685B6A03F001030F
:10E48000002B0AD07B681B687A681268526822F4F5
:10E4900000317A68926A0A435A607B685B6A03F0CB
:10E4A0000203002B0AD07B681B687A6812685268E6
:10E4B00022F480317A68D26A0A435A607B685B6AC8
:10E4C00003F00403002B0AD07B681B687A6812688B
:10E4D000526822F480217A68126B0A435A607B6882
:10E4E0005B6A03F00803002B0AD07B681B687A681C
:10E4F0001268526822F400417A68526B0A435A60EB
:10E500007B685B6A03F01003002B0AD07B681B68F2
:10E510007A681268926822F480517A68926B0A4392
:10E520009A607B685B6A03F02003002B0AD07B684B
:10E530001B687A681268926822F400517A68D26B7C
:10E540000A439A607B685B6A03F04003002B1AD091
:10E550007B681B687A681268526822F480117A68B6
:10E56000126C0A435A607B681B6CB3F5801F0AD19A
:10E570007B681B687A681268526822F4C0017A6866
:10E58000526C0A435A607B685B6A03F08003002B7D
:10E590000AD07B681B687A681268526822F40021EE
:10E5A0007A68926C0A435A6000BF0C37BD465DF82A
:10E5B000047B704780B586B002AF78607B6800222C
:10E5C000DA67F9F77FFEF8607B681B681B6803F069
:10E5D0000803082B0ED16FF07E430093FB680022E6
:10E5E0004FF40011786800F014F80346002B01D0B6
:10E5F00003230AE07B6820225A677B6820229A67FF
:10E600007B68002283F87020002318461037BD462F
:10E6100080BD80B584B000AFF860B9603B60134640
:10E62000FB715DE0BB69B3F1FF3F59D0F9F74AFEDA
:10E6300002463B68D21ABB699A4202D8BB69002BDA
:10E640001BD1FB681B68FA681268126822F4D0724A
:10E650001A60FB681B68FA681268926822F001026F
:10E660009A60FB6820225A67FB6820229A67FB6841
:10E67000002283F87020032342E0FB681B681B68BC
:10E6800003F00403002B2BD0FB681B68DB6903F449
:10E690000063B3F5006F23D1FB681B684FF4006281
:10E6A0001A62FB681B68FA681268126822F4D0725A
:10E6B0001A60FB681B68FA681268926822F001020F
:10E6C0009A60FB6820225A67FB6820229A67FB68E1
:10E6D0002022DA67FB68002283F8702003230FE012
:10E6E000FB681B68DA69BB681A40BB689A420CBFBA
:10E6F00001230023DBB21A46FB799A4292D0002311
:10E7000018461037BD4680BD80B483B000AF786036
:10E710007B681B687A681268126822F0C0021A606F
:10E720007B6820225A6700BF0C37BD465DF8047B2A
:10E73000704780B483B000AF78607B681B687A68EC
:10E740001268126822F490721A607B681B687A68FB
:10E750001268926822F001029A607B6820229A6710
:10E760007B6800221A6600BF0C37BD465DF8047B4B
:10E77000704780B584B000AF78607B689B6BFB60AE
:10E780007B68DB69B3F5807F1ED0FB680022A3F8AD
:10E790005A20FB681B68FA681268126822F48072BB
:10E7A0001A60FB681B68FA681268926822F001021E
:10E7B0009A60FB681B68FA681268926822F040024F
:10E7C0009A60FB6820229A67F868F8F797FC00BF08
:10E7D0001037BD4680BD80B584B000AF78607B68DF
:10E7E0009B6BFB60F868FFF785FB00BF1037BD46E9
:10E7F00080BD80B586B000AF78607B689B6B7B6125
:10E800007B695B6F3B617B699B6FFB607B691B680E
:10E810009B6803F08003802B09D13B69212B06D133
:10E820007B690022A3F852207869FFF76DFF7B69AE
:10E830001B689B6803F04003402B09D1FB68222B27
:10E8400006D17B690022A3F85A207869FFF771FF8F
:10E850007B69DB6F43F010027B69DA677869FFF749
:10E8600053FB00BF1837BD4680BD80B584B000AFF4
:10E8700078607B689B6BFB60FB680022A3F85A20E2
:10E88000FB680022A3F85220F868FFF73DFB00BFA9
:10E890001037BD4680BD80B582B000AF78607B6820
:10E8A0001B687A681268126822F040021A607B685E
:10E8B00020225A677B6800225A667868F8F728FC9D
:10E8C00000BF0837BD4680BD80B483B000AF78601C
:10E8D0007B689B6843F001027B689A6000231846BE
:10E8E0000C37BD465DF8047B704780B483B000AF41
:10E8F00078607B689B6823F001027B689A60002344
:10E9000018460C37BD465DF8047B704780B485B06F
:10E9100000AF786039600023FB603B689B0143F0E7
:10E9200020027B681A61FB680133FB60FB68094ABF
:10E93000934201D9032306E07B681B6903F020039F
:10E94000202BF0D0002318461437BD465DF8047B19
:10E95000704700BF400D030080B485B000AF786001
:10E960000023FB607B6810221A61FB680133FB60A7
:10E97000FB68094A934201D9032306E07B681B69BF
:10E9800003F01003102BF0D0002318461437BD46B7
:10E990005DF8047B704700BF400D030080B489B070
:10E9A00000AFF860B9601346FB80FB687B61BB6811
:10E9B000FB61FB8803339B083B610023BB610BE0D9
:10E9C0007B6903F580531A68FB691A60FB6904339D
:10E9D000FB61BB690133BB61BA693B699A42EFD302
:10E9E000FB6918462437BD465DF8047B704780B448
:10E9F00085B000AF78607B685B69FB607B689B6972
:10EA0000FA681340FB60FB6818461437BD465DF892
:10EA1000047B704780B483B000AF78607B685B692B
:10EA200003F0010318460C37BD465DF8047B7047C0
:10EA300080B485B000AF78600B46FB707B68FB60EC
:10EA4000FB6803F580631A46FB6803F580631B6867
:10EA500023F003031360FB6803F580631946FB682A
:10EA600003F580631A68FB7803F0030313430B601C
:10EA7000FB78012B07D1FB6803F580631A464BF640
:10EA80008033536009E0FB78022B06D1FB6803F565
:10EA900080631A4641F2707353600023184614379E
:10EAA000BD465DF8047B704780B485B000AF7860E8
:10EAB0007B68FB60FB6803F580635B699BB218466B
:10EAC0001437BD465DF8047B704780B487B000AF53
:10EAD00078600B46FB707B683B61FB78FB60002332
:10EAE0007B61FB685A013B69134403F5A0631B6813
:10EAF0009B0C03F00303BB60BB68002B02D0BB6818
:10EB0000022B71D1FB685A013B69134403F5A063E2
:10EB10001946FB685A013B69134403F5A0631B685F
:10EB200043F080430B607B68DB6A03F47F03002BB8
:10EB300046D1FB685A013B69134403F5A0631946AB
:10EB4000FB685A013B69134403F5A0631B6823F07B
:10EB500000430B60FB685A013B69134403F5A06353
:10EB60001946FB685A013B69134403F5A0631B680F
:10EB700043F000430B60FB685A013B69134403F503
:10EB8000A0631946FB685A013B69134403F5A0636F
:10EB90001B6823F400430B607B6901337B617B6955
:10EBA000B3F57A7F1ED8FB685A013B69134403F51D
:10EBB000A0631B6803F00043B3F1004FECD086E084
:10EBC000FB685A013B69134403F5A0631946FB68CF
:10EBD0005A013B69134403F5A0631B6843F00043EB
:10EBE0000B6074E000BF72E0FB685A013B6913449C
:10EBF00003F5A0631946FB685A013B69134403F50A
:10EC0000A0631B6843F080430B603B6903F580639E
:10EC10001B6903F47F03002B46D1FB685A013B6953
:10EC2000134403F5A0631946FB685A013B6913447A
:10EC300003F5A0631B6823F000430B60FB685A01D7
:10EC40003B69134403F5A0631946FB685A013B690D
:10EC5000134403F5A0631B6843F000430B60FB689B
:10EC60005A013B69134403F5A0631946FB685A0136
:10EC70003B69134403F5A0631B6823F400430B6056
:10EC80007B6901337B617B69B3F57A7F1ED8FB68B2
:10EC90005A013B69134403F5A0631B6803F000436A
:10ECA000B3F1004FECD012E0FB685A013B6913440A
:10ECB00003F5A0631946FB685A013B69134403F549
:10ECC000A0631B6843F000430B6000E000BF00231B
:10ECD00018461C37BD465DF8047B704780B586B08A
:10ECE00000AF78607B68FB6000237B617868FFF78A
:10ECF000FCFD10217868FFF709FE7868FFF72CFE0D
:10ED000000233B611FE03B695A01FB68134403F594
:10ED1000A0631B68BB60BB6843F08043BB60BB68FB
:10ED200023F00043BB60BB6823F40043BB603B6936
:10ED30005A01FB68134403F5A0631A46BB681360CD
:10ED40003B6901333B613B690F2BDCD900233B61FD
:10ED500034E03B695A01FB68134403F5A0631B6868
:10ED6000BB60BB6843F08043BB60BB6843F00043BB
:10ED7000BB60BB6823F40043BB603B695A01FB687E
:10ED8000134403F5A0631A46BB6813607B69013323
:10ED90007B617B69B3F57A7F0CD83B695A01FB68CC
:10EDA000134403F5A0631B6803F00043B3F1004F65
:10EDB000ECD000E000BF3B6901333B613B690F2BA6
:10EDC000C7D9FB6803F580631A464FF0FF335361E0
:10EDD0007B684FF0FF325A617868FFF775FD0023BA
:10EDE00018461837BD4680BD80B582B000AF786048
:10EDF0007B68D3F8C4335A1C7B68C3F8C423786893
:10EE000000F004F800BF0837BD4680BD80B582B071
:10EE100000AF78607B681B78DBB20B2B0AD17B6874
:10EE2000D3F87C33002B05D07B68D3F87C339B6907
:10EE30007868984700BF0837BD4680BD80B483B06E
:10EE400000AF78607B68012283F8232300BF0C3772
:10EE5000BD465DF8047B704780B483B000AF786036
:10EE60007B68002283F8232300BF0C37BD465DF882
:10EE7000047B704780B483B000AF78607B68012268
:10EE800083F820237B68002283F821237B680022FB
:10EE900083F82223002318460C37BD465DF8047B17
:10EEA000704780B582B000AF78607B68012283F83C
:10EEB00021237B68002283F820237B68002283F8CB
:10EEC0002323786800F084F87B681B7919467868FA
:10EED00000F00BF87B685B791946786800F005F85C
:10EEE000002318460837BD4680BD80B483B000AF0C
:10EEF00078600B46FB70FB780A2B0ED8F878FB780D
:10EF00007A68E0339B0013445B68C3F30E027968B0
:10EF100000F1E0039B000B445A60002318460C37B5
:10EF2000BD465DF8047B704780B582B000AF786065
:10EF30007B68D3F8C0321846FFF756FF00BF08378A
:10EF4000BD4680BD80B582B000AF78607B68D3F8E5
:10EF5000C0321846FFF78EFF00BF0837BD4680BDA0
:10EF600080B582B000AF78607B68D3F8C0321846B5
:10EF7000FFF797FF00BF0837BD4680BD80B483B060
:10EF800000AF78600B46FB701346BB7000BF0C37B8
:10EF9000BD465DF8047B704780B582B000AF7860F5
:10EFA0007B68D3F8C0321846FFF748FF00BF083728
:10EFB000BD4680BD80B582B000AF78607B68D3F875
:10EFC000C0321846FFF748FF00BF0837BD4680BD76
:10EFD00080B584B000AF78600023FB730023BB735F
:10EFE0007B68D3F8D0331846FAF785FD0346FB73E8
:10EFF000FB7B184600F008F80346BB73BB7B184642
:10F000001037BD4680BD000080B485B000AF034618
:10F01000FB710023FB73FB79032B17D801A252F875
:10F0200023F000BF35F000083BF0000841F0000875
:10F0300047F000080023FB730BE00223FB7308E09A
:10F040000123FB7305E00223FB7302E00223FB7341
:10F0500000BFFB7B18461437BD465DF8047B704744
:10F06000DFF834D0002103E00C4B5B5843500431EF
:10F070000B480C4B42189A42F6D30B4A02E000238D
:10F0800042F8043B094B9A42F9D3F8F725F900F00E
:10F0900047F8F7F7B9FC7047000005201020010879
:10F0A000000001209C020120A0020120141A01206E
:10F0B000FEE700001FB51C46094B1B680546D868D3
:10F0C00052B1084B02928DE80A0022462B460649AF
:10F0D00000F014F800F0A4FF044B1A46F2E700BF5A
:10F0E000CC000120001D01080D1D01083B1D010879
:10F0F000014B1868704700BFCC0001200EB403B567
:10F10000014603AB054853F8042B0068019300F057
:10F110001DF902B05DF804EB03B07047CC0001208C
:10F1200070B50D4E0D4CA41BA4100025A54209D1AD
:10F130000B4E0C4C02F0DAFBA41BA4100025A542D8
:10F1400005D170BD56F8253098470135EEE756F8E1
:10F15000253098470135F2E708200108082001080A
:10F16000082001080C200108024B0146186800F035
:10F1700065B800BFCC00012010B5431E0A4491427F
:10F1800000D110BD11F8014B03F8014FF7E702441D
:10F190000346934200D1704703F8011BF9E70000D2
:10F1A00038B50546002945D051F8043C0C1F002B0A
:10F1B000B8BFE41801F084FF1F4A1368104633B942
:10F1C000636014602846BDE8384001F07ABFA3426E
:10F1D0000CD921686218934204BF1A685B686360A7
:10F1E00004BF521822600460ECE713465A680AB163
:10F1F000A242FAD919685818A0420BD120680144DC
:10F20000581882421960DDD1106852685A60014472
:10F210001960D7E702D90C232B60D3E720682118A7
:10F220008A4204BF11685268626004BF09182160F5
:10F230005C60C7E738BD00BF4C03012070B5CD1C32
:10F2400025F0030508350C2D38BF0C25002D06468A
:10F2500001DBA94203D90C233360002070BD01F00B
:10F260002FFF234A1468214691B9224C23681BB909
:10F27000304600F005FE20602946304600F000FED2
:10F28000431C26D10C233360304601F01AFFE4E71B
:10F290000B685B1B1AD40B2B0FD90B60CD50CC180D
:10F2A000304601F00EFF04F10B00231D20F0070093
:10F2B000C31A1BD05A42E25070BD8C420DBF636826
:10F2C0004B686360136018BF0C46E9E70C46496859
:10F2D000CAE7C41C24F00304A04205D0211A30461A
:10F2E00000F0CEFD0130CDD02560D9E770BD00BF64
:10F2F0004C030120500301209368013B002B10B404
:10F30000936009DA9469A34202DBCBB20A2B03D1E2
:10F310005DF8044B00F0C4BD1368581C10601970F0
:10F32000C8B25DF8044B7047F8B506460F46144660
:10F33000D518AC4201D1002007E03A4614F8011B71
:10F340003046FFF7D9FF431CF3D1F8BD2DE9F04F4C
:10F350009DB00C4617460393064618B183690BB956
:10F3600001F0B2FD7C4B9C4257D17468A389180709
:10F370005DD52369002B5AD00023099320238DF8F3
:10F38000293030238DF82A304FF0010BB84645461E
:10F3900015F8013B002B55D1B8EB070A0BD05346AB
:10F3A0003A4621463046FFF7BFFF013000F0C480E7
:10F3B000099B5344099398F80030002B00F0BC805F
:10F3C00000234FF0FF3204930793059206938DF8C4
:10F3D00053301A93052229786048F0F721FF05F190
:10F3E0000108049B002831D1D90644BF20228DF8A2
:10F3F00053201A0744BF2B228DF853202A782A2A3B
:10F400002CD0079A00210A20A846013598F8003030
:10F41000303B092B6DD971B326E0514B9C4201D191
:10F42000B468A3E74F4B9C4208BFF4689EE72146AF
:10F43000304600F087FD00289ED04FF0FF301DB011
:10F44000BDE8F08F252BA7D0A846A0E7434A801A35
:10F450000BFA00F0184304904546BBE7039A111DD0
:10F4600012680391002A01DB079204E0524243F044
:10F4700002030792049398F800302E2B10D198F8CD
:10F4800001302A2B08F1010137D1039B1A1D1B689B
:10F490000392002BB8BF4FF0FF3308F10208059329
:10F4A000314D98F8001003222846F0F7B9FE40B11C
:10F4B0004023401B03FA00F0049B0343049308F12C
:10F4C000010898F8001029488DF82810062208F144
:10F4D0000107F0F7A5FE002834D0254B03BB039BA2
:10F4E000073323F0070308330393099B4B44099325
:10F4F0004CE700FB0232012186E700230593184602
:10F500000A258846013198F80020303A092A03D9A3
:10F51000002BC5D00590C3E705FB00200123F0E7D1
:10F5200003AB00932246134B04A9304600F0BAF80F
:10F53000B0F1FF3F8146D8D1A3895B063FF57DAF8F
:10F5400009987CE703AB009322460A4B04A9304696
:10F5500000F05EFBECE700BFB41D0108401D010890
:10F56000D41D0108941D0108461D01084A1D01080B
:10F57000A5F6000829F300082DE9FF4755EC104BCC
:10F580000D9FDDF830A0002D0E4691461946B8BFFC
:10F5900022462B4627F02007BBBF05F100431D463E
:10F5A00000232D23B8BF1446462F0B7004D0452FDF
:10F5B00000D10136022100E0032103AB019302AB2D
:10F5C00000933246534645EC104B00F0BDFD472FEB
:10F5D000804602D119F0010F26D0462F08EB06090C
:10F5E00011D198F80030302B0AD100220023204698
:10F5F0002946F1F785FA18B9C6F10106CAF8006084
:10F60000DAF8003099440022002320462946F1F719
:10F6100077FA38B93022039B994505D9591C0391D3
:10F620001A70F8E7CDF80C90039B0E9AA3EB080331
:10F630004046136004B0BDE8F087F7B503460029E3
:10F64000B8BF494203F8022BB4BF2D222B2209294F
:10F65000427020DD0DF1070217460A2691FBF6F5F0
:10F6600006FB15113031092D02F8011C02F1FF349F
:10F67000294609DC3031023A04F8011CBA421C4622
:10F6800004D3201A03B0F0BD2246E7E712F8011BAD
:10F6900003F8011BF2E730221C46114404F8022B48
:10F6A0005970EEE72DE9F04F8DB00C46DDF858802B
:10F6B00016461F46054601F091FC03680493184660
:10F6C000F0F7A6FD00230A93D8F800300590073321
:10F6D00023F0070303F1080294F818A0D4F800B04F
:10F6E000C8F80020D3E90023C4E91223D4E9128921
:10F6F00029F000430793CDF818804FF0FF32A54B57
:10F70000DDE90601F1F72EFA002840F0FB814FF009
:10F71000FF32A04BDDE90601F1F706FA002840F0C0
:10F72000F1810022002340464946F1F7F3F910B178
:10F730002D2384F84330984B984ABAF1470F8CBF79
:10F740009046984603232BF00402236122604FF079
:10F750000009009733460BAA2146284600F0E2F93B
:10F76000013040F093804FF0FF300DB0BDE8F08FD6
:10F7700061684B1C4BF480623FD106236360002319
:10F7800003930AAB029309AB009349EC108B0DF184
:10F7900023032260CDF804A061682846FFF7ECFE41
:10F7A0000AF0DF03472B804609D1099BD81C02DBF6
:10F7B0006268934257DDAAF1020A5FFA8AFABAF147
:10F7C000650F099934D80139524604F15000099166
:10F7D000FFF733FF0A9A8318012A8146236102DC6E
:10F7E0002268D10701D5013323619DF82330002B16
:10F7F000AFD02D2384F84330ABE7BAF1670F02D0C6
:10F80000BAF1470FBBD189B1002303930AAB02932E
:10F8100009AB009349EC108B2260CDF804A00DF1E8
:10F8200023032846FFF7A8FE8046BEE70123A5E78D
:10F83000BAF1660F19D1002963680CDD216113B993
:10F840002268D20702D501330B442361099BA365CB
:10F850004FF00009C9E713B92268D00701D5023378
:10F86000F3E70123F1E74FF0670A099B0A9A9342F5
:10F8700005DB22682361D107E8D50133E5E7002BDA
:10F88000D4BFC3F1020301231344DEE723685A0502
:10F8900007D42369424631462846B84701302BD168
:10F8A00061E7BAF1650F40F2E28000220023D4E95B
:10F8B0001201F1F725F900283CD00123384A3146DE
:10F8C0002846B84701303FF44EAF0A9B099A9A4246
:10F8D00002DB2368D8070FD5059B049A31462846DA
:10F8E000B84701303FF43FAF4FF0000804F11A0968
:10F8F0000A9B013B984512DB23689B0709D54FF013
:10F90000000804F11909E3680B9A9B1A9845C0F2A4
:10F91000EE80E0680B9B9842B8BF184625E70123AC
:10F920004A4631462846B84701303FF41CAF08F13B
:10F930000108DDE7099B002B34DC0123184A31461E
:10F940002846B84701303FF40EAF099B23B90A9B04
:10F9500013B92368D907CFD5059B049A31462846A9
:10F96000B84701303FF4FFAE4FF0000904F11A0A26
:10F97000099B5B42994501DB0A9B8BE701235246B9
:10F9800031462846B84701303FF4EDAE09F1010990
:10F99000EEE700BFFFFFEF7F511D0108551D010875
:10F9A000611D01080A9AA36D9A42A8BF1A46002A4F
:10F9B000914638DC04F11A034FF0000B29EAE9798B
:10F9C0000693D4F858A0AAEB09039B4533DB0A9BA6
:10F9D000099A9A423ADB2368DA0737D40A9B0999D5
:10F9E000A3EB0A02A3EB01099145A8BF9146B9F127
:10F9F000000F33DC4FF0000829EAE97904F11A0A14
:10FA0000099A0A9B9B1AA3EB09039845BFF674AFAA
:10FA10000123524631462846B84701303FF4A3AE91
:10FA200008F10108ECE71346314642462846B8473C
:10FA30000130BFD197E60123069A31462846B847E0
:10FA400001303FF490AE0BF1010BBAE7059B049A2D
:10FA500031462846B8470130C0D184E64B4608EB12
:10FA60000A0231462846B8470130C3D17BE60A9ADC
:10FA7000012A01DCDB0737D50123424631462846FF
:10FA8000B84701303FF46FAE059B049A31462846D3
:10FA9000B84701303FF467AE00220023D4E91201D9
:10FAA000F1F72EF858B14FF0000804F11A0A0A9B3A
:10FAB000013B98450DDB4B4604F15002EBE60A9BF7
:10FAC00008F10102013B31462846B8470130F2D126
:10FAD00049E60123524631462846B84701303FF4F3
:10FAE00042AE08F10108E2E701234246EBE70123B9
:10FAF0004A4631462846B84701303FF434AE08F153
:10FB0000010800E742464B4640464946F1F72AF8CD
:10FB100000283FF42DAE014B014A0EE6591D0108A5
:10FB20005D1D01082DE9F04791461F468A680B6963
:10FB3000DDF820809342B8BF1346C9F8003091F831
:10FB4000432006460C4612B10133C9F80030236841
:10FB5000990642BFD9F800300233C9F80030256851
:10FB600015F0060507D104F1190AE368D9F8002059
:10FB70009B1A9D4229DB94F843302268003318BF5A
:10FB8000012392062ED404F1430239463046C04781
:10FB9000013021D02368E568D9F8002003F006037E
:10FBA000042B08BFAD1AA36822690CBF25EAE575CE
:10FBB00000259342C4BF9B1AED184FF000091A3478
:10FBC0004D451BD10020BDE8F08701235246394640
:10FBD0003046C047013003D14FF0FF30BDE8F08719
:10FBE0000135C2E7E1185A1C302081F84300224455
:10FBF00094F8451082F843100233C4E701232246EB
:10FC000039463046C0470130E6D009F10109D7E74F
:10FC10002DE9F04317460A7E85B06E2A98460646BF
:10FC20000C460C9B01F1430E00F0BC801AD8632AED
:10FC30002ED00AD8002A00F0C880582A00F08A8006
:10FC400004F1420584F842202AE0642A01D0692A9E
:10FC5000F6D121681A6811F0800F23D0111D1960A8
:10FC6000136827E0732A00F0B48008D86F2A2AD0DE
:10FC7000702AE5D10A6842F020020A6003E0752A82
:10FC800021D0782ADCD1782284F845206E4964E0BE
:10FC90001A6801F14205111D1960136884F8423099
:10FCA0000123A3E011F0400F02F104011960D7D045
:10FCB000B2F90030002B03DA2D225B4284F8432096
:10FCC00062490A2217E02068196810F0800F03D0FB
:10FCD000081D18600B6806E010F0400F01F10400E9
:10FCE0001860F7D00B8859496F2A14BF0A220822DE
:10FCF000002084F843006568A560002DC0F29C8058
:10FD0000206820F004002060002B3FD1002D40F03F
:10FD100095807546082A0BD12368DA0708D5236930
:10FD200062689A42DEBF302305F8013C05F1FF35D9
:10FD3000AEEB05032361CDF800803B4603AA2146C4
:10FD40003046FFF7EFFE013055D14FF0FF3005B0E0
:10FD5000BDE8F08381F845203C492268186812F01C
:10FD6000800F00F104051D6001D0036802E0550614
:10FD7000FBD50388D00744BF42F0200222601BB9A4
:10FD8000226822F0200222601022B1E77546B3FB00
:10FD9000F2F002FB1033CB5C05F8013D034600286E
:10FDA000F5D1B7E708681A68496910F0800F04D0E8
:10FDB000101D18601368196007E010F0400F02F181
:10FDC000040018601368F6D019800023236175467B
:10FDD000B1E71A68111D196015686268002128468C
:10FDE000F0F71EFA08B1401B6060636823610023CE
:10FDF00084F843309FE723692A4639463046C04796
:10FE00000130A2D023689B0707D5002504F119090A
:10FE1000E368039A9B1A9D4205DBE068039B9842C6
:10FE2000B8BF184693E701234A4639463046C047D3
:10FE300001308AD00135EBE7002BA7D10B7884F88D
:10FE4000423004F1420565E7741D0108631D010895
:10FE50000FB40A4B13B51C6824B1A36913B920462B
:10FE600001F032F805AB049AA16801932046FFF730
:10FE70006DFA02B0BDE8104004B07047CC0001201C
:10FE800038B5064C0023054608462360F7F7C4F949
:10FE9000431C02D1236803B12B6038BD101A012026
:10FEA000F8B50E461446054618B183690BB901F042
:10FEB0000BF8214B9C422AD16C68A369A360A389EB
:10FEC0001A072ED5236963B323692068C01A6369B2
:10FED000F6B29842374604DB2146284600F08AFFF6
:10FEE00028BBA368013BA36023685A1C22601E70D4
:10FEF00063690130984204D0A389DB0719D50A2E23
:10FF000017D12146284600F075FF90B10FE00B4B4A
:10FF10009C4201D1AC68D0E7094B9C4208BFEC6819
:10FF2000CBE72146284600F00DF80028CCD04FF052
:10FF3000FF373846F8BD00BFB41D0108D41D0108C5
:10FF4000941D0108324B70B51D6806460C4625B15C
:10FF5000AB6913B9284600F0B7FF2E4B9C420FD176
:10FF60006C68B4F90C309AB215072CD4D00611D4B1
:10FF70000922326043F04003A3814FF0FF3070BD8F
:10FF8000254B9C4201D1AC68EBE7244B9C4208BF57
:10FF9000EC68E6E7510712D5616B41B104F1440307
:10FFA000994202D03046FFF7FBF800236363A38930
:10FFB00023F02403A3810023636023692360A389C2
:10FFC00043F00803A38123694BB9A38903F4207389
:10FFD000B3F5007F03D02146304601F031F8A28905
:10FFE00012F001030CD00023A36063695B42A3619C
:10FFF000236953B9B4F90C3013F08000BAD170BD45
:020000040801F1
:10000000920758BF6369A360F2E70020F7E700BFDB
:10001000CC000120B41D0108D41D0108941D010865
:1000200008B5062001F054FB0120F7F7B1F82DE9DF
:10003000F74F03690C699C42804600F38280013CC3
:1000400001F114074FEA840E00F1140657F824500A
:1000500056F8240006EB0E03013507EB0E09019359
:10006000B0FBF5F595B34FF0000A3846B446D346D9
:1000700050F8042B93B205FB03A34FEA134A9BB23B
:10008000ABEB0303120CBCF800B005FB02A213FAA1
:100090008BF34FEA124A1FFA82FBDCF80020CBEB0D
:1000A000124202EB23429BB243EA024381454FEAEC
:1000B000224B4CF8043BDBD256F80E3033B9019B8F
:1000C000043B9E421A4630D3C8F81040404601F027
:1000D00002FA002825DB013530464FF0000E57F8B4
:1000E000042BD0F800C093B2AEEB0303120C13FA4A
:1000F0008CF3C2EB1C4202EB23429BB243EA024365
:10010000B9454FEA224E40F8043BE8D256F8242085
:1001100006EB84032AB9043B9E421A460BD3C8F867
:100120001040284603B0BDE8F08F1268043B002A57
:10013000CAD1013CC5E71268043B002AEFD1013C5B
:10014000EAE70020EEE700002DE9F04F57EC106BD6
:1001500097B0CDE90067466A079104460A920F936B
:10016000209D3EB91020FEF7FFFF6062466086606A
:100170000660C660636A196851B15A684A60012313
:1001800093408B60204600F0D1FF636A00221A6022
:10019000019B002BBFBF01232B60019B23F0004379
:1001A000B2BF019300232B60DDF80480A84B33EA33
:1001B00008031BD10F9A42F20F731360009B23B9FF
:1001C000C8F31300002800F07885219B53B9A14B98
:1001D00021E0A14B02930833219A1360029817B0D3
:1001E000BDE8F08F9B4B02930333F5E7DDE9006731
:1001F0000022002330463946F0F782FC814660B188
:100200000F9A01231360219B002B00F05385934B21
:10021000219A1360013B0293E0E714AA15A947EC69
:10022000106B204601F0CFF9C8F30A558246002D25
:100230007ED0C7F3130343F07F51304641F44011A1
:10024000A5F2FF35CDF848900022854BF0F73CF839
:1002500079A3D3E90023F0F7EBF979A3D3E90023DD
:10026000F0F734F8064628460F46F0F77BF976A3F8
:10027000D3E90023F0F7DCF902460B463046394655
:10028000F0F724F806460F46F0F782FC002283467A
:10029000002330463946F0F73DFC58B15846F0F798
:1002A00061F902460B4630463946F0F729FC08B999
:1002B0000BF1FF3BBBF1160F59D86A4901EBCB019B
:1002C000DDE90023D1E90001F0F742FC002850D01D
:1002D0000BF1FF3B00230E93149B5D1B6B1E0693DB
:1002E00045BFC5F101030593002300234CBF0693CE
:1002F0000593BBF1000F3EDB069BCDF82CB05B44B1
:10030000069300230893079B092B00F2AF80052B6F
:10031000C4BF043B0793079BA3F10203CCBF002695
:100320000126032B00F2AE80DFE803F082842F77F2
:10033000159B149D1D4405F23243202B11DD009ABC
:1003400005F21240C3F1400322FA00F008FA03F369
:100350001843F0F7F7F80123A1F1F871013D12936A
:1003600072E7C3F12000009B03FA00F0F1E70123DC
:10037000B1E70E90B0E7059BA3EB0B030593CBF120
:100380000003089300230B93BDE7012309930A9B05
:10039000002B7ADD04930393656A00226A600421CE
:1003A00001F114029A4275D96968204600F08AFE6C
:1003B000636A28601B680293039B0E2B00F2E580A2
:1003C000002E00F0E2809DED007BBBF1000F8DED73
:1003D0000C7B74DD234A0BF00F034FEA2B1602EB64
:1003E000C303F006D3E9008959D51F4B51EC170B15
:1003F000D3E90823F0F746FACDE9000106F00F062D
:100400000325194F002E4CD142464B46DDE9000131
:10041000F0F738FACDE900016AE0012309930A9B5D
:100420005B4404930133012B0393B8BF0123B3E76B
:100430000023ABE70023F1E761436F63A787D23F57
:10044000B3C8608B288AC63FFB799F501344D33FC3
:100450000000F07F8E1D0108851D0108621D010846
:100460000000F83F201E0108F81D010801260023A6
:10047000079309964FF0FF3304930393002212234E
:100480000A9289E701230993F4E701230493039374
:100490001A46F5E76A6801326A60490080E702257A
:1004A000AFE7F10708D540464946D7E90023F0F702
:1004B000BFF801358046894676100837A2E700F07C
:1004C0009D80CBF100069F4B9F4F06F00F0203EB80
:1004D000C203D3E90023DDE90C01F0F7A9F8CDE967
:1004E0000001361100230225002E7CD1002B91D172
:1004F0000E9B002B00F08480DDE900890022934BE5
:1005000040464946F0F706FB002879D0039B002BB4
:1005100076D0049B002B34DD00228D4B40464946AB
:10052000F0F786F8CDE90001049E0BF1FF370135A5
:100530002846F0F717F8DDE90023F0F779F80022F4
:10054000844BEFF7C3FE8046A1F15079002E5AD1BB
:100550000022814BDDE90001EFF7B6FE42464B4633
:10056000CDE90001F0F7F4FA002840F09B82424602
:1005700009F10043DDE90001F0F7CCFA002840F072
:100580008F82DDE90C23CDE90023159B002BC0F2FF
:100590005081BBF10E0F00F34C816A4B03EBCB0390
:1005A000D3E900890A9B002B80F2DA80039B002BA1
:1005B00000F3D68040F073820022674B40464946E4
:1005C000F0F736F8DDE90023F0F7B8FA039E374676
:1005D000002840F04A82029B029A5D1C312313706E
:1005E0000BF1010B45E2F20705D5D7E90023F0F73F
:1005F0001FF8013501237610083775E7022577E7E4
:100600005F46039E94E7029A4E4B32441392099A36
:10061000711E002A48D003EBC103D3E90023002058
:100620004E49F0F72FF942464B46EFF74DFE029D3B
:1006300080468946DDE90001F0F7AAFA0646EFF7A1
:1006400091FF02460B46DDE90001EFF73DFE303633
:1006500005F8016B42464B46CDE90001F0F75AFA26
:10066000002865D1DDE9002300203849EFF72CFE92
:1006700042464B46F0F74EFA002840F0BA80139BF2
:100680009D423FF47EAF0022314B40464946EFF792
:10069000CFFF0022804689462D4BDDE90001EFF7B0
:1006A000C7FFCDE90001C5E703EBC10142464B4658
:1006B000D1E90001EFF7BCFFCDE91001029DDDE9B2
:1006C0000001F0F765FA0646EFF74CFF30360246B8
:1006D0000B46DDE90001EFF7F7FD05F8016B139B11
:1006E000AB42804689464FF0000225D11B4BDDE925
:1006F0001001EFF7EBFD02460B4640464946F0F786
:1007000027FA002875D1DDE9102300201349EFF7FF
:10071000DBFD02460B4640464946F0F7FBF9002850
:100720003FF42FAF15F8013C302B05F1FF3201D01B
:10073000BB464DE01546F5E7054BEFF779FFCDE9F0
:100740000001BCE7201E0108F81D01080000F03F71
:100750000000244000001C40000014400000E03F66
:10076000DDE90067029D42464B4630463946F0F7C8
:1007700089F8F0F70DFA0090EFF7F4FE42464B4689
:10078000EFF756FF02460B4630463946EFF79CFD21
:10079000009E039F303605F8016B029EAE1BB742E8
:1007A00002460B4638D1EFF791FD06460F4602464A
:1007B0000B4640464946F0F7ADF9C8B932463B46CC
:1007C00040464946F0F79CF910B1009BDB070FD477
:1007D0005146204600F0AAFC00230F9A2B700BF123
:1007E00001031360219B002B3FF4F8AC1D60F5E47E
:1007F0005F4615F8012C392A05F1FF3306D1029A1C
:100800009A4207D130231370013713461A78013208
:100810001A708DE71D46ECE70022A44BEFF708FFA6
:100820000022002306460F46F0F76AF900289AD006
:10083000CEE7099A002A00F0CD80079A012A00F33A
:10084000AF80129A002A00F0A78003F23343089E7B
:10085000059D059A1A440592069A01211A442046DC
:10086000069200F003FD0746002D0CDD069B002BD1
:1008700009DDAB42059AA8BF2B46D21A0592069A0B
:10088000ED1AD31A0693089BF3B1099B002B00F0D5
:10089000A580002E10DD39463246204600F07CFD52
:1008A000524601460746204600F0E9FC5146804684
:1008B000204600F03BFCC246089B9A1B04D05146E0
:1008C000204600F069FD82460121204600F0CEFC62
:1008D0000B9B002B064640F383801A4601462046B8
:1008E00000F05AFD079B012B06467CDD4FF0000807
:1008F000336906EB8303186900F06AFCC0F120003D
:10090000069B184410F01F0000F09680C0F12003F1
:10091000042B40F38780059BC0F11C000344059322
:10092000069B054403440693059B002B05DD5146B9
:100930001A46204600F07EFD8246069B002B05DD10
:1009400031461A46204600F075FD06460E9B002BE8
:1009500074D03146504600F0BEFD00286EDA002308
:1009600051460A22204600F0F8FB099B0BF1FF3BA1
:100970008246002B00F0A881002339460A22204637
:1009800000F0EBFB049B002B074600F3C880079B9D
:10099000022B40F3C48059E0149BC3F1360356E7A1
:1009A000039B5E1E089BB342BFBF089B0896F21ACA
:1009B0000B9BB6BF9B189E1B0B93039BB8BF0026D7
:1009C000002BB9BF059B039A059D039BBCBF9D1AD5
:1009D00000233EE7089E059D099F45E7089A6EE7BC
:1009E000079B012B19DC009BBBB9019BC3F31303CD
:1009F0009BB9019B23F000431B0D1B0583B1059B95
:100A000001330593069B013306934FF001080B9BBE
:100A1000002B7FF46DAF012072E74FF00008F6E77E
:100A20009846F4E780D0059A1C331A440592069A3A
:100A30001A441D44134676E70346F4E7039B002B54
:100A400036DC079B022B33DD039B0493049B63B9C5
:100A500031460522204600F080FB014606465046FE
:100A600000F039FD00283FF7B6AD0A9B029D6FEA02
:100A7000030B002303933146204600F057FB002F61
:100A80003FF4A6AE039B2BB1BB4203D019462046D0
:100A900000F04CFB3946204600F048FB98E6002663
:100AA0003746E2E7BB46374695E500BF00002440E5
:100AB000099B93BB039B0493029D31465046FFF76D
:100AC000B6FA00F1300905F8019B029B049AEB1A73
:100AD0009A4200F3DC80029B012AACBF9B180133D1
:100AE00098460023039351460122204600F0A2FCC1
:100AF0003146824600F0EFFC002800F38D8003D1E0
:100B000019F0010F40F08880454615F8013C302B64
:100B100005F1FF32AFD11546F7E7039B0493002D93
:100B200005DD39462A46204600F084FC0746B8F128
:100B3000000F4CD07968204600F0C4FA3A690232BE
:100B40000546920007F10C010C30FEF715FB01225F
:100B50002946204600F06EFC009BDDF808800397D4
:100B600003F001030746059331465046FFF75FFA4D
:100B70000399054600F13009504600F0ACFC3A46B6
:100B800000903146204600F0C0FCC368024603BB1B
:100B900001460690504600F09EFC069A0346114618
:100BA0002046069300F0C2FA069BA3B9079A92B9B1
:100BB000059A82B9B9F1390F29D0009B002B01DDCC
:100BC00005F1310908F1010588F8009053E738462E
:100BD000C2E70123E3E7009A002A04DB25D1079A44
:100BE0001ABB059A0ABB002BECDD514601222046B8
:100BF00000F020FC3146824600F06DFC002803DC4A
:100C0000E0D119F0010FDDD0B9F1390FD8D1392376
:100C100088F8003008F10108454615F8013C392BE9
:100C200005F1FF323BD0013340E0002B08F1010514
:100C300005DDB9F1390FEAD009F10109C4E7029BDA
:100C4000049A05F8019CEB1A9342A8463FF44BAF77
:100C5000514600230A22204600F07FFA039B0399A5
:100C6000BB4282464FF000034FF00A02204604D1F7
:100C700000F073FA0390074676E700F06EFA00235F
:100C800003900A223946204600F067FAF3E75146FE
:100C900000230A22204600F060FA82460DE7029BFC
:100CA000934205D1029A0BF1010B31231370E2E656
:100CB0001546B2E7094BFFF7AEBA219B002B7FF434
:100CC00088AA074BFFF7A7BA049B002B3FF7F4AEA7
:100CD000079B022B7FF7F0AEB8E600BF611D01084D
:100CE000851D01088A892DE9F041054610070C464B
:100CF0005AD44B68002B05DC0B6C002B02DC002067
:100D0000BDE8F081E66A002EF9D0002312F480528B
:100D10002F682B6033D0606DA3895A0705D56368AF
:100D2000C01A636B0BB1236CC01A00230246E66A3B
:100D3000216A2846B047431CA38906D129681D298A
:100D40004BD82B4ACA40D60747D500226260D90447
:100D50002269226004D5421C01D12B6803B9606569
:100D6000616B2F600029CAD004F14403994202D07C
:100D70002846FEF715FA00206063BDE8F081216A7D
:100D800001232846B047411CC6D12B68002BC3D095
:100D90001D2B01D0162B01D12F60B0E7A38943F0A2
:100DA0004003A381BDE8F0810F69002FA7D093070E
:100DB0000E6808BF4B690F6018BF0023A6EB070839
:100DC0008B60B8F1000F9ADD43463A46216AA66A65
:100DD0002846B047002807DCA38943F04003A381DD
:100DE0004FF0FF30BDE8F0810744A8EB0008E8E7CA
:100DF0000100402038B50B6905460C46DBB118B13F
:100E000083690BB900F060F80C4B9C4209D16C6807
:100E1000B4F90C307BB121462846BDE83840FFF7D5
:100E200061BF074B9C4201D1AC68F1E7054B9C4286
:100E300008BFEC68ECE7002038BD00BFB41D010816
:100E4000D41D0108941D0108014900F0A9B800BF94
:100E5000F50D0108002310B504460360436083606C
:100E600081814366C281036143618361194608221F
:100E70005C30FEF78CF9054B6362054BA362054BB2
:100E8000E362054B2462236310BD00BF091701080C
:100E90002B170108631701088717010870B54A1E50
:100EA000682555430E4605F17401FEF7C7F904465F
:100EB00040B1002180E842000C30A06005F16802DA
:100EC000FEF765F9204670BD836910B5044633BB53
:100ED0008364C3640365124B124A1B6882629842A2
:100EE00004BF0123836100F01FF86060204600F01A
:100EF0001BF8A060204600F017F80022E0600421F3
:100F00006068FFF7A7FF01220921A068FFF7A2FF91
:100F100002221221E068FFF79DFF0123A36110BDAB
:100F20003C1D0108490E0108F8B51C4B1E68B36949
:100F3000074613B93046FFF7C7FF4836B4687368F1
:100F4000013B03D5336833B13668F7E7B4F90C5089
:100F50006DB16834F4E704213846FFF79FFF306035
:100F60000028F1D10C233B6004462046F8BD4FF623
:100F7000FF73E3810123A38165662560A560656039
:100F800025616561A5610822294604F15C00FEF730
:100F9000FEF86563A563A564E564E6E73C1D01080A
:100FA0002DE9F8438046894600F14804002614B92B
:100FB0003046BDE8F883A5686768013F01D524681D
:100FC000F5E7AB89012B07D9B5F90E30013303D012
:100FD00029464046C84706436835EEE7044B1B6880
:100FE000186A044B002808BF1846F030704700BF4D
:100FF000CC0001203001012070B50E46B1F90E1071
:10100000002990B014461D4607DA00232B60B389EF
:101010001A0610D44FF480630EE001AA00F0DAFB48
:101020000028F2DB029A02F47042A2F500535A4201
:101030005A412A60EEE740230020236010B070BDC3
:101040008B8973B59D0706460C4607D504F1470307
:10105000236023610123636102B070BD01AB6A4666
:10106000FFF7CAFF009905463046FEF7E7F848B992
:10107000B4F90C309A05EFD423F0030343F00203D4
:10108000A381E3E70D4BB362A389206043F08003A3
:10109000A381009B6361019B20615BB1B4F90E10D9
:1010A000304600F0A9FB28B1A38923F0030343F0E5
:1010B0000103A381A3891D43A581CDE7490E010842
:1010C0007047704770B5456A04460E463DB910201A
:1010D000FEF74AF86062456085600560C560656A34
:1010E000EB6883B1636ADB6853F82600B8B9012165
:1010F00001FA06F56A1D9200204600F0B3FA60B1CD
:10110000466085600EE021220421204600F0AAFA04
:10111000636AE860DB68002BE4D1002070BD0268E0
:1011200043F8262000230361C36070BD70B5446A94
:1011300006460D463CB91020FEF716F87062446072
:1011400084600460C4603DB1736A6A68DB6853F808
:101150002210296043F8225070BD2DE9F0410D693D
:101160001F4606460C4601F1140E0023DEF800006F
:1011700081B202FB01710F0C000C02FB007089B2FE
:10118000013301EB00419D424FEA10474EF8041B2A
:10119000ECDCD7B1A3689D4212DB616830460131B7
:1011A000FFF790FF2269023204F10C0180469200A1
:1011B0000C30FDF7E1FF21463046FFF7B7FF44460C
:1011C00004EB850301355F6125612046BDE8F081B0
:1011D000020C12040346B2B90304102013F07F4F2F
:1011E00004BF1B02083013F0704F04BF1B01043012
:1011F00013F0404F04BF9B000230002B06DB5B0066
:1012000003D5013070470020E8E7202070470368CD
:1012100013F0070201460BD0DA0723D4980749BF21
:101220005B089B0801200B605CBF0B6002207047CD
:1012300098B2A8B91B0C102013F0FF0F04BF1B0AB3
:1012400008301A0704BF1B0904309A0704BF9B0823
:101250000230DA0702D45B0806D001300B60704719
:101260001046E9E7002070472020704710B50C4673
:101270000121FFF727FF01224461026110BD2DE922
:10128000F74F14460A6923699A42B8BF0B4689464C
:10129000BCBFA1461C46D9F81070D4F810A0D9F8EC
:1012A0000830D9F8041007EB0A069E42C8BF013186
:1012B000FFF708FF00F1140505EB86082B46002216
:1012C000434516D304F1140209F1140102EB8A0319
:1012D00001EB87070193019C944213460CD8002E22
:1012E00003DD58F8043D002B54D0066103B0BDE87F
:1012F000F08F43F8042BE3E7B3F800A00432BAF10F
:10130000000F20D0AE4689464FF0000C59F8044B30
:10131000BEF800B0A3B20AFB03B34FEA144BDEF8E9
:10132000004063444FEA144C0AFB0BC404EB134423
:101330009BB243EA04434F454FEA144C4EF8043B3A
:10134000E4D8CEF800C032F8029CB9F1000F1FD0EB
:101350002B68AE468C464FF0000ABCF80040BEF841
:1013600002B009FB04B4A2449BB243EA0A434EF81C
:10137000043B5CF8043BBEF800401B0C09FB034334
:1013800003EB1A4367454FEA134AE6D8CEF800301C
:101390000435A0E7013EA2E72DE9F843154612F017
:1013A000030206460F4607D0013A214C002354F8A9
:1013B0002220FFF7D2FE0746AD1035D0746A3CB943
:1013C0001020FDF7D1FE7062446084600460C46048
:1013D000D6F82480D8F808404CB940F27121304644
:1013E000FFF744FF0023C8F80800044603604FF0ED
:1013F0000008EB070AD5394622463046FFF73FFF83
:10140000394681463046FFF791FE4F466D100BD0AE
:10141000206838B9224621463046FFF730FF206069
:10142000C0F800800446E4E73846BDE8F88300BF12
:10143000E81E01082DE9F0470C464FEA621A2369BD
:1014400049680AEB0309A3680746164609F1010536
:10145000AB4231DB3846FFF735FE0022804600F113
:101460001403114652452ADB20692AEAEA7A04F17C
:10147000140116F01F0203EB8A0301EB800E22D049
:10148000C2F1200C00200E689640304343F8040B54
:1014900051F8040B8E4520FA0CF0F4D8186008B10E
:1014A00009F10205013D3846C8F810502146FFF702
:1014B0003DFE4046BDE8F08701315B00C8E743F8D8
:1014C00022100132CEE7043B51F8042B43F8042FDD
:1014D0008E45F9D8E6E703690A699B1A30B50CD145
:1014E0009200143014318418114454F8045D51F8FA
:1014F000042D954203D005D30123184630BDA042E8
:10150000F3D3FAE74FF0FF33F7E72DE9F0470D4645
:101510000746114628461446FFF7DDFF061E08D190
:1015200031463846FFF7CEFD012303614661BDE831
:10153000F087A4BF23462C4638466168A6BF1D46E7
:1015400000260126FFF7BEFD2B69C660266905F15E
:10155000140904F1140202EB860709EB830800F179
:1015600014054FF0000C52F804AB59F8044B1CFA68
:101570008AF1A3B2C91A230CC3EB1A4303EB21432C
:1015800089B24FEA234CC84541EA0343964645F8E1
:10159000043BE8D8BE4505D355F8043D8BB1066140
:1015A000BDE8F0875EF8041B1CFA81F31A1402EB05
:1015B00011429BB243EA02434FEA224C45F8043BF6
:1015C000E8E7013EE8E72DE9F7430E46012159EC33
:1015D000108B1546FFF776FDC9F30A540746C9F389
:1015E000130334BB0193B8F1000F27D002A840F8D1
:1015F000088DFFF70CFE0099F0B1019AC0F12003AD
:1016000002FA03F30B43C2407B610192019BBB6171
:10161000002B14BF022101213961C4B1A4F233446B
:1016200004443460C0F135002860384603B0BDE89A
:10163000F08343F48013D5E77961E7E701A8FFF76A
:10164000E6FD019B7B61012139612030E5E707EB75
:101650008103A0F2324030601869FFF7B9FDC0EB9A
:101660004110E1E738B502FB01F42146FDF7E6FD44
:10167000054618B122460021FDF789FD284638BDF0
:101680001F2938B504460D4604D9162303604FF0D0
:10169000FF3038BD426C12B152F821304BB92046B0
:1016A00000F030F82A4601462046BDE8384000F0F8
:1016B00017B8012B0AD0591C03D11623036001204F
:1016C00038BD002442F8254028469847002038BD00
:1016D000024B01461868FFF7D3BF00BFCC000120C2
:1016E00038B5074C00230546084611462360F5F738
:1016F0003FFD431C02D1236803B12B6038BD00BFFE
:10170000101A0120F5F72CBD10B50C46B1F90E10DA
:1017100000F0A6F80028ABBF636DA3891B1823F463
:101720008053ACBF6365A38110BD2DE9F0411F4616
:101730008B89DB0505460C46164605D5022300229B
:10174000B1F90E1000F068F8A389B4F90E1023F473
:101750008053A38132463B462846BDE8F04100F065
:1017600017B810B50C46B1F90E1000F055F8431C2F
:10177000A38915BF606523F4805343F48053A3818C
:1017800018BFA38110BDB1F90E1000F013B800000E
:1017900038B5074C054608461146002222601A4615
:1017A000F5F71DFD431C02D1236803B12B6038BD42
:1017B000101A012038B5064C002305460846236060
:1017C000F5F756FD431C02D1236803B12B6038BDE9
:1017D000101A012038B5074C00230546084611466B
:1017E0002360F5F751FD431C02D1236803B12B6040
:1017F00038BD00BF101A012038B5064C002305463D
:1018000008462360F5F750FD431C02D1236803B15D
:101810002B6038BD101A012038B5074C0546084624
:101820001146002222601A46F5F749FD431C02D1F9
:10183000236803B12B6038BD101A012082B001B9B2
:1018400001A942B14BB113780B601278101C18BF7C
:10185000012002B070471046FBE76FF00100F8E787
:1018600038B5074C054608461146002222601A4644
:10187000F5F798FC431C02D1236803B12B6038BDF7
:10188000101A012049B1FF2A85BF8A2303600A701C
:101890004FF0FF3098BF01207047084670470000A6
:1018A00010EE100AC0F3C753A3F17F02162A15DC0D
:1018B000002A08DA013200F0004301D143F07E53E0
:1018C00000EE103A7047084911410842FAD04FF42F
:1018D00080031341034423EA0103F1E7802AF1D195
:1018E00030EE000A704700BFFFFF7F00F8B500BF71
:1018F000F8BC08BC9E467047F8B500BFF8BC08BCF1
:041900009E46704748
:10190800706361393638355F6C65645B305D2E69AC
:1019180032635F68616E646C6520213D204E554CD2
:101928004C0000002E2E5C436F72655C5372635C42
:10193800504341393638355F4C45445F4452495627
:1019480045525C706361393638352E6300000000FB
:10195800706361393638355F6C65645B315D2E695B
:1019680032635F68616E646C6520213D204E554C82
:101978004C000000706361393638355F6C65645B14
:10198800325D2E6932635F68616E646C6520213D4B
:10199800204E554C4C000000706361393638355F75
:1019A8006C65645B335D2E6932635F68616E646C7D
:1019B8006520213D204E554C4C0000006672657133
:1019C80075656E6379203E3D20323400667265711C
:1019D80075656E6379203C3D203135323600000054
:1019E8006368616E6E656C203C2031360000000033
:1019F8006F6E5F74696D65203C3D20343039360068
:101A08006F66665F74696D65203C3D2034303936F9
:101A180000000000647574795F6379636C65203E2B
:101A28003D20302E30000000647574795F6379635F
:101A38006C65203C3D20312E300000000A0D202A24
:101A48002A2A204E554F564120424E2046572056AE
:101A580065723A202533642E253364202A2A2A0AFF
:101A68000D0000001E000A00050002000000020030
:101A780004000500070009000B000C000E00100010
:101A8800120014001500170019001B001C001E008E
:101A98002000220024002500270029002B002D000B
:101AA8002F0031003400360038003B003D00400074
:101AB8004200450048004B004D00500053005700BD
:101AC8005A005D006100640067006B006F007300DE
:101AD80076007A007E00830087008B0090009400D7
:101AE80099009D00A200A700AC00B100B600BB00A1
:101AF800C100C600CC00D100D700DD00E300E9003A
:101B0800EF00F600FC0003010901100117011E0196
:101B180025012C0134013B0143014A0152015A01BC
:101B280062016A0173017B0184018C0195019E01A8
:101B3800A701B001BA01C301CD01D701E001EA0153
:101B4800F501FF01090214021F022A0235024002B0
:101B58004B02570262026E027A02860292029E02CB
:101B6800AB02B802C402D102DE02EC02F90207039A
:101B78001503220331033F034D035C036B037A0310
:101B880089039803A703B703C703D703E703F7033A
:101B98000804180429043A044B045D046E04800404
:101BA8009204A404B604C904DB04EE040105150577
:101BB80028053C054F05630578058C05A105B50585
:101BC800CA05E005F5050B06200636064D06630630
:101BD8007A069106A806BF06D606EE0606071E0771
:101BE80036074F07680781079A07B307CD07E70746
:101BF80001081B08350850086B088608A208BD08AC
